{
  "contractName": "AlkemiWETH",
  "abi": [
    {
      "constant": true,
      "inputs": [],
      "name": "name",
      "outputs": [
        {
          "name": "",
          "type": "string"
        }
      ],
      "payable": false,
      "stateMutability": "view",
      "type": "function"
    },
    {
      "constant": true,
      "inputs": [],
      "name": "decimals",
      "outputs": [
        {
          "name": "",
          "type": "uint8"
        }
      ],
      "payable": false,
      "stateMutability": "view",
      "type": "function"
    },
    {
      "constant": true,
      "inputs": [
        {
          "name": "",
          "type": "address"
        }
      ],
      "name": "balanceOf",
      "outputs": [
        {
          "name": "",
          "type": "uint256"
        }
      ],
      "payable": false,
      "stateMutability": "view",
      "type": "function"
    },
    {
      "constant": true,
      "inputs": [],
      "name": "symbol",
      "outputs": [
        {
          "name": "",
          "type": "string"
        }
      ],
      "payable": false,
      "stateMutability": "view",
      "type": "function"
    },
    {
      "constant": true,
      "inputs": [
        {
          "name": "",
          "type": "address"
        },
        {
          "name": "",
          "type": "address"
        }
      ],
      "name": "allowance",
      "outputs": [
        {
          "name": "",
          "type": "uint256"
        }
      ],
      "payable": false,
      "stateMutability": "view",
      "type": "function"
    },
    {
      "payable": true,
      "stateMutability": "payable",
      "type": "fallback"
    },
    {
      "anonymous": false,
      "inputs": [
        {
          "indexed": true,
          "name": "src",
          "type": "address"
        },
        {
          "indexed": true,
          "name": "guy",
          "type": "address"
        },
        {
          "indexed": false,
          "name": "wad",
          "type": "uint256"
        }
      ],
      "name": "Approval",
      "type": "event"
    },
    {
      "anonymous": false,
      "inputs": [
        {
          "indexed": true,
          "name": "src",
          "type": "address"
        },
        {
          "indexed": true,
          "name": "dst",
          "type": "address"
        },
        {
          "indexed": false,
          "name": "wad",
          "type": "uint256"
        }
      ],
      "name": "Transfer",
      "type": "event"
    },
    {
      "anonymous": false,
      "inputs": [
        {
          "indexed": true,
          "name": "dst",
          "type": "address"
        },
        {
          "indexed": false,
          "name": "wad",
          "type": "uint256"
        }
      ],
      "name": "Deposit",
      "type": "event"
    },
    {
      "anonymous": false,
      "inputs": [
        {
          "indexed": true,
          "name": "src",
          "type": "address"
        },
        {
          "indexed": false,
          "name": "wad",
          "type": "uint256"
        }
      ],
      "name": "Withdrawal",
      "type": "event"
    },
    {
      "constant": false,
      "inputs": [],
      "name": "deposit",
      "outputs": [],
      "payable": true,
      "stateMutability": "payable",
      "type": "function"
    },
    {
      "constant": false,
      "inputs": [
        {
          "name": "user",
          "type": "address"
        },
        {
          "name": "wad",
          "type": "uint256"
        }
      ],
      "name": "withdraw",
      "outputs": [],
      "payable": false,
      "stateMutability": "nonpayable",
      "type": "function"
    },
    {
      "constant": true,
      "inputs": [],
      "name": "totalSupply",
      "outputs": [
        {
          "name": "",
          "type": "uint256"
        }
      ],
      "payable": false,
      "stateMutability": "view",
      "type": "function"
    },
    {
      "constant": false,
      "inputs": [
        {
          "name": "guy",
          "type": "address"
        },
        {
          "name": "wad",
          "type": "uint256"
        }
      ],
      "name": "approve",
      "outputs": [
        {
          "name": "",
          "type": "bool"
        }
      ],
      "payable": false,
      "stateMutability": "nonpayable",
      "type": "function"
    },
    {
      "constant": false,
      "inputs": [
        {
          "name": "dst",
          "type": "address"
        },
        {
          "name": "wad",
          "type": "uint256"
        }
      ],
      "name": "transfer",
      "outputs": [
        {
          "name": "",
          "type": "bool"
        }
      ],
      "payable": false,
      "stateMutability": "nonpayable",
      "type": "function"
    },
    {
      "constant": false,
      "inputs": [
        {
          "name": "src",
          "type": "address"
        },
        {
          "name": "dst",
          "type": "address"
        },
        {
          "name": "wad",
          "type": "uint256"
        }
      ],
      "name": "transferFrom",
      "outputs": [
        {
          "name": "",
          "type": "bool"
        }
      ],
      "payable": false,
      "stateMutability": "nonpayable",
      "type": "function"
    }
  ],
  "bytecode": "0x60c0604052600d60808190527f577261707065642045746865720000000000000000000000000000000000000060a090815261003e91600091906100a3565b506040805180820190915260048082527f57455448000000000000000000000000000000000000000000000000000000006020909201918252610083916001916100a3565b506002805460ff1916601217905534801561009d57600080fd5b5061013e565b828054600181600116156101000203166002900490600052602060002090601f016020900481019282601f106100e457805160ff1916838001178555610111565b82800160010185558215610111579182015b828111156101115782518255916020019190600101906100f6565b5061011d929150610121565b5090565b61013b91905b8082111561011d5760008155600101610127565b90565b6106898061014d6000396000f3006080604052600436106100ae5763ffffffff7c010000000000000000000000000000000000000000000000000000000060003504166306fdde0381146100b8578063095ea7b31461014257806318160ddd1461017a57806323b872dd146101a1578063313ce567146101cb57806370a08231146101f657806395d89b4114610217578063a9059cbb1461022c578063d0e30db0146100ae578063dd62ed3e14610250578063f3fef3a314610277575b6100b661029b565b005b3480156100c457600080fd5b506100cd6102ea565b6040805160208082528351818301528351919283929083019185019080838360005b838110156101075781810151838201526020016100ef565b50505050905090810190601f1680156101345780820380516001836020036101000a031916815260200191505b509250505060405180910390f35b34801561014e57600080fd5b50610166600160a060020a0360043516602435610378565b604080519115158252519081900360200190f35b34801561018657600080fd5b5061018f6103de565b60408051918252519081900360200190f35b3480156101ad57600080fd5b50610166600160a060020a03600435811690602435166044356103e3565b3480156101d757600080fd5b506101e0610517565b6040805160ff9092168252519081900360200190f35b34801561020257600080fd5b5061018f600160a060020a0360043516610520565b34801561022357600080fd5b506100cd610532565b34801561023857600080fd5b50610166600160a060020a036004351660243561058c565b34801561025c57600080fd5b5061018f600160a060020a03600435811690602435166105a0565b34801561028357600080fd5b506100b6600160a060020a03600435166024356105bd565b33600081815260036020908152604091829020805434908101909155825190815291517fe1fffcc4923d04b559f4d29a8bfc6cda04eb5b0d3c460751c2402c5c5cc9109c9281900390910190a2565b6000805460408051602060026001851615610100026000190190941693909304601f810184900484028201840190925281815292918301828280156103705780601f1061034557610100808354040283529160200191610370565b820191906000526020600020905b81548152906001019060200180831161035357829003601f168201915b505050505081565b336000818152600460209081526040808320600160a060020a038716808552908352818420869055815186815291519394909390927f8c5be1e5ebec7d5bd14f71427d1e84f3dd0314c0f7b2291e5b200ac8c7c3b925928290030190a350600192915050565b303190565b600160a060020a03831660009081526003602052604081205482111561040857600080fd5b600160a060020a03841633148015906104465750600160a060020a038416600090815260046020908152604080832033845290915290205460001914155b156104a657600160a060020a038416600090815260046020908152604080832033845290915290205482111561047b57600080fd5b600160a060020a03841660009081526004602090815260408083203384529091529020805483900390555b600160a060020a03808516600081815260036020908152604080832080548890039055938716808352918490208054870190558351868152935191937fddf252ad1be2c89b69c2b068fc378daa952ba7f163c4a11628f55a4df523b3ef929081900390910190a35060019392505050565b60025460ff1681565b60036020526000908152604090205481565b60018054604080516020600284861615610100026000190190941693909304601f810184900484028201840190925281815292918301828280156103705780601f1061034557610100808354040283529160200191610370565b60006105993384846103e3565b9392505050565b600460209081526000928352604080842090915290825290205481565b336000908152600360205260409020548111156105d957600080fd5b336000908152600360205260408082208054849003905551600160a060020a0384169183156108fc02918491818181858888f19350505050158015610622573d6000803e3d6000fd5b5060408051828152905133917f7fcf532c15f0a6db0bd6d0e038bea71d30d808c7d98cb3bf7268a95bf5081b65919081900360200190a250505600a165627a7a7230582070f1daa3987e406940f26d2b8b9f2f36cec52ea8b3692626436ab7e2f8910aa40029",
  "source": "pragma solidity ^0.4.24;\n\ncontract AlkemiWETH {\n    string public name     = \"Wrapped Ether\";\n    string public symbol   = \"WETH\";\n    uint8  public decimals = 18;\n\n    event  Approval(address indexed src, address indexed guy, uint wad);\n    event  Transfer(address indexed src, address indexed dst, uint wad);\n    event  Deposit(address indexed dst, uint wad);\n    event  Withdrawal(address indexed src, uint wad);\n\n    mapping (address => uint)                       public  balanceOf;\n    mapping (address => mapping (address => uint))  public  allowance;\n\n    function() public payable {\n        deposit();\n    }\n    function deposit() public payable {\n        balanceOf[msg.sender] += msg.value;\n        Deposit(msg.sender, msg.value);\n    }\n    function withdraw(address user, uint wad) public {\n        require(balanceOf[msg.sender] >= wad);\n        balanceOf[msg.sender] -= wad;\n        user.transfer(wad);\n        Withdrawal(msg.sender, wad);\n    }\n\n    function totalSupply() public view returns (uint) {\n        return this.balance;\n    }\n\n    function approve(address guy, uint wad) public returns (bool) {\n        allowance[msg.sender][guy] = wad;\n        Approval(msg.sender, guy, wad);\n        return true;\n    }\n\n    function transfer(address dst, uint wad) public returns (bool) {\n        return transferFrom(msg.sender, dst, wad);\n    }\n\n    function transferFrom(address src, address dst, uint wad)\n        public\n        returns (bool)\n    {\n        require(balanceOf[src] >= wad);\n\n        if (src != msg.sender && allowance[src][msg.sender] != uint(-1)) {\n            require(allowance[src][msg.sender] >= wad);\n            allowance[src][msg.sender] -= wad;\n        }\n\n        balanceOf[src] -= wad;\n        balanceOf[dst] += wad;\n\n        Transfer(src, dst, wad);\n\n        return true;\n    }\n}",
  "sourcePath": "/Users/raghu/Alkemi/alkemi-earn-protocol/contracts/AlkemiWETH.sol",
  "compiler": {
    "name": "solc",
    "version": "0.4.24+commit.e67f0147.Emscripten.clang"
  },
  "schemaVersion": "3.2.3",
  "updatedAt": "2020-10-30T19:35:25.315Z",
  "networkType": "ethereum",
  "devdoc": {
    "methods": {}
  },
  "userdoc": {
    "methods": {}
  }
}