{
  "contractName": "AlkemiRateModel",
  "abi": [
    {
      "constant": true,
      "inputs": [],
      "name": "allowLiquidation",
      "outputs": [
        {
          "name": "",
          "type": "bool"
        }
      ],
      "payable": false,
      "stateMutability": "view",
      "type": "function"
    },
    {
      "constant": false,
      "inputs": [
        {
          "name": "allowLiquidation_",
          "type": "bool"
        }
      ],
      "name": "setAllowLiquidation",
      "outputs": [],
      "payable": false,
      "stateMutability": "nonpayable",
      "type": "function"
    },
    {
      "constant": true,
      "inputs": [],
      "name": "liquidator",
      "outputs": [
        {
          "name": "",
          "type": "address"
        }
      ],
      "payable": false,
      "stateMutability": "view",
      "type": "function"
    },
    {
      "constant": true,
      "inputs": [],
      "name": "contractName",
      "outputs": [
        {
          "name": "",
          "type": "string"
        }
      ],
      "payable": false,
      "stateMutability": "view",
      "type": "function"
    },
    {
      "constant": true,
      "inputs": [],
      "name": "owner",
      "outputs": [
        {
          "name": "",
          "type": "address"
        }
      ],
      "payable": false,
      "stateMutability": "view",
      "type": "function"
    },
    {
      "constant": true,
      "inputs": [],
      "name": "newOwner",
      "outputs": [
        {
          "name": "",
          "type": "address"
        }
      ],
      "payable": false,
      "stateMutability": "view",
      "type": "function"
    },
    {
      "constant": true,
      "inputs": [],
      "name": "moneyMarket",
      "outputs": [
        {
          "name": "",
          "type": "address"
        }
      ],
      "payable": false,
      "stateMutability": "view",
      "type": "function"
    },
    {
      "inputs": [
        {
          "name": "_contractName",
          "type": "string"
        },
        {
          "name": "MinRate",
          "type": "uint256"
        },
        {
          "name": "HealthyMinUR",
          "type": "uint256"
        },
        {
          "name": "HealthyMinRate",
          "type": "uint256"
        },
        {
          "name": "HealthyMaxUR",
          "type": "uint256"
        },
        {
          "name": "HealthyMaxRate",
          "type": "uint256"
        },
        {
          "name": "MaxRate",
          "type": "uint256"
        },
        {
          "name": "moneyMarket",
          "type": "address"
        },
        {
          "name": "liquidator",
          "type": "address"
        }
      ],
      "payable": false,
      "stateMutability": "nonpayable",
      "type": "constructor"
    },
    {
      "anonymous": false,
      "inputs": [
        {
          "indexed": true,
          "name": "owner",
          "type": "address"
        },
        {
          "indexed": true,
          "name": "newOwner",
          "type": "address"
        }
      ],
      "name": "OwnerUpdate",
      "type": "event"
    },
    {
      "anonymous": false,
      "inputs": [
        {
          "indexed": true,
          "name": "owner",
          "type": "address"
        },
        {
          "indexed": true,
          "name": "newLiquidator",
          "type": "address"
        },
        {
          "indexed": true,
          "name": "oldLiquidator",
          "type": "address"
        }
      ],
      "name": "LiquidatorUpdate",
      "type": "event"
    },
    {
      "anonymous": false,
      "inputs": [
        {
          "indexed": false,
          "name": "error",
          "type": "uint256"
        },
        {
          "indexed": false,
          "name": "info",
          "type": "uint256"
        },
        {
          "indexed": false,
          "name": "detail",
          "type": "uint256"
        }
      ],
      "name": "Failure",
      "type": "event"
    },
    {
      "constant": false,
      "inputs": [
        {
          "name": "_contractName",
          "type": "string"
        },
        {
          "name": "MinRate",
          "type": "uint256"
        },
        {
          "name": "HealthyMinUR",
          "type": "uint256"
        },
        {
          "name": "HealthyMinRate",
          "type": "uint256"
        },
        {
          "name": "HealthyMaxUR",
          "type": "uint256"
        },
        {
          "name": "HealthyMaxRate",
          "type": "uint256"
        },
        {
          "name": "MaxRate",
          "type": "uint256"
        }
      ],
      "name": "changeRates",
      "outputs": [],
      "payable": false,
      "stateMutability": "nonpayable",
      "type": "function"
    },
    {
      "constant": false,
      "inputs": [
        {
          "name": "newOwner_",
          "type": "address"
        }
      ],
      "name": "transferOwnership",
      "outputs": [],
      "payable": false,
      "stateMutability": "nonpayable",
      "type": "function"
    },
    {
      "constant": false,
      "inputs": [],
      "name": "acceptOwnership",
      "outputs": [],
      "payable": false,
      "stateMutability": "nonpayable",
      "type": "function"
    },
    {
      "constant": false,
      "inputs": [
        {
          "name": "_liquidator",
          "type": "address"
        }
      ],
      "name": "setLiquidator",
      "outputs": [],
      "payable": false,
      "stateMutability": "nonpayable",
      "type": "function"
    },
    {
      "constant": true,
      "inputs": [
        {
          "name": "_asset",
          "type": "address"
        },
        {
          "name": "cash",
          "type": "uint256"
        },
        {
          "name": "borrows",
          "type": "uint256"
        }
      ],
      "name": "getSupplyRate",
      "outputs": [
        {
          "name": "",
          "type": "uint256"
        },
        {
          "name": "",
          "type": "uint256"
        }
      ],
      "payable": false,
      "stateMutability": "view",
      "type": "function"
    },
    {
      "constant": true,
      "inputs": [
        {
          "name": "asset",
          "type": "address"
        },
        {
          "name": "cash",
          "type": "uint256"
        },
        {
          "name": "borrows",
          "type": "uint256"
        }
      ],
      "name": "getBorrowRate",
      "outputs": [
        {
          "name": "",
          "type": "uint256"
        },
        {
          "name": "",
          "type": "uint256"
        }
      ],
      "payable": false,
      "stateMutability": "view",
      "type": "function"
    }
  ],
  "bytecode": "0x60806040523480156200001157600080fd5b5060405162001d7838038062001d7883398101604090815281516020830151918301516060840151608085015160a086015160c087015160e08801516101008901519690980197949593949293919290916200006c620007b0565b62000076620007b0565b62000080620007b0565b60008585816000806101000a815481600160a060020a030219169083600160a060020a0316021790555080600160006101000a815481600160a060020a030219169083600160a060020a031602179055506000600160146101000a81548160ff021916908315150217905550505033600260006101000a815481600160a060020a030219169083600160a060020a031602179055508c600490805190602001906200012d929190620007c2565b50620001456064600164010000000062000449810204565b925090506200015f8c606464010000000062000449810204565b51600d5590506200017b8b606464010000000062000449810204565b51600e559050620001978a606464010000000062000449810204565b51600f559050620001b387606464010000000062000449810204565b516010559050620001cf89606464010000000062000449810204565b516011559050620001eb88606464010000000062000449810204565b51601255600d546005819055600e54600655601154600a556040805160208181018352600f548252825190810190925291815291925062000235916401000000006200051a810204565b60408051602081019091526006548152909550909150620002619085906401000000006200055f810204565b51600755604080516020818101835260125482528251908101909252600f5482529192506200029a91906401000000006200051a810204565b604080516020818101835260115482528251908101909252600e548252919650919250620002d1916401000000006200051a810204565b93509050620002ea84846401000000006200055f810204565b51600881905560408051602081810183529281528151928301909152600654825291925062000323919064010000000062000590810204565b6040805160208101909152600f5481529095509091506200034e90856401000000006200051a810204565b5160095560408051602081810183526010548252825190810190925260125482529192506200038791906401000000006200051a810204565b60408051602081019091526011548152909550909150620003b39083906401000000006200051a810204565b93509050620003cc84846401000000006200055f810204565b51600b81905560408051602081810183529281528151928301909152600a54825291925062000405919064010000000062000590810204565b60408051602081019091526012548152909450909150620004309084640100000000620006ae810204565b51600c5550620008679c50505050505050505050505050565b600062000455620007b0565b60008080806200047788670de0b6b3a7640000640100000000620006d8810204565b909450925060008460218111156200048b57fe5b14620004ae5760408051602081019091526000815293955092935084926200050f565b620004c3838864010000000062000727810204565b90925090506000826021811115620004d757fe5b14620004fa5760408051602081019091526000815291955090935084906200050f565b60408051602081019091528181526000965094505b505050509250929050565b600062000526620007b0565b83518351600091829162000544919064010000000062000759810204565b60408051602081019091529081529097909650945050505050565b60006200056b620007b0565b8351835162000584919064010000000062000449810204565b915091505b9250929050565b60006200059c620007b0565b600080600080600080620005c88a600001518a60000151620006d8640100000000026401000000009004565b90965094506000866021811115620005dc57fe5b14620005ff576040805160208101909152600081529597509495508694620006a1565b6200061c6706f05b59d3b20000866401000000006200077f810204565b909450925060008460218111156200063057fe5b1462000653576040805160208101909152600081529397509295508692620006a1565b6200067083670de0b6b3a764000064010000000062000727810204565b909250905060008260218111156200068457fe5b146200068c57fe5b60408051602081019091528181526000985096505b5050505050509250929050565b6000620006ba620007b0565b835183516000918291620005449190640100000000620007a8810204565b60008080841515620006f157600092508291506200071f565b508383028385828115156200070257fe5b0414620007175760039250600091506200071f565b600081925092505b509250929050565b6000808215156200073f575060059050600062000589565b600083858115156200074d57fe5b04915091509250929050565b6000808383116200077257506000905081830362000589565b5060049050600062000589565b6000808383018481106200079a57600081925092506200071f565b60039250600091506200071f565b600092910390565b60408051602081019091526000815290565b828054600181600116156101000203166002900490600052602060002090601f016020900481019282601f106200080557805160ff191683800117855562000835565b8280016001018555821562000835579182015b828111156200083557825182559160200191906001019062000818565b506200084392915062000847565b5090565b6200086491905b808211156200084357600081556001016200084e565b90565b61150180620008776000396000f3006080604052600436106100c35763ffffffff7c01000000000000000000000000000000000000000000000000000000006000350416620fba1681146100c857806301c76f81146100f15780631d5134f31461011457806325468f681461018a5780634046ebae146101a4578063517cf73e146101d557806375d0c0dc1461021557806379ba50971461029f5780638da5cb5b146102b4578063d4ee1d90146102c9578063d6d75f51146102de578063ed2b5a3c146102f3578063f2fde38b1461031a575b600080fd5b3480156100d457600080fd5b506100dd61033b565b604080519115158252519081900360200190f35b3480156100fd57600080fd5b50610112600160a060020a036004351661035c565b005b34801561012057600080fd5b506040805160206004803580820135601f810184900484028501840190955284845261011294369492936024939284019190819084018382808284375094975050843595505050602083013592604081013592506060810135915060808101359060a00135610534565b34801561019657600080fd5b506101126004351515610808565b3480156101b057600080fd5b506101b96108d0565b60408051600160a060020a039092168252519081900360200190f35b3480156101e157600080fd5b506101fc600160a060020a03600435166024356044356108df565b6040805192835260208301919091528051918290030190f35b34801561022157600080fd5b5061022a610a2d565b6040805160208082528351818301528351919283929083019185019080838360005b8381101561026457818101518382015260200161024c565b50505050905090810190601f1680156102915780820380516001836020036101000a031916815260200191505b509250505060405180910390f35b3480156102ab57600080fd5b50610112610abb565b3480156102c057600080fd5b506101b9610bb6565b3480156102d557600080fd5b506101b9610bc5565b3480156102ea57600080fd5b506101b9610bd4565b3480156102ff57600080fd5b506101fc600160a060020a0360043516602435604435610be3565b34801561032657600080fd5b50610112600160a060020a0360043516610c72565b60015474010000000000000000000000000000000000000000900460ff1681565b600254600090600160a060020a031633146103c1576040805160e560020a62461bcd02815260206004820152600960248201527f6e6f6e2d6f776e65720000000000000000000000000000000000000000000000604482015290519081900360640190fd5b600160a060020a0382161515610447576040805160e560020a62461bcd02815260206004820152603260248201527f7365744c697175696461746f723a206c697175696461746f722063616e6e6f7460448201527f2062652061207a65726f20616464726573730000000000000000000000000000606482015290519081900360840190fd5b600154600160a060020a03838116911614156104d3576040805160e560020a62461bcd02815260206004820152603b60248201527f7365744c697175696461746f723a20546865206f6c6420616e64206e6577206160448201527f64647265737365732063616e6e6f74206265207468652073616d650000000000606482015290519081900360840190fd5b5060018054600160a060020a0383811673ffffffffffffffffffffffffffffffffffffffff1983168117909355604051911691829133907f46b013dada1d335383b9d3190f25cb26c7bb71745f2d274203a6088c3c5b2ff590600090a45050565b61053c611428565b610544611428565b61054c611428565b600254600090600160a060020a031633146105b1576040805160e560020a62461bcd02815260206004820152600960248201527f6e6f6e2d6f776e65720000000000000000000000000000000000000000000000604482015290519081900360640190fd5b8a516105c49060049060208e019061143a565b506105d160646001610d8f565b925090506105e08a6064610d8f565b51600d5590506105f1896064610d8f565b51600e559050610602886064610d8f565b51600f559050610613856064610d8f565b516010559050610624876064610d8f565b516011559050610635866064610d8f565b51601255600d546005819055600e54600655601154600a556040805160208181018352600f548252825190810190925291815291925061067491610e43565b60408051602081019091526006548152909550909150610695908590610e85565b51600755604080516020818101835260125482528251908101909252600f5482529192506106c39190610e43565b604080516020818101835260115482528251908101909252600e5482529196509192506106ef91610e43565b935090506106fd8484610e85565b51600881905560408051602081810183529281528151928301909152600654825291925061072b9190610ea9565b6040805160208101909152600f54815290955090915061074b9085610e43565b5160095560408051602081810183526010548252825190810190925260125482529192506107799190610e43565b6040805160208101909152601154815290955090915061079a908390610e43565b935090506107a88484610e85565b51600b81905560408051602081810183529281528151928301909152600a5482529192506107d69190610ea9565b604080516020810190915260125481529094509091506107f69084610f96565b51600c55505050505050505050505050565b600154600160a060020a03163314610890576040805160e560020a62461bcd02815260206004820152602660248201527f4c49515549444154494f4e5f434845434b45525f494e56414c49445f4c49515560448201527f494441544f520000000000000000000000000000000000000000000000000000606482015290519081900360840190fd5b60018054911515740100000000000000000000000000000000000000000274ff000000000000000000000000000000000000000019909216919091179055565b600154600160a060020a031681565b60008060006108ec611428565b6108f4611428565b6108fc611428565b6000610906611428565b6000610910611428565b61091a8c8c610fb5565b91995097509550600088600381111561092f57fe5b1461094b5787600381111561094057fe5b995060009850610a1d565b61095760646001610d8f565b95509350600084602181111561096957fe5b1461097057fe5b6040805160208101909152600554815261098b908690610e43565b9094509250600084602181111561099e57fe5b146109a557fe5b6109af8787610ea9565b9550935060008460218111156109c157fe5b146109c857fe5b6109d28584610ea9565b9550935060008460218111156109e457fe5b146109eb57fe5b6109fa856404e520c8006111c8565b90925090506000826021811115610a0d57fe5b14610a1457fe5b805160009a5098505b5050505050505050935093915050565b6004805460408051602060026001851615610100026000190190941693909304601f81018490048402820184019092528181529291830182828015610ab35780601f10610a8857610100808354040283529160200191610ab3565b820191906000526020600020905b815481529060010190602001808311610a9657829003601f168201915b505050505081565b600354600160a060020a03163314610b43576040805160e560020a62461bcd02815260206004820152602860248201527f4163636570744f776e6572736869703a206f6e6c79206e6577206f776e65722060448201527f646f20746869732e000000000000000000000000000000000000000000000000606482015290519081900360840190fd5b600354600254604051600160a060020a0392831692909116907f343765429aea5a34b3ff6a3785a98a5abb2597aca87bfbb58632c173d585373a90600090a3600380546002805473ffffffffffffffffffffffffffffffffffffffff19908116600160a060020a03841617909155169055565b600254600160a060020a031681565b600354600160a060020a031681565b600054600160a060020a031681565b6000806000610bf0611428565b6000610bfa611428565b610c048888610fb5565b91955090935060009050846003811115610c1a57fe5b14610c3657836003811115610c2b57fe5b955060009450610c66565b610c4383622014806111c8565b90925090506000826021811115610c5657fe5b14610c5d57fe5b80516000965094505b50505050935093915050565b600254600160a060020a03163314610cd4576040805160e560020a62461bcd02815260206004820152600960248201527f6e6f6e2d6f776e65720000000000000000000000000000000000000000000000604482015290519081900360640190fd5b600254600160a060020a0382811691161415610d60576040805160e560020a62461bcd02815260206004820152602260248201527f5472616e736665724f776e6572736869703a207468652073616d65206f776e6560448201527f722e000000000000000000000000000000000000000000000000000000000000606482015290519081900360840190fd5b6003805473ffffffffffffffffffffffffffffffffffffffff1916600160a060020a0392909216919091179055565b6000610d99611428565b600080600080610db188670de0b6b3a7640000611232565b90945092506000846021811115610dc457fe5b14610de5576040805160208101909152600081529395509293508492610e38565b610def838861127c565b90925090506000826021811115610e0257fe5b14610e23576040805160208101909152600081529195509093508490610e38565b60408051602081019091528181526000965094505b505050509250929050565b6000610e4d611428565b600080610e62866000015186600001516112ab565b604080516020810190915281815291955090935084925090505b50509250929050565b6000610e8f611428565b83518351610e9d9190610d8f565b915091505b9250929050565b6000610eb3611428565b600080600080600080610ece8a600001518a60000151611232565b90965094506000866021811115610ee157fe5b14610f02576040805160208101909152600081529597509495508694610f89565b610f146706f05b59d3b20000866112ce565b90945092506000846021811115610f2757fe5b14610f48576040805160208101909152600081529397509295508692610f89565b610f5a83670de0b6b3a764000061127c565b90925090506000826021811115610f6d57fe5b14610f7457fe5b60408051602081019091528181526000985096505b5050505050509250929050565b6000610fa0611428565b600080610e62866000015186600001516112f4565b6000610fbf611428565b610fc7611428565b6000610fd1611428565b600080610fdc611428565b610fe4611428565b610fee8b8b6112fc565b9096509450600086600381111561100157fe5b146110315760408051602081810183526000808352835191820190935291825296995095975094955087946111bb565b600654855110156110b05760408051602081019091526007548152611057908690610ea9565b9094509150600084602181111561106a57fe5b1461107157fe5b6040805160208101909152600554815261108c9083906113c7565b8051919550909350905060008460218111156110a457fe5b146110ab57fe5b611195565b600a548551111561110b576040805160208101909152600b5481526110d6908690610ea9565b909450915060008460218111156110e957fe5b146110f057fe5b6040805160208101909152600c54815261108c9083906113e6565b6006548551108015906111215750600a54855111155b156111955760408051602081019091526008548152611141908690610ea9565b9094509150600084602181111561115457fe5b1461115b57fe5b604080516020810190915260095481526111769083906113c7565b80519195509093509050600084602181111561118e57fe5b1461119557fe5b6000856020604051908101604052806064878115156111b057fe5b049052919a50985096505b5050505050509250925092565b60006111d2611428565b6000806111e386600001518661127c565b909250905060008260218111156111f657fe5b14611217576040805160208101909152600081529193509091508290610e7c565b60408051602081019091529081526000969095509350505050565b600080808415156112495760009250829150611274565b5083830283858281151561125957fe5b041461126c576003925060009150611274565b600081925092505b509250929050565b6000808215156112925750600590506000610ea2565b6000838581151561129f57fe5b04915091509250929050565b6000808383116112c2575060009050818303610ea2565b50600490506000610ea2565b6000808383018481106112e75760008192509250611274565b6003925060009150611274565b600092910390565b6000611306611428565b6000806000611313611428565b861515611333576040805160208101909152600080825296509450610e38565b61133d88886112ce565b9094509250600084602181111561135057fe5b1461136f57604080516020810190915260008152600196509450610e38565b6113798784610d8f565b9092509050600082602181111561138c57fe5b146113ab57604080516020810190915260008152600296509450610e38565b6113b6816064611405565b60009a909950975050505050505050565b60006113d1611428565b600080610e62866000015186600001516112ce565b60006113f0611428565b600080610e6286600001518660000151611420565b600061140f611428565b6000806111e3866000015186611232565b600092910190565b60408051602081019091526000815290565b828054600181600116156101000203166002900490600052602060002090601f016020900481019282601f1061147b57805160ff19168380011785556114a8565b828001600101855582156114a8579182015b828111156114a857825182559160200191906001019061148d565b506114b49291506114b8565b5090565b6114d291905b808211156114b457600081556001016114be565b905600a165627a7a7230582033d9ab38c60c21c3c41272aa7b9bd40806ca9b0bbbe20c19220d3c8cc7810f990029",
  "source": "pragma solidity ^0.4.24;\r\n\r\nimport \"./Exponential.sol\";\r\nimport \"./LiquidationChecker.sol\";\r\n\r\ncontract AlkemiRateModel is Exponential, LiquidationChecker {\r\n\r\n    uint constant blocksPerYear = 2102400;\r\n\r\n    address public owner;\r\n    address public newOwner;\r\n    \r\n    string public contractName;\r\n\r\n    modifier onlyOwner() {\r\n        require(msg.sender == owner, \"non-owner\");\r\n        _;\r\n    }\r\n\r\n    enum IRError {\r\n        NO_ERROR,\r\n        FAILED_TO_ADD_CASH_PLUS_BORROWS,\r\n        FAILED_TO_GET_EXP,\r\n        FAILED_TO_MUL_PRODUCT_TIMES_BORROW_RATE\r\n    }\r\n\r\n    event OwnerUpdate(address indexed owner, address indexed newOwner);\r\n    event LiquidatorUpdate(address indexed owner, address indexed newLiquidator, address indexed oldLiquidator);\r\n    \r\n    Exp internal SpreadLow;\r\n    Exp internal BreakPointLow;\r\n    Exp internal ReserveLow;\r\n    Exp internal ReserveMid;\r\n    Exp internal SpreadMid;\r\n    Exp internal BreakPointHigh;\r\n    Exp internal ReserveHigh;\r\n    ExpNegative internal SpreadHigh;\r\n    \r\n    Exp internal MinRateActual;\r\n    Exp internal HealthyMinURActual;\r\n    Exp internal HealthyMinRateActual;\r\n    Exp internal MaxRateActual;\r\n    Exp internal HealthyMaxURActual;\r\n    Exp internal HealthyMaxRateActual;\r\n\r\n    constructor(string memory _contractName,uint MinRate,uint HealthyMinUR,uint HealthyMinRate,uint HealthyMaxUR,uint HealthyMaxRate,uint MaxRate, address moneyMarket, address liquidator) LiquidationChecker(moneyMarket, liquidator) public {\r\n        // Remember to enter percentage times 100. ex., if it is 2.50%, enter 250\r\n        owner = msg.sender;\r\n        contractName = _contractName;\r\n        Exp memory  temp1;\r\n        Exp memory temp2;\r\n        Exp memory HunderedMantissa;\r\n        Error err;\r\n        \r\n        (err,HunderedMantissa) = getExp(100,1);\r\n        \r\n        (err,MinRateActual) = getExp(MinRate,100);\r\n        (err,HealthyMinURActual) = getExp(HealthyMinUR,100);\r\n        (err,HealthyMinRateActual) = getExp(HealthyMinRate,100);\r\n        (err,MaxRateActual) = getExp(MaxRate,100);\r\n        (err,HealthyMaxURActual) = getExp(HealthyMaxUR,100);\r\n        (err,HealthyMaxRateActual) = getExp(HealthyMaxRate,100);\r\n        \r\n        SpreadLow = MinRateActual;\r\n        BreakPointLow = HealthyMinURActual;\r\n        BreakPointHigh = HealthyMaxURActual;\r\n        \r\n        // ReserveLow = (HealthyMinRate-SpreadLow)/BreakPointLow;\r\n        (err,temp1) = subExp(HealthyMinRateActual,SpreadLow);\r\n        (err,ReserveLow) = divExp(temp1,BreakPointLow);\r\n        \r\n        // ReserveMid = (HealthyMaxRate-HealthyMinRate)/(HealthyMaxUR-HealthyMinUR);\r\n        (err,temp1) = subExp(HealthyMaxRateActual,HealthyMinRateActual);\r\n        (err,temp2) = subExp(HealthyMaxURActual,HealthyMinURActual);\r\n        (err,ReserveMid) = divExp(temp1,temp2);\r\n        \r\n        // SpreadMid = HealthyMinRate - (ReserveMid * BreakPointLow);\r\n        (err,temp1) = mulExp(ReserveMid,BreakPointLow);\r\n        (err,SpreadMid) = subExp(HealthyMinRateActual,temp1);\r\n        \r\n        // ReserveHigh = (MaxRate - HealthyMaxRate) / (100 - HealthyMaxUR);\r\n        (err,temp1) = subExp(MaxRateActual,HealthyMaxRateActual);\r\n        (err,temp2) = subExp(HunderedMantissa,HealthyMaxURActual);\r\n        (err,ReserveHigh) = divExp(temp1,temp2);\r\n        \r\n        // SpreadHigh = HealthyMaxRate - (ReserveHigh * BreakPointHigh);\r\n        (err,temp2) = mulExp(ReserveHigh,BreakPointHigh);\r\n        (err,SpreadHigh) = subExpNegative(HealthyMaxRateActual,temp2);\r\n    }\r\n\r\n    function changeRates(string memory _contractName,uint MinRate,uint HealthyMinUR,uint HealthyMinRate,uint HealthyMaxUR,uint HealthyMaxRate,uint MaxRate) public onlyOwner {\r\n        // Remember to enter percentage times 100. ex., if it is 2.50%, enter 250\r\n        contractName = _contractName;\r\n        Exp memory  temp1;\r\n        Exp memory temp2;\r\n        Exp memory HunderedMantissa;\r\n        Error err;\r\n        \r\n        (err,HunderedMantissa) = getExp(100,1);\r\n        \r\n        (err,MinRateActual) = getExp(MinRate,100);\r\n        (err,HealthyMinURActual) = getExp(HealthyMinUR,100);\r\n        (err,HealthyMinRateActual) = getExp(HealthyMinRate,100);\r\n        (err,MaxRateActual) = getExp(MaxRate,100);\r\n        (err,HealthyMaxURActual) = getExp(HealthyMaxUR,100);\r\n        (err,HealthyMaxRateActual) = getExp(HealthyMaxRate,100);\r\n        \r\n        SpreadLow = MinRateActual;\r\n        BreakPointLow = HealthyMinURActual;\r\n        BreakPointHigh = HealthyMaxURActual;\r\n        \r\n        // ReserveLow = (HealthyMinRate-SpreadLow)/BreakPointLow;\r\n        (err,temp1) = subExp(HealthyMinRateActual,SpreadLow);\r\n        (err,ReserveLow) = divExp(temp1,BreakPointLow);\r\n        \r\n        // ReserveMid = (HealthyMaxRate-HealthyMinRate)/(HealthyMaxUR-HealthyMinUR);\r\n        (err,temp1) = subExp(HealthyMaxRateActual,HealthyMinRateActual);\r\n        (err,temp2) = subExp(HealthyMaxURActual,HealthyMinURActual);\r\n        (err,ReserveMid) = divExp(temp1,temp2);\r\n        \r\n        // SpreadMid = HealthyMinRate - (ReserveMid * BreakPointLow);\r\n        (err,temp1) = mulExp(ReserveMid,BreakPointLow);\r\n        (err,SpreadMid) = subExp(HealthyMinRateActual,temp1);\r\n        \r\n        // ReserveHigh = (MaxRate - HealthyMaxRate) / (100 - HealthyMaxUR);\r\n        (err,temp1) = subExp(MaxRateActual,HealthyMaxRateActual);\r\n        (err,temp2) = subExp(HunderedMantissa,HealthyMaxURActual);\r\n        (err,ReserveHigh) = divExp(temp1,temp2);\r\n        \r\n        // SpreadHigh = HealthyMaxRate - (ReserveHigh * BreakPointHigh);\r\n        (err,temp2) = mulExp(ReserveHigh,BreakPointHigh);\r\n        (err,SpreadHigh) = subExpNegative(HealthyMaxRateActual,temp2);\r\n    }\r\n\r\n    function transferOwnership(address newOwner_) external onlyOwner {\r\n        require(newOwner_ != owner, \"TransferOwnership: the same owner.\");\r\n        newOwner = newOwner_;\r\n    }\r\n\r\n    function acceptOwnership() external {\r\n        require(msg.sender == newOwner, \"AcceptOwnership: only new owner do this.\");\r\n        emit OwnerUpdate(owner, newOwner);\r\n        owner = newOwner;\r\n        newOwner = address(0x0);\r\n    }\r\n\r\n    function setLiquidator(address _liquidator) external onlyOwner {\r\n        require(_liquidator != address(0), \"setLiquidator: liquidator cannot be a zero address\");\r\n        require(liquidator != _liquidator, \"setLiquidator: The old and new addresses cannot be the same\");\r\n        address oldLiquidator = liquidator;\r\n        liquidator = _liquidator;\r\n        emit LiquidatorUpdate(msg.sender, _liquidator, oldLiquidator);\r\n    }\r\n\r\n    /*\r\n     * @dev Calculates the utilization rate (borrows / (cash + borrows)) as an Exp\r\n     */\r\n    function getUtilizationRate(uint cash, uint borrows) pure internal returns (IRError, Exp memory) {\r\n        if (borrows == 0) {\r\n            // Utilization rate is zero when there's no borrows\r\n            return (IRError.NO_ERROR, Exp({mantissa: 0}));\r\n        }\r\n\r\n        (Error err0, uint cashPlusBorrows) = add(cash, borrows);\r\n        if (err0 != Error.NO_ERROR) {\r\n            return (IRError.FAILED_TO_ADD_CASH_PLUS_BORROWS, Exp({mantissa: 0}));\r\n        }\r\n\r\n        (Error err1, Exp memory utilizationRate) = getExp(borrows, cashPlusBorrows);\r\n        if (err1 != Error.NO_ERROR) {\r\n            return (IRError.FAILED_TO_GET_EXP, Exp({mantissa: 0}));\r\n        }\r\n        (err1,utilizationRate) = mulScalar(utilizationRate,100);\r\n\r\n        return (IRError.NO_ERROR, utilizationRate);\r\n    }\r\n    \r\n    /*\r\n     * @dev Calculates the utilization and borrow rates for use by get{Supply,Borrow}Rate functions\r\n     */\r\n    function getUtilizationAndAnnualBorrowRate(uint cash, uint borrows) view internal returns (IRError, Exp memory, Exp memory) {\r\n        (IRError err0, Exp memory utilizationRate) = getUtilizationRate(cash, borrows);\r\n        if (err0 != IRError.NO_ERROR) {\r\n            return (err0, Exp({mantissa: 0}), Exp({mantissa: 0}));\r\n        }\r\n\r\n        /**\r\n         *  Borrow Rate\r\n         *  0 < UR < 20% :      SpreadLow + UR * ReserveLow\r\n         *  20% <= UR <= 80% :  SpreadMid + UR * ReserveMid\r\n         *  80% < UR :          SpreadHigh + UR * ReserveHigh\r\n         */\r\n\r\n        Error err;\r\n        \r\n        uint annualBorrowRateScaled;\r\n        Exp memory tempScaled;\r\n        Exp memory tempScaled2;\r\n        \r\n        if(utilizationRate.mantissa < BreakPointLow.mantissa) {\r\n            (err, tempScaled) = mulExp(utilizationRate, ReserveLow);\r\n            assert(err == Error.NO_ERROR);\r\n            (err, tempScaled2) = addExp(tempScaled, SpreadLow);\r\n            annualBorrowRateScaled = tempScaled2.mantissa;\r\n            assert(err == Error.NO_ERROR);\r\n        }\r\n        else if (utilizationRate.mantissa > BreakPointHigh.mantissa) {\r\n            (err, tempScaled) = mulExp(utilizationRate, ReserveHigh);\r\n            assert(err == Error.NO_ERROR);\r\n            (err, tempScaled2) = addExpNegative(tempScaled, SpreadHigh);\r\n            annualBorrowRateScaled = tempScaled2.mantissa;\r\n            assert(err == Error.NO_ERROR);\r\n        }\r\n        else if (utilizationRate.mantissa >= BreakPointLow.mantissa && utilizationRate.mantissa <= BreakPointHigh.mantissa) {\r\n            (err, tempScaled) = mulExp(utilizationRate, ReserveMid);\r\n            assert(err == Error.NO_ERROR);\r\n            (err, tempScaled2) = addExp(tempScaled, SpreadMid);\r\n            annualBorrowRateScaled = tempScaled2.mantissa;\r\n            assert(err == Error.NO_ERROR);\r\n        }\r\n\r\n        return (IRError.NO_ERROR, utilizationRate, Exp({mantissa: annualBorrowRateScaled / 100}));\r\n    }\r\n\r\n    /**\r\n      * @notice Gets the current supply interest rate based on the given asset, total cash and total borrows\r\n      * @dev The return value should be scaled by 1e18, thus a return value of\r\n      *      `(true, 1000000000000)` implies an interest rate of 0.000001 or 0.0001% *per block*.\r\n      * @param _asset The asset to get the interest rate of\r\n      * @param cash The total cash of the asset in the market\r\n      * @param borrows The total borrows of the asset in the market\r\n      * @return Success or failure and the supply interest rate per block scaled by 10e18\r\n      */\r\n    function getSupplyRate(address _asset, uint cash, uint borrows) public view returns (uint, uint) {\r\n        _asset; // pragma ignore unused argument\r\n        (IRError err0, Exp memory utilizationRate0, Exp memory annualBorrowRate) = getUtilizationAndAnnualBorrowRate(cash, borrows);\r\n        if (err0 != IRError.NO_ERROR) {\r\n            return (uint(err0), 0);\r\n        }\r\n         \r\n         /**\r\n         *  Supply Rate\r\n         *  = BorrowRate * utilizationRate * (1 - SpreadLow)\r\n         */\r\n         Exp memory temp1;\r\n         Error err1;\r\n         Exp memory oneMinusSpreadBasisPoints;\r\n         (err1,temp1) = getExp(100,1);\r\n         assert(err1 == Error.NO_ERROR);\r\n         (err1,oneMinusSpreadBasisPoints) = subExp(temp1,SpreadLow);\r\n\r\n        // mulScalar only overflows when product is greater than or equal to 2^256.\r\n        // utilization rate's mantissa is a number between [0e18,1e18]. That means that\r\n        // utilizationRate1 is a value between [0e18,8.5e21]. This is strictly less than 2^256.\r\n        assert(err1 == Error.NO_ERROR);\r\n\r\n        // Next multiply this product times the borrow rate\r\n        (err1, temp1) = mulExp(utilizationRate0, annualBorrowRate);\r\n        // If the product of the mantissas for mulExp are both less than 2^256,\r\n        // then this operation will never fail. TODO: Verify.\r\n        // We know that borrow rate is in the interval [0, 2.25e17] from above.\r\n        // We know that utilizationRate1 is in the interval [0, 9e21] from directly above.\r\n        // As such, the multiplication is in the interval of [0, 2.025e39]. This is strictly\r\n        // less than 2^256 (which is about 10e77).\r\n        assert(err1 == Error.NO_ERROR);\r\n        \r\n        (err1, temp1) = mulExp(temp1, oneMinusSpreadBasisPoints);\r\n        assert(err1 == Error.NO_ERROR);\r\n\r\n        // And then divide down by the spread's denominator (basis points divisor)\r\n        // as well as by blocks per year.\r\n        (Error err4, Exp memory supplyRate) = divScalar(temp1, 10000 * blocksPerYear); // basis points * blocks per year\r\n        // divScalar only fails when divisor is zero. This is clearly not the case.\r\n        assert(err4 == Error.NO_ERROR);\r\n\r\n        return (uint(IRError.NO_ERROR), supplyRate.mantissa);\r\n    }\r\n\r\n    /**\r\n      * @notice Gets the current borrow interest rate based on the given asset, total cash and total borrows\r\n      * @dev The return value should be scaled by 1e18, thus a return value of\r\n      *      `(true, 1000000000000)` implies an interest rate of 0.000001 or 0.0001% *per block*.\r\n      * @param asset The asset to get the interest rate of\r\n      * @param cash The total cash of the asset in the market\r\n      * @param borrows The total borrows of the asset in the market\r\n      * @return Success or failure and the borrow interest rate per block scaled by 10e18\r\n      */\r\n    function getBorrowRate(address asset, uint cash, uint borrows) public view returns (uint, uint) {\r\n        asset; // pragma ignore unused argument\r\n\r\n        (IRError err0, , Exp memory annualBorrowRate) = getUtilizationAndAnnualBorrowRate(cash, borrows);\r\n        if (err0 != IRError.NO_ERROR) {\r\n            return (uint(err0), 0);\r\n        }\r\n\r\n        // And then divide down by blocks per year.\r\n        (Error err1, Exp memory borrowRate) = divScalar(annualBorrowRate, blocksPerYear); // basis points * blocks per year\r\n        // divScalar only fails when divisor is zero. This is clearly not the case.\r\n        assert(err1 == Error.NO_ERROR);\r\n\r\n        // Note: mantissa is the rate scaled 1e18, which matches the expected result\r\n        return (uint(IRError.NO_ERROR), borrowRate.mantissa);\r\n    }\r\n}\r\n",
  "sourcePath": "/Users/raghu/Alkemi/alkemi-earn-protocol/contracts/AlkemiRateModel.sol",
  "compiler": {
    "name": "solc",
    "version": "0.4.24+commit.e67f0147.Emscripten.clang"
  },
  "schemaVersion": "3.2.3",
  "updatedAt": "2021-04-13T21:12:22.411Z",
  "devdoc": {
    "methods": {
      "getBorrowRate(address,uint256,uint256)": {
        "details": "The return value should be scaled by 1e18, thus a return value of\r     `(true, 1000000000000)` implies an interest rate of 0.000001 or 0.0001% *per block*.\r",
        "params": {
          "asset": "The asset to get the interest rate of\r",
          "borrows": "The total borrows of the asset in the market\r",
          "cash": "The total cash of the asset in the market\r"
        },
        "return": "Success or failure and the borrow interest rate per block scaled by 10e18\r"
      },
      "getSupplyRate(address,uint256,uint256)": {
        "details": "The return value should be scaled by 1e18, thus a return value of\r     `(true, 1000000000000)` implies an interest rate of 0.000001 or 0.0001% *per block*.\r",
        "params": {
          "_asset": "The asset to get the interest rate of\r",
          "borrows": "The total borrows of the asset in the market\r",
          "cash": "The total cash of the asset in the market\r"
        },
        "return": "Success or failure and the supply interest rate per block scaled by 10e18\r"
      }
    }
  },
  "userdoc": {
    "methods": {
      "getBorrowRate(address,uint256,uint256)": {
        "notice": "Gets the current borrow interest rate based on the given asset, total cash and total borrows\r"
      },
      "getSupplyRate(address,uint256,uint256)": {
        "notice": "Gets the current supply interest rate based on the given asset, total cash and total borrows\r"
      }
    }
  }
}