{
  "contractName": "AlkemiRateModel",
  "abi": [
    {
      "constant": true,
      "inputs": [],
      "name": "allowLiquidation",
      "outputs": [
        {
          "name": "",
          "type": "bool"
        }
      ],
      "payable": false,
      "stateMutability": "view",
      "type": "function"
    },
    {
      "constant": false,
      "inputs": [
        {
          "name": "allowLiquidation_",
          "type": "bool"
        }
      ],
      "name": "setAllowLiquidation",
      "outputs": [],
      "payable": false,
      "stateMutability": "nonpayable",
      "type": "function"
    },
    {
      "constant": true,
      "inputs": [],
      "name": "liquidator",
      "outputs": [
        {
          "name": "",
          "type": "address"
        }
      ],
      "payable": false,
      "stateMutability": "view",
      "type": "function"
    },
    {
      "constant": true,
      "inputs": [],
      "name": "contractName",
      "outputs": [
        {
          "name": "",
          "type": "string"
        }
      ],
      "payable": false,
      "stateMutability": "view",
      "type": "function"
    },
    {
      "constant": true,
      "inputs": [],
      "name": "owner",
      "outputs": [
        {
          "name": "",
          "type": "address"
        }
      ],
      "payable": false,
      "stateMutability": "view",
      "type": "function"
    },
    {
      "constant": true,
      "inputs": [],
      "name": "newOwner",
      "outputs": [
        {
          "name": "",
          "type": "address"
        }
      ],
      "payable": false,
      "stateMutability": "view",
      "type": "function"
    },
    {
      "constant": true,
      "inputs": [],
      "name": "moneyMarket",
      "outputs": [
        {
          "name": "",
          "type": "address"
        }
      ],
      "payable": false,
      "stateMutability": "view",
      "type": "function"
    },
    {
      "inputs": [
        {
          "name": "_contractName",
          "type": "string"
        },
        {
          "name": "MinRate",
          "type": "uint256"
        },
        {
          "name": "HealthyMinUR",
          "type": "uint256"
        },
        {
          "name": "HealthyMinRate",
          "type": "uint256"
        },
        {
          "name": "HealthyMaxUR",
          "type": "uint256"
        },
        {
          "name": "HealthyMaxRate",
          "type": "uint256"
        },
        {
          "name": "MaxRate",
          "type": "uint256"
        },
        {
          "name": "moneyMarket",
          "type": "address"
        },
        {
          "name": "liquidator",
          "type": "address"
        }
      ],
      "payable": false,
      "stateMutability": "nonpayable",
      "type": "constructor"
    },
    {
      "anonymous": false,
      "inputs": [
        {
          "indexed": true,
          "name": "owner",
          "type": "address"
        },
        {
          "indexed": true,
          "name": "newOwner",
          "type": "address"
        }
      ],
      "name": "OwnerUpdate",
      "type": "event"
    },
    {
      "anonymous": false,
      "inputs": [
        {
          "indexed": true,
          "name": "owner",
          "type": "address"
        },
        {
          "indexed": true,
          "name": "newLiquidator",
          "type": "address"
        },
        {
          "indexed": true,
          "name": "oldLiquidator",
          "type": "address"
        }
      ],
      "name": "LiquidatorUpdate",
      "type": "event"
    },
    {
      "anonymous": false,
      "inputs": [
        {
          "indexed": false,
          "name": "error",
          "type": "uint256"
        },
        {
          "indexed": false,
          "name": "info",
          "type": "uint256"
        },
        {
          "indexed": false,
          "name": "detail",
          "type": "uint256"
        }
      ],
      "name": "Failure",
      "type": "event"
    },
    {
      "constant": false,
      "inputs": [
        {
          "name": "newOwner_",
          "type": "address"
        }
      ],
      "name": "transferOwnership",
      "outputs": [],
      "payable": false,
      "stateMutability": "nonpayable",
      "type": "function"
    },
    {
      "constant": false,
      "inputs": [],
      "name": "acceptOwnership",
      "outputs": [],
      "payable": false,
      "stateMutability": "nonpayable",
      "type": "function"
    },
    {
      "constant": false,
      "inputs": [
        {
          "name": "_liquidator",
          "type": "address"
        }
      ],
      "name": "setLiquidator",
      "outputs": [],
      "payable": false,
      "stateMutability": "nonpayable",
      "type": "function"
    },
    {
      "constant": true,
      "inputs": [
        {
          "name": "_asset",
          "type": "address"
        },
        {
          "name": "cash",
          "type": "uint256"
        },
        {
          "name": "borrows",
          "type": "uint256"
        }
      ],
      "name": "getSupplyRate",
      "outputs": [
        {
          "name": "",
          "type": "uint256"
        },
        {
          "name": "",
          "type": "uint256"
        }
      ],
      "payable": false,
      "stateMutability": "view",
      "type": "function"
    },
    {
      "constant": true,
      "inputs": [
        {
          "name": "asset",
          "type": "address"
        },
        {
          "name": "cash",
          "type": "uint256"
        },
        {
          "name": "borrows",
          "type": "uint256"
        }
      ],
      "name": "getBorrowRate",
      "outputs": [
        {
          "name": "",
          "type": "uint256"
        },
        {
          "name": "",
          "type": "uint256"
        }
      ],
      "payable": false,
      "stateMutability": "view",
      "type": "function"
    }
  ],
  "bytecode": "0x60806040523480156200001157600080fd5b506040516200193e3803806200193e83398101604090815281516020830151918301516060840151608085015160a086015160c087015160e08801516101008901519690980197949593949293919290916200006c620007b0565b62000076620007b0565b62000080620007b0565b60008585816000806101000a815481600160a060020a030219169083600160a060020a0316021790555080600160006101000a815481600160a060020a030219169083600160a060020a031602179055506000600160146101000a81548160ff021916908315150217905550505033600260006101000a815481600160a060020a030219169083600160a060020a031602179055508c600490805190602001906200012d929190620007c2565b50620001456064600164010000000062000449810204565b925090506200015f8c606464010000000062000449810204565b51600d5590506200017b8b606464010000000062000449810204565b51600e559050620001978a606464010000000062000449810204565b51600f559050620001b387606464010000000062000449810204565b516010559050620001cf89606464010000000062000449810204565b516011559050620001eb88606464010000000062000449810204565b51601255600d546005819055600e54600655601154600a556040805160208181018352600f548252825190810190925291815291925062000235916401000000006200051a810204565b60408051602081019091526006548152909550909150620002619085906401000000006200055f810204565b51600755604080516020818101835260125482528251908101909252600f5482529192506200029a91906401000000006200051a810204565b604080516020818101835260115482528251908101909252600e548252919650919250620002d1916401000000006200051a810204565b93509050620002ea84846401000000006200055f810204565b51600881905560408051602081810183529281528151928301909152600654825291925062000323919064010000000062000590810204565b6040805160208101909152600f5481529095509091506200034e90856401000000006200051a810204565b5160095560408051602081810183526010548252825190810190925260125482529192506200038791906401000000006200051a810204565b60408051602081019091526011548152909550909150620003b39083906401000000006200051a810204565b93509050620003cc84846401000000006200055f810204565b51600b81905560408051602081810183529281528151928301909152600a54825291925062000405919064010000000062000590810204565b60408051602081019091526012548152909450909150620004309084640100000000620006ae810204565b51600c5550620008679c50505050505050505050505050565b600062000455620007b0565b60008080806200047788670de0b6b3a7640000640100000000620006d8810204565b909450925060008460218111156200048b57fe5b14620004ae5760408051602081019091526000815293955092935084926200050f565b620004c3838864010000000062000727810204565b90925090506000826021811115620004d757fe5b14620004fa5760408051602081019091526000815291955090935084906200050f565b60408051602081019091528181526000965094505b505050509250929050565b600062000526620007b0565b83518351600091829162000544919064010000000062000759810204565b60408051602081019091529081529097909650945050505050565b60006200056b620007b0565b8351835162000584919064010000000062000449810204565b915091505b9250929050565b60006200059c620007b0565b600080600080600080620005c88a600001518a60000151620006d8640100000000026401000000009004565b90965094506000866021811115620005dc57fe5b14620005ff576040805160208101909152600081529597509495508694620006a1565b6200061c6706f05b59d3b20000866401000000006200077f810204565b909450925060008460218111156200063057fe5b1462000653576040805160208101909152600081529397509295508692620006a1565b6200067083670de0b6b3a764000064010000000062000727810204565b909250905060008260218111156200068457fe5b146200068c57fe5b60408051602081019091528181526000985096505b5050505050509250929050565b6000620006ba620007b0565b835183516000918291620005449190640100000000620007a8810204565b60008080841515620006f157600092508291506200071f565b508383028385828115156200070257fe5b0414620007175760039250600091506200071f565b600081925092505b509250929050565b6000808215156200073f575060059050600062000589565b600083858115156200074d57fe5b04915091509250929050565b6000808383116200077257506000905081830362000589565b5060049050600062000589565b6000808383018481106200079a57600081925092506200071f565b60039250600091506200071f565b600092910390565b60408051602081019091526000815290565b828054600181600116156101000203166002900490600052602060002090601f016020900481019282601f106200080557805160ff191683800117855562000835565b8280016001018555821562000835579182015b828111156200083557825182559160200191906001019062000818565b506200084392915062000847565b5090565b6200086491905b808211156200084357600081556001016200084e565b90565b6110c780620008776000396000f3006080604052600436106100b85763ffffffff7c01000000000000000000000000000000000000000000000000000000006000350416620fba1681146100bd57806301c76f81146100e657806325468f68146101095780634046ebae14610123578063517cf73e1461015457806375d0c0dc1461019457806379ba50971461021e5780638da5cb5b14610233578063d4ee1d9014610248578063d6d75f511461025d578063ed2b5a3c14610272578063f2fde38b14610299575b600080fd5b3480156100c957600080fd5b506100d26102ba565b604080519115158252519081900360200190f35b3480156100f257600080fd5b50610107600160a060020a03600435166102db565b005b34801561011557600080fd5b5061010760043515156104b3565b34801561012f57600080fd5b5061013861057b565b60408051600160a060020a039092168252519081900360200190f35b34801561016057600080fd5b5061017b600160a060020a036004351660243560443561058a565b6040805192835260208301919091528051918290030190f35b3480156101a057600080fd5b506101a96106d8565b6040805160208082528351818301528351919283929083019185019080838360005b838110156101e35781810151838201526020016101cb565b50505050905090810190601f1680156102105780820380516001836020036101000a031916815260200191505b509250505060405180910390f35b34801561022a57600080fd5b50610107610766565b34801561023f57600080fd5b50610138610861565b34801561025457600080fd5b50610138610870565b34801561026957600080fd5b5061013861087f565b34801561027e57600080fd5b5061017b600160a060020a036004351660243560443561088e565b3480156102a557600080fd5b50610107600160a060020a036004351661091d565b60015474010000000000000000000000000000000000000000900460ff1681565b600254600090600160a060020a03163314610340576040805160e560020a62461bcd02815260206004820152600960248201527f6e6f6e2d6f776e65720000000000000000000000000000000000000000000000604482015290519081900360640190fd5b600160a060020a03821615156103c6576040805160e560020a62461bcd02815260206004820152603260248201527f7365744c697175696461746f723a206c697175696461746f722063616e6e6f7460448201527f2062652061207a65726f20616464726573730000000000000000000000000000606482015290519081900360840190fd5b600154600160a060020a0383811691161415610452576040805160e560020a62461bcd02815260206004820152603b60248201527f7365744c697175696461746f723a20546865206f6c6420616e64206e6577206160448201527f64647265737365732063616e6e6f74206265207468652073616d650000000000606482015290519081900360840190fd5b5060018054600160a060020a0383811673ffffffffffffffffffffffffffffffffffffffff1983168117909355604051911691829133907f46b013dada1d335383b9d3190f25cb26c7bb71745f2d274203a6088c3c5b2ff590600090a45050565b600154600160a060020a0316331461053b576040805160e560020a62461bcd02815260206004820152602660248201527f4c49515549444154494f4e5f434845434b45525f494e56414c49445f4c49515560448201527f494441544f520000000000000000000000000000000000000000000000000000606482015290519081900360840190fd5b60018054911515740100000000000000000000000000000000000000000274ff000000000000000000000000000000000000000019909216919091179055565b600154600160a060020a031681565b6000806000610597611089565b61059f611089565b6105a7611089565b60006105b1611089565b60006105bb611089565b6105c58c8c610a3a565b9199509750955060008860038111156105da57fe5b146105f6578760038111156105eb57fe5b9950600098506106c8565b61060260646001610c4d565b95509350600084602181111561061457fe5b1461061b57fe5b60408051602081019091526005548152610636908690610d01565b9094509250600084602181111561064957fe5b1461065057fe5b61065a8787610d43565b95509350600084602181111561066c57fe5b1461067357fe5b61067d8584610d43565b95509350600084602181111561068f57fe5b1461069657fe5b6106a5856404e520c800610e30565b909250905060008260218111156106b857fe5b146106bf57fe5b805160009a5098505b5050505050505050935093915050565b6004805460408051602060026001851615610100026000190190941693909304601f8101849004840282018401909252818152929183018282801561075e5780601f106107335761010080835404028352916020019161075e565b820191906000526020600020905b81548152906001019060200180831161074157829003601f168201915b505050505081565b600354600160a060020a031633146107ee576040805160e560020a62461bcd02815260206004820152602860248201527f4163636570744f776e6572736869703a206f6e6c79206e6577206f776e65722060448201527f646f20746869732e000000000000000000000000000000000000000000000000606482015290519081900360840190fd5b600354600254604051600160a060020a0392831692909116907f343765429aea5a34b3ff6a3785a98a5abb2597aca87bfbb58632c173d585373a90600090a3600380546002805473ffffffffffffffffffffffffffffffffffffffff19908116600160a060020a03841617909155169055565b600254600160a060020a031681565b600354600160a060020a031681565b600054600160a060020a031681565b600080600061089b611089565b60006108a5611089565b6108af8888610a3a565b919550909350600090508460038111156108c557fe5b146108e1578360038111156108d657fe5b955060009450610911565b6108ee8362201480610e30565b9092509050600082602181111561090157fe5b1461090857fe5b80516000965094505b50505050935093915050565b600254600160a060020a0316331461097f576040805160e560020a62461bcd02815260206004820152600960248201527f6e6f6e2d6f776e65720000000000000000000000000000000000000000000000604482015290519081900360640190fd5b600254600160a060020a0382811691161415610a0b576040805160e560020a62461bcd02815260206004820152602260248201527f5472616e736665724f776e6572736869703a207468652073616d65206f776e6560448201527f722e000000000000000000000000000000000000000000000000000000000000606482015290519081900360840190fd5b6003805473ffffffffffffffffffffffffffffffffffffffff1916600160a060020a0392909216919091179055565b6000610a44611089565b610a4c611089565b6000610a56611089565b600080610a61611089565b610a69611089565b610a738b8b610e9a565b90965094506000866003811115610a8657fe5b14610ab6576040805160208181018352600080835283519182019093529182529699509597509495508794610c40565b60065485511015610b355760408051602081019091526007548152610adc908690610d43565b90945091506000846021811115610aef57fe5b14610af657fe5b60408051602081019091526005548152610b11908390610f65565b805191955090935090506000846021811115610b2957fe5b14610b3057fe5b610c1a565b600a5485511115610b90576040805160208101909152600b548152610b5b908690610d43565b90945091506000846021811115610b6e57fe5b14610b7557fe5b6040805160208101909152600c548152610b11908390610f84565b600654855110801590610ba65750600a54855111155b15610c1a5760408051602081019091526008548152610bc6908690610d43565b90945091506000846021811115610bd957fe5b14610be057fe5b60408051602081019091526009548152610bfb908390610f65565b805191955090935090506000846021811115610c1357fe5b14610c1a57fe5b600085602060405190810160405280606487811515610c3557fe5b049052919a50985096505b5050505050509250925092565b6000610c57611089565b600080600080610c6f88670de0b6b3a7640000610fa3565b90945092506000846021811115610c8257fe5b14610ca3576040805160208101909152600081529395509293508492610cf6565b610cad8388610fed565b90925090506000826021811115610cc057fe5b14610ce1576040805160208101909152600081529195509093508490610cf6565b60408051602081019091528181526000965094505b505050509250929050565b6000610d0b611089565b600080610d208660000151866000015161101d565b604080516020810190915281815291955090935084925090505b50509250929050565b6000610d4d611089565b600080600080600080610d688a600001518a60000151610fa3565b90965094506000866021811115610d7b57fe5b14610d9c576040805160208101909152600081529597509495508694610e23565b610dae6706f05b59d3b2000086611040565b90945092506000846021811115610dc157fe5b14610de2576040805160208101909152600081529397509295508692610e23565b610df483670de0b6b3a7640000610fed565b90925090506000826021811115610e0757fe5b14610e0e57fe5b60408051602081019091528181526000985096505b5050505050509250929050565b6000610e3a611089565b600080610e4b866000015186610fed565b90925090506000826021811115610e5e57fe5b14610e7f576040805160208101909152600081529193509091508290610d3a565b60408051602081019091529081526000969095509350505050565b6000610ea4611089565b6000806000610eb1611089565b861515610ed1576040805160208101909152600080825296509450610cf6565b610edb8888611040565b90945092506000846021811115610eee57fe5b14610f0d57604080516020810190915260008152600196509450610cf6565b610f178784610c4d565b90925090506000826021811115610f2a57fe5b14610f4957604080516020810190915260008152600296509450610cf6565b610f54816064611066565b60009a909950975050505050505050565b6000610f6f611089565b600080610d2086600001518660000151611040565b6000610f8e611089565b600080610d2086600001518660000151611081565b60008080841515610fba5760009250829150610fe5565b50838302838582811515610fca57fe5b0414610fdd576003925060009150610fe5565b600081925092505b509250929050565b6000808215156110035750600590506000611016565b6000838581151561101057fe5b04915091505b9250929050565b600080838311611034575060009050818303611016565b50600490506000611016565b6000808383018481106110595760008192509250610fe5565b6003925060009150610fe5565b6000611070611089565b600080610e4b866000015186610fa3565b600092910190565b604080516020810190915260008152905600a165627a7a723058207f18a9a0e8c4347b60103c19a5f662cf9664b0376414fdc497fa08c37fd6dd940029",
  "source": "pragma solidity ^0.4.24;\r\n\r\nimport \"./Exponential.sol\";\r\nimport \"./LiquidationChecker.sol\";\r\n\r\n\r\ncontract AlkemiRateModel is Exponential, LiquidationChecker {\r\n\r\n    uint constant blocksPerYear = 2102400;\r\n\r\n    address public owner;\r\n    address public newOwner;\r\n    \r\n    string public contractName;\r\n\r\n    modifier onlyOwner() {\r\n        require(msg.sender == owner, \"non-owner\");\r\n        _;\r\n    }\r\n\r\n    enum IRError {\r\n        NO_ERROR,\r\n        FAILED_TO_ADD_CASH_PLUS_BORROWS,\r\n        FAILED_TO_GET_EXP,\r\n        FAILED_TO_MUL_PRODUCT_TIMES_BORROW_RATE\r\n    }\r\n\r\n    event OwnerUpdate(address indexed owner, address indexed newOwner);\r\n    event LiquidatorUpdate(address indexed owner, address indexed newLiquidator, address indexed oldLiquidator);\r\n    \r\n    Exp internal SpreadLow;\r\n    Exp internal BreakPointLow;\r\n    Exp internal ReserveLow;\r\n    Exp internal ReserveMid;\r\n    Exp internal SpreadMid;\r\n    Exp internal BreakPointHigh;\r\n    Exp internal ReserveHigh;\r\n    ExpNegative internal SpreadHigh;\r\n    \r\n    Exp internal MinRateActual;\r\n    Exp internal HealthyMinURActual;\r\n    Exp internal HealthyMinRateActual;\r\n    Exp internal MaxRateActual;\r\n    Exp internal HealthyMaxURActual;\r\n    Exp internal HealthyMaxRateActual;\r\n\r\n    constructor(string memory _contractName,uint MinRate,uint HealthyMinUR,uint HealthyMinRate,uint HealthyMaxUR,uint HealthyMaxRate,uint MaxRate, address moneyMarket, address liquidator) LiquidationChecker(moneyMarket, liquidator) public {\r\n        // Remember to enter percentage times 100. ex., if it is 2.50%, enter 250\r\n        owner = msg.sender;\r\n        contractName = _contractName;\r\n        Exp memory  temp1;\r\n        Exp memory temp2;\r\n        Exp memory HunderedMantissa;\r\n        Error err;\r\n        \r\n        (err,HunderedMantissa) = getExp(100,1);\r\n        \r\n        (err,MinRateActual) = getExp(MinRate,100);\r\n        (err,HealthyMinURActual) = getExp(HealthyMinUR,100);\r\n        (err,HealthyMinRateActual) = getExp(HealthyMinRate,100);\r\n        (err,MaxRateActual) = getExp(MaxRate,100);\r\n        (err,HealthyMaxURActual) = getExp(HealthyMaxUR,100);\r\n        (err,HealthyMaxRateActual) = getExp(HealthyMaxRate,100);\r\n        \r\n        SpreadLow = MinRateActual;\r\n        BreakPointLow = HealthyMinURActual;\r\n        BreakPointHigh = HealthyMaxURActual;\r\n        \r\n        // ReserveLow = (HealthyMinRate-SpreadLow)/BreakPointLow;\r\n        (err,temp1) = subExp(HealthyMinRateActual,SpreadLow);\r\n        (err,ReserveLow) = divExp(temp1,BreakPointLow);\r\n        \r\n        // ReserveMid = (HealthyMaxRate-HealthyMinRate)/(HealthyMaxUR-HealthyMinUR);\r\n        (err,temp1) = subExp(HealthyMaxRateActual,HealthyMinRateActual);\r\n        (err,temp2) = subExp(HealthyMaxURActual,HealthyMinURActual);\r\n        (err,ReserveMid) = divExp(temp1,temp2);\r\n        \r\n        // SpreadMid = HealthyMinRate - (ReserveMid * BreakPointLow);\r\n        (err,temp1) = mulExp(ReserveMid,BreakPointLow);\r\n        (err,SpreadMid) = subExp(HealthyMinRateActual,temp1);\r\n        \r\n        // ReserveHigh = (MaxRate - HealthyMaxRate) / (100 - HealthyMaxUR);\r\n        (err,temp1) = subExp(MaxRateActual,HealthyMaxRateActual);\r\n        (err,temp2) = subExp(HunderedMantissa,HealthyMaxURActual);\r\n        (err,ReserveHigh) = divExp(temp1,temp2);\r\n        \r\n        // SpreadHigh = HealthyMaxRate - (ReserveHigh * BreakPointHigh);\r\n        (err,temp2) = mulExp(ReserveHigh,BreakPointHigh);\r\n        (err,SpreadHigh) = subExpNegative(HealthyMaxRateActual,temp2);\r\n    }\r\n\r\n    function transferOwnership(address newOwner_) external onlyOwner {\r\n        require(newOwner_ != owner, \"TransferOwnership: the same owner.\");\r\n        newOwner = newOwner_;\r\n    }\r\n\r\n    function acceptOwnership() external {\r\n        require(msg.sender == newOwner, \"AcceptOwnership: only new owner do this.\");\r\n        emit OwnerUpdate(owner, newOwner);\r\n        owner = newOwner;\r\n        newOwner = address(0x0);\r\n    }\r\n\r\n    function setLiquidator(address _liquidator) external onlyOwner {\r\n        require(_liquidator != address(0), \"setLiquidator: liquidator cannot be a zero address\");\r\n        require(liquidator != _liquidator, \"setLiquidator: The old and new addresses cannot be the same\");\r\n        address oldLiquidator = liquidator;\r\n        liquidator = _liquidator;\r\n        emit LiquidatorUpdate(msg.sender, _liquidator, oldLiquidator);\r\n    }\r\n\r\n    /*\r\n     * @dev Calculates the utilization rate (borrows / (cash + borrows)) as an Exp\r\n     */\r\n    function getUtilizationRate(uint cash, uint borrows) pure internal returns (IRError, Exp memory) {\r\n        if (borrows == 0) {\r\n            // Utilization rate is zero when there's no borrows\r\n            return (IRError.NO_ERROR, Exp({mantissa: 0}));\r\n        }\r\n\r\n        (Error err0, uint cashPlusBorrows) = add(cash, borrows);\r\n        if (err0 != Error.NO_ERROR) {\r\n            return (IRError.FAILED_TO_ADD_CASH_PLUS_BORROWS, Exp({mantissa: 0}));\r\n        }\r\n\r\n        (Error err1, Exp memory utilizationRate) = getExp(borrows, cashPlusBorrows);\r\n        if (err1 != Error.NO_ERROR) {\r\n            return (IRError.FAILED_TO_GET_EXP, Exp({mantissa: 0}));\r\n        }\r\n        (err1,utilizationRate) = mulScalar(utilizationRate,100);\r\n\r\n        return (IRError.NO_ERROR, utilizationRate);\r\n    }\r\n    \r\n    /*\r\n     * @dev Calculates the utilization and borrow rates for use by get{Supply,Borrow}Rate functions\r\n     */\r\n    function getUtilizationAndAnnualBorrowRate(uint cash, uint borrows) view internal returns (IRError, Exp memory, Exp memory) {\r\n        (IRError err0, Exp memory utilizationRate) = getUtilizationRate(cash, borrows);\r\n        if (err0 != IRError.NO_ERROR) {\r\n            return (err0, Exp({mantissa: 0}), Exp({mantissa: 0}));\r\n        }\r\n\r\n        /**\r\n         *  Borrow Rate\r\n         *  0 < UR < 20% :      SpreadLow + UR * ReserveLow\r\n         *  20% <= UR <= 80% :  SpreadMid + UR * ReserveMid\r\n         *  80% < UR :          SpreadHigh + UR * ReserveHigh\r\n         */\r\n\r\n        Error err;\r\n        \r\n        uint annualBorrowRateScaled;\r\n        Exp memory tempScaled;\r\n        Exp memory tempScaled2;\r\n        \r\n        if(utilizationRate.mantissa < BreakPointLow.mantissa) {\r\n            (err, tempScaled) = mulExp(utilizationRate, ReserveLow);\r\n            assert(err == Error.NO_ERROR);\r\n            (err, tempScaled2) = addExp(tempScaled, SpreadLow);\r\n            annualBorrowRateScaled = tempScaled2.mantissa;\r\n            assert(err == Error.NO_ERROR);\r\n        }\r\n        else if (utilizationRate.mantissa > BreakPointHigh.mantissa) {\r\n            (err, tempScaled) = mulExp(utilizationRate, ReserveHigh);\r\n            assert(err == Error.NO_ERROR);\r\n            (err, tempScaled2) = addExpNegative(tempScaled, SpreadHigh);\r\n            annualBorrowRateScaled = tempScaled2.mantissa;\r\n            assert(err == Error.NO_ERROR);\r\n        }\r\n        else if (utilizationRate.mantissa >= BreakPointLow.mantissa && utilizationRate.mantissa <= BreakPointHigh.mantissa) {\r\n            (err, tempScaled) = mulExp(utilizationRate, ReserveMid);\r\n            assert(err == Error.NO_ERROR);\r\n            (err, tempScaled2) = addExp(tempScaled, SpreadMid);\r\n            annualBorrowRateScaled = tempScaled2.mantissa;\r\n            assert(err == Error.NO_ERROR);\r\n        }\r\n\r\n        return (IRError.NO_ERROR, utilizationRate, Exp({mantissa: annualBorrowRateScaled / 100}));\r\n    }\r\n\r\n    /**\r\n      * @notice Gets the current supply interest rate based on the given asset, total cash and total borrows\r\n      * @dev The return value should be scaled by 1e18, thus a return value of\r\n      *      `(true, 1000000000000)` implies an interest rate of 0.000001 or 0.0001% *per block*.\r\n      * @param _asset The asset to get the interest rate of\r\n      * @param cash The total cash of the asset in the market\r\n      * @param borrows The total borrows of the asset in the market\r\n      * @return Success or failure and the supply interest rate per block scaled by 10e18\r\n      */\r\n    function getSupplyRate(address _asset, uint cash, uint borrows) public view returns (uint, uint) {\r\n        _asset; // pragma ignore unused argument\r\n        (IRError err0, Exp memory utilizationRate0, Exp memory annualBorrowRate) = getUtilizationAndAnnualBorrowRate(cash, borrows);\r\n        if (err0 != IRError.NO_ERROR) {\r\n            return (uint(err0), 0);\r\n        }\r\n         \r\n         /**\r\n         *  Supply Rate\r\n         *  = BorrowRate * utilizationRate * (1 - SpreadLow)\r\n         */\r\n         Exp memory temp1;\r\n         Error err1;\r\n         Exp memory oneMinusSpreadBasisPoints;\r\n         (err1,temp1) = getExp(100,1);\r\n         assert(err1 == Error.NO_ERROR);\r\n         (err1,oneMinusSpreadBasisPoints) = subExp(temp1,SpreadLow);\r\n\r\n        // mulScalar only overflows when product is greater than or equal to 2^256.\r\n        // utilization rate's mantissa is a number between [0e18,1e18]. That means that\r\n        // utilizationRate1 is a value between [0e18,8.5e21]. This is strictly less than 2^256.\r\n        assert(err1 == Error.NO_ERROR);\r\n\r\n        // Next multiply this product times the borrow rate\r\n        (err1, temp1) = mulExp(utilizationRate0, annualBorrowRate);\r\n        // If the product of the mantissas for mulExp are both less than 2^256,\r\n        // then this operation will never fail. TODO: Verify.\r\n        // We know that borrow rate is in the interval [0, 2.25e17] from above.\r\n        // We know that utilizationRate1 is in the interval [0, 9e21] from directly above.\r\n        // As such, the multiplication is in the interval of [0, 2.025e39]. This is strictly\r\n        // less than 2^256 (which is about 10e77).\r\n        assert(err1 == Error.NO_ERROR);\r\n        \r\n        (err1, temp1) = mulExp(temp1, oneMinusSpreadBasisPoints);\r\n        assert(err1 == Error.NO_ERROR);\r\n\r\n        // And then divide down by the spread's denominator (basis points divisor)\r\n        // as well as by blocks per year.\r\n        (Error err4, Exp memory supplyRate) = divScalar(temp1, 10000 * blocksPerYear); // basis points * blocks per year\r\n        // divScalar only fails when divisor is zero. This is clearly not the case.\r\n        assert(err4 == Error.NO_ERROR);\r\n\r\n        return (uint(IRError.NO_ERROR), supplyRate.mantissa);\r\n    }\r\n\r\n    /**\r\n      * @notice Gets the current borrow interest rate based on the given asset, total cash and total borrows\r\n      * @dev The return value should be scaled by 1e18, thus a return value of\r\n      *      `(true, 1000000000000)` implies an interest rate of 0.000001 or 0.0001% *per block*.\r\n      * @param asset The asset to get the interest rate of\r\n      * @param cash The total cash of the asset in the market\r\n      * @param borrows The total borrows of the asset in the market\r\n      * @return Success or failure and the borrow interest rate per block scaled by 10e18\r\n      */\r\n    function getBorrowRate(address asset, uint cash, uint borrows) public view returns (uint, uint) {\r\n        asset; // pragma ignore unused argument\r\n\r\n        (IRError err0, , Exp memory annualBorrowRate) = getUtilizationAndAnnualBorrowRate(cash, borrows);\r\n        if (err0 != IRError.NO_ERROR) {\r\n            return (uint(err0), 0);\r\n        }\r\n\r\n        // And then divide down by blocks per year.\r\n        (Error err1, Exp memory borrowRate) = divScalar(annualBorrowRate, blocksPerYear); // basis points * blocks per year\r\n        // divScalar only fails when divisor is zero. This is clearly not the case.\r\n        assert(err1 == Error.NO_ERROR);\r\n\r\n        // Note: mantissa is the rate scaled 1e18, which matches the expected result\r\n        return (uint(IRError.NO_ERROR), borrowRate.mantissa);\r\n    }\r\n}\r\n",
  "sourcePath": "/Users/raghu/Alkemi/alkemi-earn-protocol/contracts/AlkemiRateModel.sol",
  "compiler": {
    "name": "solc",
    "version": "0.4.24+commit.e67f0147.Emscripten.clang"
  },
  "schemaVersion": "3.2.3",
  "updatedAt": "2020-10-29T17:04:25.825Z",
  "devdoc": {
    "methods": {
      "getBorrowRate(address,uint256,uint256)": {
        "details": "The return value should be scaled by 1e18, thus a return value of\r     `(true, 1000000000000)` implies an interest rate of 0.000001 or 0.0001% *per block*.\r",
        "params": {
          "asset": "The asset to get the interest rate of\r",
          "borrows": "The total borrows of the asset in the market\r",
          "cash": "The total cash of the asset in the market\r"
        },
        "return": "Success or failure and the borrow interest rate per block scaled by 10e18\r"
      },
      "getSupplyRate(address,uint256,uint256)": {
        "details": "The return value should be scaled by 1e18, thus a return value of\r     `(true, 1000000000000)` implies an interest rate of 0.000001 or 0.0001% *per block*.\r",
        "params": {
          "_asset": "The asset to get the interest rate of\r",
          "borrows": "The total borrows of the asset in the market\r",
          "cash": "The total cash of the asset in the market\r"
        },
        "return": "Success or failure and the supply interest rate per block scaled by 10e18\r"
      }
    }
  },
  "userdoc": {
    "methods": {
      "getBorrowRate(address,uint256,uint256)": {
        "notice": "Gets the current borrow interest rate based on the given asset, total cash and total borrows\r"
      },
      "getSupplyRate(address,uint256,uint256)": {
        "notice": "Gets the current supply interest rate based on the given asset, total cash and total borrows\r"
      }
    }
  }
}