{
  "contractName": "ChainLink",
  "abi": [
    {
      "constant": true,
      "inputs": [],
      "name": "paused",
      "outputs": [
        {
          "name": "",
          "type": "bool"
        }
      ],
      "payable": false,
      "stateMutability": "view",
      "type": "function"
    },
    {
      "constant": true,
      "inputs": [],
      "name": "admin",
      "outputs": [
        {
          "name": "",
          "type": "address"
        }
      ],
      "payable": false,
      "stateMutability": "view",
      "type": "function"
    },
    {
      "inputs": [],
      "payable": false,
      "stateMutability": "nonpayable",
      "type": "constructor"
    },
    {
      "constant": false,
      "inputs": [
        {
          "name": "assetAddress",
          "type": "address"
        },
        {
          "name": "priceFeedContract",
          "type": "address"
        }
      ],
      "name": "addAsset",
      "outputs": [],
      "payable": false,
      "stateMutability": "nonpayable",
      "type": "function"
    },
    {
      "constant": false,
      "inputs": [
        {
          "name": "assetAddress",
          "type": "address"
        }
      ],
      "name": "removeAsset",
      "outputs": [],
      "payable": false,
      "stateMutability": "nonpayable",
      "type": "function"
    },
    {
      "constant": false,
      "inputs": [
        {
          "name": "newAdmin",
          "type": "address"
        }
      ],
      "name": "changeAdmin",
      "outputs": [],
      "payable": false,
      "stateMutability": "nonpayable",
      "type": "function"
    },
    {
      "constant": false,
      "inputs": [],
      "name": "togglePause",
      "outputs": [],
      "payable": false,
      "stateMutability": "nonpayable",
      "type": "function"
    },
    {
      "constant": true,
      "inputs": [
        {
          "name": "asset",
          "type": "address"
        }
      ],
      "name": "getAssetPrice",
      "outputs": [
        {
          "name": "",
          "type": "uint256"
        }
      ],
      "payable": false,
      "stateMutability": "view",
      "type": "function"
    },
    {
      "constant": false,
      "inputs": [],
      "name": "fallback",
      "outputs": [],
      "payable": true,
      "stateMutability": "payable",
      "type": "function"
    }
  ],
  "bytecode": "0x60806040526001805460a060020a60ff021916905534801561002057600080fd5b5060018054600160a060020a03191633179055610700806100426000396000f30060806040526004361061008d5763ffffffff7c01000000000000000000000000000000000000000000000000000000006000350416634a5e42b18114610092578063552079dc146100b55780635c975abb146100bd5780638f283970146100e6578063b3596f0714610107578063c4ae31681461013a578063da4899971461014f578063f851a44014610176575b600080fd5b34801561009e57600080fd5b506100b3600160a060020a03600435166101a7565b005b6100b361023f565b3480156100c957600080fd5b506100d26102d8565b604080519115158252519081900360200190f35b3480156100f257600080fd5b506100b3600160a060020a03600435166102f9565b34801561011357600080fd5b50610128600160a060020a036004351661038c565b60408051918252519081900360200190f35b34801561014657600080fd5b506100b3610505565b34801561015b57600080fd5b506100b3600160a060020a03600435811690602435166105e6565b34801561018257600080fd5b5061018b610685565b60408051600160a060020a039092168252519081900360200190f35b600154600160a060020a0316331461020b576040805160e560020a62461bcd02815260206004820152602960248201526000805160206106b58339815191526044820152600080516020610695833981519152606482015290519081900360840190fd5b600160a060020a03166000908152602081905260409020805473ffffffffffffffffffffffffffffffffffffffff19169055565b60405133903480156108fc02916000818181858888f1935050505015156102d6576040805160e560020a62461bcd02815260206004820152602d60248201527f46616c6c6261636b2066756e6374696f6e20696e69746961746564206275742060448201527f726566756e64206661696c656400000000000000000000000000000000000000606482015290519081900360840190fd5b565b60015474010000000000000000000000000000000000000000900460ff1681565b600154600160a060020a0316331461035d576040805160e560020a62461bcd02815260206004820152602960248201526000805160206106b58339815191526044820152600080516020610695833981519152606482015290519081900360840190fd5b6001805473ffffffffffffffffffffffffffffffffffffffff1916600160a060020a0392909216919091179055565b600080600080600080600160149054906101000a900460ff161580156103cb5750600160a060020a038781166000908152602081905260409020541615155b156104f657600160a060020a038088166000908152602081905260408082205481517ffeaf968c000000000000000000000000000000000000000000000000000000008152915193169263feaf968c9260048084019360a093929083900390910190829087803b15801561043e57600080fd5b505af1158015610452573d6000803e3d6000fd5b505050506040513d60a081101561046857600080fd5b50805160208201516040830151606084015160809094015192985090965094509092509050600082116104e5576040805160e560020a62461bcd02815260206004820152601260248201527f526f756e64206e6f7420636f6d706c6574650000000000000000000000000000604482015290519081900360640190fd5b60008413156104f6578395506104fb565b600095505b5050505050919050565b600154600160a060020a03163314610569576040805160e560020a62461bcd02815260206004820152602960248201526000805160206106b58339815191526044820152600080516020610695833981519152606482015290519081900360840190fd5b60015474010000000000000000000000000000000000000000900460ff16156105af576001805474ff0000000000000000000000000000000000000000191690556102d6565b6001805474ff0000000000000000000000000000000000000000191674010000000000000000000000000000000000000000179055565b600154600160a060020a0316331461064a576040805160e560020a62461bcd02815260206004820152602960248201526000805160206106b58339815191526044820152600080516020610695833981519152606482015290519081900360840190fd5b600160a060020a039182166000908152602081905260409020805473ffffffffffffffffffffffffffffffffffffffff191691909216179055565b600154600160a060020a03168156006f7065726174696f6e00000000000000000000000000000000000000000000004f6e6c79207468652041646d696e2063616e20706572666f726d207468697320a165627a7a723058202e6efaa72b788256371f064b0641f39eedc75db6d01ba315762c0b68141391f40029",
  "source": "pragma solidity 0.4.24;\n\nimport \"../node_modules/@chainlink/contracts/src/v0.4/interfaces/AggregatorV3Interface.sol\";\n\ncontract ChainLink {\n    \n    mapping(address => AggregatorV3Interface) internal priceContractMapping;\n    address public admin;\n    bool public paused = false;\n\n    /**\n     * Sets the initial assets and admin\n     */\n    constructor() public {\n        admin = msg.sender;\n    }\n    \n    /**\n     * Modifier to restrict functions only by admins\n     */\n    modifier onlyAdmin() {\n        require(msg.sender == admin,\"Only the Admin can perform this operation\");\n        _;\n    }\n    \n    /**\n     * Allows admin to add a new asset for price tracking\n     */\n    function addAsset(address assetAddress, address priceFeedContract) public onlyAdmin {\n        priceContractMapping[assetAddress] = AggregatorV3Interface(priceFeedContract);\n    }\n    \n    /**\n     * Allows admin to remove an existing asset from price tracking\n     */\n    function removeAsset(address assetAddress) public onlyAdmin {\n        priceContractMapping[assetAddress] = AggregatorV3Interface(address(0));\n    }\n    \n    /**\n     * Allows admin to change the admin of the contract\n     */\n    function changeAdmin(address newAdmin) public onlyAdmin {\n        admin = newAdmin;\n    }\n\n    /**\n     * Allows admin to pause and unpause the contract\n     */\n    function togglePause() public onlyAdmin {\n        if (paused) {\n            paused = false;\n        }\n        else {\n            paused = true;\n        }\n    }\n\n    /**\n     * Returns the latest price\n     */\n    function getAssetPrice(address asset) public view returns (uint) {\n        if(!paused && priceContractMapping[asset] != address(0)) {\n            (\n                uint80 roundID, \n                int price,\n                uint startedAt,\n                uint timeStamp,\n                uint80 answeredInRound\n            ) = priceContractMapping[asset].latestRoundData();\n            // If the round is not complete yet, timestamp is 0\n            require(timeStamp > 0, \"Round not complete\");\n            if(price >0) {\n                return (uint(price));\n            }\n            else {\n                return 0;\n            }\n        }\n        else {\n            return 0;\n        }\n    }\n\n    function fallback() public payable {\n        require(msg.sender.send(msg.value),\"Fallback function initiated but refund failed\");\n    }\n}",
  "sourcePath": "/Users/raghu/Alkemi/alkemi-earn-protocol/contracts/ChainLink.sol",
  "compiler": {
    "name": "solc",
    "version": "0.4.24+commit.e67f0147.Emscripten.clang"
  },
  "schemaVersion": "3.2.3",
  "updatedAt": "2020-10-07T19:34:21.693Z",
  "networkType": "ethereum",
  "devdoc": {
    "methods": {}
  },
  "userdoc": {
    "methods": {
      "addAsset(address,address)": {
        "notice": "Allows admin to add a new asset for price tracking"
      },
      "changeAdmin(address)": {
        "notice": "Allows admin to change the admin of the contract"
      },
      "getAssetPrice(address)": {
        "notice": "Returns the latest price"
      },
      "removeAsset(address)": {
        "notice": "Allows admin to remove an existing asset from price tracking"
      },
      "togglePause()": {
        "notice": "Allows admin to pause and unpause the contract"
      }
    }
  }
}