{
  "contractName": "ChainLink",
  "abi": [
    {
      "constant": true,
      "inputs": [],
      "name": "admin",
      "outputs": [
        {
          "name": "",
          "type": "address"
        }
      ],
      "payable": false,
      "stateMutability": "view",
      "type": "function"
    },
    {
      "inputs": [],
      "payable": false,
      "stateMutability": "nonpayable",
      "type": "constructor"
    },
    {
      "constant": false,
      "inputs": [
        {
          "name": "assetAddress",
          "type": "address"
        },
        {
          "name": "priceFeedContract",
          "type": "address"
        }
      ],
      "name": "addAsset",
      "outputs": [],
      "payable": false,
      "stateMutability": "nonpayable",
      "type": "function"
    },
    {
      "constant": false,
      "inputs": [
        {
          "name": "assetAddress",
          "type": "address"
        }
      ],
      "name": "removeAsset",
      "outputs": [],
      "payable": false,
      "stateMutability": "nonpayable",
      "type": "function"
    },
    {
      "constant": false,
      "inputs": [
        {
          "name": "newAdmin",
          "type": "address"
        }
      ],
      "name": "changeAdmin",
      "outputs": [],
      "payable": false,
      "stateMutability": "nonpayable",
      "type": "function"
    },
    {
      "constant": true,
      "inputs": [
        {
          "name": "asset",
          "type": "address"
        }
      ],
      "name": "getAssetPrice",
      "outputs": [
        {
          "name": "",
          "type": "int256"
        }
      ],
      "payable": false,
      "stateMutability": "view",
      "type": "function"
    }
  ],
  "bytecode": "0x608060405234801561001057600080fd5b5060018054600160a060020a03199081163317909155600060208190527f3c9af4a5d5fc98aa13e448ab5d1fbf3cb0492f0b724abf5c517ed6310f753b2b805483167324959556020ae5d39e5baec2bd6bf12420c25ab51790557f3077e3d67d245f21554a542c64191e387e9325a91ed7aacc305fcabd16098a6b8054831673b8784d2d77d3dbaa9cac7d32d035a6d41e414e9c1790557fe099b9babfdf9e8c9c69429d3f393a17de25e0a8249a81b2120c79df2c3a113d8054831673ecf6936ad6030a1aa4f2055df44149b7846628f717905573c778417e063141139fce010982780140aa0cd5ab90527f02e9d230142cd2a2518ca1eebf58e2b95f971add66b06973a2b3e55bb9e440f980549091167330b5068156688f818cea0874b580206dfe081a031790556104fa806101486000396000f30060806040526004361061006c5763ffffffff7c01000000000000000000000000000000000000000000000000000000006000350416634a5e42b181146100715780638f28397014610094578063b3596f07146100b5578063da489997146100e8578063f851a4401461010f575b600080fd5b34801561007d57600080fd5b50610092600160a060020a0360043516610140565b005b3480156100a057600080fd5b50610092600160a060020a03600435166101fc565b3480156100c157600080fd5b506100d6600160a060020a03600435166102b3565b60408051918252519081900360200190f35b3480156100f457600080fd5b50610092600160a060020a03600435811690602435166103fc565b34801561011b57600080fd5b506101246104bf565b60408051600160a060020a039092168252519081900360200190f35b600154600160a060020a031633146101c8576040805160e560020a62461bcd02815260206004820152602960248201527f4f6e6c79207468652041646d696e2063616e20706572666f726d20746869732060448201527f6f7065726174696f6e0000000000000000000000000000000000000000000000606482015290519081900360840190fd5b600160a060020a03166000908152602081905260409020805473ffffffffffffffffffffffffffffffffffffffff19169055565b600154600160a060020a03163314610284576040805160e560020a62461bcd02815260206004820152602960248201527f4f6e6c79207468652041646d696e2063616e20706572666f726d20746869732060448201527f6f7065726174696f6e0000000000000000000000000000000000000000000000606482015290519081900360840190fd5b6001805473ffffffffffffffffffffffffffffffffffffffff1916600160a060020a0392909216919091179055565b60008060008060008060008088600160a060020a0316600160a060020a0316815260200190815260200160002060009054906101000a9004600160a060020a0316600160a060020a031663feaf968c6040518163ffffffff167c010000000000000000000000000000000000000000000000000000000002815260040160a060405180830381600087803b15801561034a57600080fd5b505af115801561035e573d6000803e3d6000fd5b505050506040513d60a081101561037457600080fd5b50805160208201516040830151606084015160809094015192985090965094509092509050600082116103f1576040805160e560020a62461bcd02815260206004820152601260248201527f526f756e64206e6f7420636f6d706c6574650000000000000000000000000000604482015290519081900360640190fd5b509195945050505050565b600154600160a060020a03163314610484576040805160e560020a62461bcd02815260206004820152602960248201527f4f6e6c79207468652041646d696e2063616e20706572666f726d20746869732060448201527f6f7065726174696f6e0000000000000000000000000000000000000000000000606482015290519081900360840190fd5b600160a060020a039182166000908152602081905260409020805473ffffffffffffffffffffffffffffffffffffffff191691909216179055565b600154600160a060020a0316815600a165627a7a723058206c080f428e46cecb12a626c2a761f80c6b11cc250ec72f78e9e51dfef63324840029",
  "source": "pragma solidity 0.4.24;\n\nimport \"../node_modules/@chainlink/contracts/src/v0.4/interfaces/AggregatorV3Interface.sol\";\n\ncontract ChainLink {\n    \n    mapping(address => AggregatorV3Interface) internal priceContractMapping;\n    address public admin;\n\n    /**\n     * Sets the initial assets and admin\n     */\n    constructor() public {\n        admin = msg.sender;\n        priceContractMapping[0x31F42841c2db5173425b5223809CF3A38FEde360] = AggregatorV3Interface(0x24959556020AE5D39e5bAEC2bd6Bf12420C25aB5);\n        priceContractMapping[0x0D9C8723B343A8368BebE0B5E89273fF8D712e3C] = AggregatorV3Interface(0xB8784d2D77D3dbaa9cAC7d32D035A6d41e414e9c);\n        priceContractMapping[0xBde8bB00A7eF67007A96945B3a3621177B615C44] = AggregatorV3Interface(0xECf6936AD6030A1Aa4f2055Df44149B7846628F7);\n        priceContractMapping[0xc778417E063141139Fce010982780140Aa0cD5Ab] = AggregatorV3Interface(0x30B5068156688f818cEa0874B580206dFe081a03);\n    }\n    \n    /**\n     * Modifier to restrict functions only by admins\n     */\n    modifier onlyAdmin() {\n        require(msg.sender == admin,\"Only the Admin can perform this operation\");\n        _;\n    }\n    \n    /**\n     * Allows admin to add a new asset for price tracking\n     */\n    function addAsset(address assetAddress, address priceFeedContract) public onlyAdmin {\n        priceContractMapping[assetAddress] = AggregatorV3Interface(priceFeedContract);\n    }\n    \n    /**\n     * Allows admin to remove an existing asset from price tracking\n     */\n    function removeAsset(address assetAddress) public onlyAdmin {\n        priceContractMapping[assetAddress] = AggregatorV3Interface(address(0));\n    }\n    \n    /**\n     * Allows admin to change the admin of the contract\n     */\n    function changeAdmin(address newAdmin) public onlyAdmin {\n        admin = newAdmin;\n    }\n\n    /**\n     * Returns the latest price\n     */\n    function getAssetPrice(address asset) public view returns (int) {\n        (\n            uint80 roundID, \n            int price,\n            uint startedAt,\n            uint timeStamp,\n            uint80 answeredInRound\n        ) = priceContractMapping[asset].latestRoundData();\n        // If the round is not complete yet, timestamp is 0\n        require(timeStamp > 0, \"Round not complete\");\n        return (price);\n    }\n}",
  "sourcePath": "/Users/raghu/Alkemi/alkemi-earn-protocol/contracts/ChainLink.sol",
  "compiler": {
    "name": "solc",
    "version": "0.4.24+commit.e67f0147.Emscripten.clang"
  },
  "schemaVersion": "3.2.3",
  "updatedAt": "2020-10-06T16:25:44.299Z",
  "networkType": "ethereum",
  "devdoc": {
    "methods": {}
  },
  "userdoc": {
    "methods": {
      "addAsset(address,address)": {
        "notice": "Allows admin to add a new asset for price tracking"
      },
      "changeAdmin(address)": {
        "notice": "Allows admin to change the admin of the contract"
      },
      "getAssetPrice(address)": {
        "notice": "Returns the latest price"
      },
      "removeAsset(address)": {
        "notice": "Allows admin to remove an existing asset from price tracking"
      }
    }
  }
}