{
  "contractName": "ChainLink",
  "abi": [
    {
      "constant": true,
      "inputs": [
        {
          "name": "",
          "type": "address"
        }
      ],
      "name": "assetsWithPriceFeedBasedOnUSD",
      "outputs": [
        {
          "name": "",
          "type": "bool"
        }
      ],
      "payable": false,
      "stateMutability": "view",
      "type": "function"
    },
    {
      "constant": true,
      "inputs": [],
      "name": "wethAddress",
      "outputs": [
        {
          "name": "",
          "type": "address"
        }
      ],
      "payable": false,
      "stateMutability": "view",
      "type": "function"
    },
    {
      "constant": true,
      "inputs": [],
      "name": "paused",
      "outputs": [
        {
          "name": "",
          "type": "bool"
        }
      ],
      "payable": false,
      "stateMutability": "view",
      "type": "function"
    },
    {
      "constant": true,
      "inputs": [],
      "name": "USDETHPriceFeed",
      "outputs": [
        {
          "name": "",
          "type": "address"
        }
      ],
      "payable": false,
      "stateMutability": "view",
      "type": "function"
    },
    {
      "constant": true,
      "inputs": [],
      "name": "admin",
      "outputs": [
        {
          "name": "",
          "type": "address"
        }
      ],
      "payable": false,
      "stateMutability": "view",
      "type": "function"
    },
    {
      "inputs": [],
      "payable": false,
      "stateMutability": "nonpayable",
      "type": "constructor"
    },
    {
      "anonymous": false,
      "inputs": [
        {
          "indexed": false,
          "name": "assetAddress",
          "type": "address"
        },
        {
          "indexed": false,
          "name": "priceFeedContract",
          "type": "address"
        }
      ],
      "name": "assetAdded",
      "type": "event"
    },
    {
      "anonymous": false,
      "inputs": [
        {
          "indexed": false,
          "name": "assetAddress",
          "type": "address"
        }
      ],
      "name": "assetRemoved",
      "type": "event"
    },
    {
      "anonymous": false,
      "inputs": [
        {
          "indexed": false,
          "name": "oldAdmin",
          "type": "address"
        },
        {
          "indexed": false,
          "name": "newAdmin",
          "type": "address"
        }
      ],
      "name": "adminChanged",
      "type": "event"
    },
    {
      "anonymous": false,
      "inputs": [
        {
          "indexed": false,
          "name": "wethAddress",
          "type": "address"
        }
      ],
      "name": "wethAddressSet",
      "type": "event"
    },
    {
      "anonymous": false,
      "inputs": [
        {
          "indexed": false,
          "name": "USDETHPriceFeed",
          "type": "address"
        }
      ],
      "name": "USDETHPriceFeedSet",
      "type": "event"
    },
    {
      "anonymous": false,
      "inputs": [
        {
          "indexed": false,
          "name": "currentStatus",
          "type": "bool"
        }
      ],
      "name": "contractPausedOrUnpaused",
      "type": "event"
    },
    {
      "constant": false,
      "inputs": [
        {
          "name": "assetAddress",
          "type": "address"
        },
        {
          "name": "priceFeedContract",
          "type": "address"
        },
        {
          "name": "_assetWithPriceFeedBasedOnUSD",
          "type": "bool"
        }
      ],
      "name": "addAsset",
      "outputs": [],
      "payable": false,
      "stateMutability": "nonpayable",
      "type": "function"
    },
    {
      "constant": false,
      "inputs": [
        {
          "name": "assetAddress",
          "type": "address"
        }
      ],
      "name": "removeAsset",
      "outputs": [],
      "payable": false,
      "stateMutability": "nonpayable",
      "type": "function"
    },
    {
      "constant": false,
      "inputs": [
        {
          "name": "newAdmin",
          "type": "address"
        }
      ],
      "name": "changeAdmin",
      "outputs": [],
      "payable": false,
      "stateMutability": "nonpayable",
      "type": "function"
    },
    {
      "constant": false,
      "inputs": [
        {
          "name": "_wethAddress",
          "type": "address"
        }
      ],
      "name": "setWethAddress",
      "outputs": [],
      "payable": false,
      "stateMutability": "nonpayable",
      "type": "function"
    },
    {
      "constant": false,
      "inputs": [
        {
          "name": "_USDETHPriceFeed",
          "type": "address"
        }
      ],
      "name": "setUSDETHPriceFeedAddress",
      "outputs": [],
      "payable": false,
      "stateMutability": "nonpayable",
      "type": "function"
    },
    {
      "constant": false,
      "inputs": [],
      "name": "togglePause",
      "outputs": [],
      "payable": false,
      "stateMutability": "nonpayable",
      "type": "function"
    },
    {
      "constant": true,
      "inputs": [
        {
          "name": "asset",
          "type": "address"
        }
      ],
      "name": "getAssetPrice",
      "outputs": [
        {
          "name": "",
          "type": "uint256"
        }
      ],
      "payable": false,
      "stateMutability": "view",
      "type": "function"
    },
    {
      "constant": false,
      "inputs": [],
      "name": "fallback",
      "outputs": [],
      "payable": true,
      "stateMutability": "payable",
      "type": "function"
    }
  ],
  "bytecode": "0x60806040526002805460a060020a60ff021916905534801561002057600080fd5b5060028054600160a060020a03191633179055610d40806100426000396000f3006080604052600436106100c45763ffffffff7c01000000000000000000000000000000000000000000000000000000006000350416632303898381146100c95780632b906f31146100fe5780634a5e42b1146101215780634f0e0ef314610142578063552079dc146101735780635c975abb1461017b5780637b49094d146101905780638f283970146101a557806395a0c796146101c6578063a96e2423146101f2578063b3596f0714610213578063c4ae316814610246578063f851a4401461025b575b600080fd5b3480156100d557600080fd5b506100ea600160a060020a0360043516610270565b604080519115158252519081900360200190f35b34801561010a57600080fd5b5061011f600160a060020a0360043516610285565b005b34801561012d57600080fd5b5061011f600160a060020a036004351661034a565b34801561014e57600080fd5b50610157610417565b60408051600160a060020a039092168252519081900360200190f35b61011f610426565b34801561018757600080fd5b506100ea6104bf565b34801561019c57600080fd5b506101576104e0565b3480156101b157600080fd5b5061011f600160a060020a03600435166104ef565b3480156101d257600080fd5b5061011f600160a060020a036004358116906024351660443515156105ca565b3480156101fe57600080fd5b5061011f600160a060020a0360043516610722565b34801561021f57600080fd5b50610234600160a060020a03600435166107e7565b60408051918252519081900360200190f35b34801561025257600080fd5b5061011f610b7c565b34801561026757600080fd5b50610157610cc5565b60016020526000908152604090205460ff1681565b600254600160a060020a031633146102e9576040805160e560020a62461bcd0281526020600482015260296024820152600080516020610cf58339815191526044820152600080516020610cd5833981519152606482015290519081900360840190fd5b60048054600160a060020a03831673ffffffffffffffffffffffffffffffffffffffff19909116811790915560408051918252517f8fc6f8583f30a4b5f6434c2ff1c21bfa93afda6c44786ee42b33fd7e09cc532c9181900360200190a150565b600254600160a060020a031633146103ae576040805160e560020a62461bcd0281526020600482015260296024820152600080516020610cf58339815191526044820152600080516020610cd5833981519152606482015290519081900360840190fd5b600160a060020a03811660008181526020818152604091829020805473ffffffffffffffffffffffffffffffffffffffff19169055815192835290517feb869716e6e4df646fa6f9580b7ce838674d58ef768d9ec740785cb0c971d6959281900390910190a150565b600354600160a060020a031681565b60405133903480156108fc02916000818181858888f1935050505015156104bd576040805160e560020a62461bcd02815260206004820152602d60248201527f46616c6c6261636b2066756e6374696f6e20696e69746961746564206275742060448201527f726566756e64206661696c656400000000000000000000000000000000000000606482015290519081900360840190fd5b565b60025474010000000000000000000000000000000000000000900460ff1681565b600454600160a060020a031681565b600254600160a060020a03163314610553576040805160e560020a62461bcd0281526020600482015260296024820152600080516020610cf58339815191526044820152600080516020610cd5833981519152606482015290519081900360840190fd5b60025460408051600160a060020a039283168152918316602083015280517fbadc9a52979e89f78b7c58309537410c5e51d0f63a0a455efe8d61d2b474e6989281900390910190a16002805473ffffffffffffffffffffffffffffffffffffffff1916600160a060020a0392909216919091179055565b600254600160a060020a0316331461062e576040805160e560020a62461bcd0281526020600482015260296024820152600080516020610cf58339815191526044820152600080516020610cd5833981519152606482015290519081900360840190fd5b801561069657600454600160a060020a03161515610696576040805160e560020a62461bcd02815260206004820152601760248201527f555344455448507269636546656564206e6f7420736574000000000000000000604482015290519081900360640190fd5b600160a060020a03838116600081815260208181526040808320805473ffffffffffffffffffffffffffffffffffffffff191695881695861790556001825291829020805460ff1916861515179055815192835282019290925281517f5760e73aa1540f0e1b7caf958cf3b63a02ed643843163081214586096289d71b929181900390910190a1505050565b600254600160a060020a03163314610786576040805160e560020a62461bcd0281526020600482015260296024820152600080516020610cf58339815191526044820152600080516020610cd5833981519152606482015290519081900360840190fd5b60038054600160a060020a03831673ffffffffffffffffffffffffffffffffffffffff19909116811790915560408051918252517fcadfaf2b661f9e923b6415473af2ea89dae35c4745102596106d4660833f23719181900360200190a150565b6000806000806000806000806000600260149054906101000a900460ff1615801561081f5750600354600160a060020a038b81169116145b1561083457670de0b6b3a76400009850610b6f565b89600160a060020a031663313ce5676040518163ffffffff167c0100000000000000000000000000000000000000000000000000000000028152600401602060405180830381600087803b15801561088b57600080fd5b505af115801561089f573d6000803e3d6000fd5b505050506040513d60208110156108b557600080fd5b505160025490985074010000000000000000000000000000000000000000900460ff161580156108fe5750600160a060020a038a81166000908152602081905260409020541615155b15610b6a57600160a060020a03808b166000908152602081905260408082205481517ffeaf968c000000000000000000000000000000000000000000000000000000008152915193169263feaf968c9260048084019360a093929083900390910190829087803b15801561097157600080fd5b505af1158015610985573d6000803e3d6000fd5b505050506040513d60a081101561099b57600080fd5b508051602082015160408301516060840151608090940151929a509098509650909450925060008411610a18576040805160e560020a62461bcd02815260206004820152601260248201527f526f756e64206e6f7420636f6d706c6574650000000000000000000000000000604482015290519081900360640190fd5b600160a060020a038a1660009081526001602052604090205460ff1615610b4e5760048054604080517ffeaf968c0000000000000000000000000000000000000000000000000000000081529051600160a060020a039092169263feaf968c928282019260a092908290030181600087803b158015610a9657600080fd5b505af1158015610aaa573d6000803e3d6000fd5b505050506040513d60a0811015610ac057600080fd5b508051602082015160408301516060840151608090940151929a5097509195509350915060008411610b3c576040805160e560020a62461bcd02815260206004820152601260248201527f526f756e64206e6f7420636f6d706c6574650000000000000000000000000000604482015290519081900360640190fd5b506305f5e10081860204975087610b6f565b6000861315610b6a578760ff16601203600a0a86029850610b6f565b600098505b5050505050505050919050565b600254600160a060020a03163314610be0576040805160e560020a62461bcd0281526020600482015260296024820152600080516020610cf58339815191526044820152600080516020610cd5833981519152606482015290519081900360840190fd5b60025474010000000000000000000000000000000000000000900460ff1615610c5a576002805474ff000000000000000000000000000000000000000019169055604080516000815290517fc8bba866518ae9aa8da197216b6c4650cc7e794e25ba3db8367d55bff5200a3c9181900360200190a16104bd565b6002805474ff0000000000000000000000000000000000000000191674010000000000000000000000000000000000000000179055604080516001815290517fc8bba866518ae9aa8da197216b6c4650cc7e794e25ba3db8367d55bff5200a3c9181900360200190a1565b600254600160a060020a03168156006f7065726174696f6e00000000000000000000000000000000000000000000004f6e6c79207468652041646d696e2063616e20706572666f726d207468697320a165627a7a72305820a0fc612867a88c95f7d29f8fb4723c68dc118f50d43bb22dac4ae06a13d465cb0029",
  "source": "pragma solidity 0.4.24;\n\nimport \"./AggregatorV3Interface.sol\";\nimport './TestTokens.sol';\n\ncontract ChainLink {\n    \n    mapping(address => AggregatorV3Interface) internal priceContractMapping;\n    mapping (address => bool) public assetsWithPriceFeedBasedOnUSD;\n    address public admin;\n    bool public paused = false;\n    address public wethAddress;\n    AggregatorV3Interface public USDETHPriceFeed;\n\n    /**\n     * Sets the initial assets and admin\n     * Add assets and set Weth Address using their own functions\n     */\n    constructor() public {\n        admin = msg.sender;\n    }\n    \n    /**\n     * Modifier to restrict functions only by admins\n     */\n    modifier onlyAdmin() {\n        require(msg.sender == admin,\"Only the Admin can perform this operation\");\n        _;\n    }\n    \n    /**\n     * Event declarations for all the operations of this contract\n     */\n    event assetAdded(address assetAddress, address priceFeedContract);\n    event assetRemoved(address assetAddress);\n    event adminChanged(address oldAdmin, address newAdmin);\n    event wethAddressSet(address wethAddress);\n    event USDETHPriceFeedSet(address USDETHPriceFeed);\n    event contractPausedOrUnpaused(bool currentStatus);\n\n    /**\n     * Allows admin to add a new asset for price tracking\n     */\n    function addAsset(address assetAddress, address priceFeedContract, bool _assetWithPriceFeedBasedOnUSD) public onlyAdmin {\n        if (_assetWithPriceFeedBasedOnUSD) {\n            require(USDETHPriceFeed != address(0),\"USDETHPriceFeed not set\");\n        }\n        priceContractMapping[assetAddress] = AggregatorV3Interface(priceFeedContract);\n        assetsWithPriceFeedBasedOnUSD[assetAddress] = _assetWithPriceFeedBasedOnUSD;\n        emit assetAdded(assetAddress, priceFeedContract);\n    }\n    \n    /**\n     * Allows admin to remove an existing asset from price tracking\n     */\n    function removeAsset(address assetAddress) public onlyAdmin {\n        priceContractMapping[assetAddress] = AggregatorV3Interface(address(0));\n        emit assetRemoved(assetAddress);\n    }\n    \n    /**\n     * Allows admin to change the admin of the contract\n     */\n    function changeAdmin(address newAdmin) public onlyAdmin {\n        emit adminChanged(admin, newAdmin);\n        admin = newAdmin;\n    }\n\n    /**\n     * Allows admin to set the weth address\n     */\n    function setWethAddress(address _wethAddress) public onlyAdmin {\n        wethAddress = _wethAddress;\n        emit wethAddressSet(_wethAddress);\n    }\n\n    /**\n     * Allows admin to set the weth address\n     */\n    function setUSDETHPriceFeedAddress(AggregatorV3Interface _USDETHPriceFeed) public onlyAdmin {\n        USDETHPriceFeed = _USDETHPriceFeed;\n        emit USDETHPriceFeedSet(_USDETHPriceFeed);\n    }\n\n    /**\n     * Allows admin to pause and unpause the contract\n     */\n    function togglePause() public onlyAdmin {\n        if (paused) {\n            paused = false;\n            emit contractPausedOrUnpaused(false);\n        }\n        else {\n            paused = true;\n            emit contractPausedOrUnpaused(true);\n        }\n    }\n\n    /**\n     * Returns the latest price\n     */\n    function getAssetPrice(address asset) public view returns (uint) {\n        // Return 1 * 10^18 for WETH, otherwise return actual price\n        if(!paused && asset == wethAddress) {\n            return 1000000000000000000;\n        }\n        // Capture the decimals in the ERC20 token\n        uint8 assetDecimals = TestTokens(asset).decimals();\n        if(!paused && priceContractMapping[asset] != address(0)) {\n            (\n                uint80 roundID, \n                int price,\n                uint startedAt,\n                uint timeStamp,\n                uint80 answeredInRound\n            ) = priceContractMapping[asset].latestRoundData();\n            // If the round is not complete yet, timestamp is 0\n            require(timeStamp > 0, \"Round not complete\");\n            // Calculate USD/ETH price for contracts using USD based price feed\n            if(assetsWithPriceFeedBasedOnUSD[asset]) {\n                int priceUSD;\n                (\n                    roundID, \n                    priceUSD,\n                    startedAt,\n                    timeStamp,\n                    answeredInRound\n                ) = USDETHPriceFeed.latestRoundData();\n                // If the round is not complete yet, timestamp is 0\n                require(timeStamp > 0, \"Round not complete\");\n                uint returnedPrice = uint(price) * uint(priceUSD) / (10 ** 8);\n                return returnedPrice;\n            } else {\n                if(price >0) {\n                // Magnify the result based on decimals\n                return (uint(price) * (10 ** (18 - uint(assetDecimals))));\n            }\n            else {\n                return 0;\n            }\n            }\n        }\n        else {\n            return 0;\n        }\n    }\n\n    function fallback() public payable {\n        require(msg.sender.send(msg.value),\"Fallback function initiated but refund failed\");\n    }\n}",
  "sourcePath": "/Users/raghu/Alkemi/alkemi-earn-protocol/contracts/ChainLink.sol",
  "compiler": {
    "name": "solc",
    "version": "0.4.24+commit.e67f0147.Emscripten.clang"
  },
  "schemaVersion": "3.0.22",
  "updatedAt": "2021-04-30T11:51:15.102Z",
  "devdoc": {
    "methods": {}
  },
  "userdoc": {
    "methods": {
      "addAsset(address,address,bool)": {
        "notice": "Allows admin to add a new asset for price tracking"
      },
      "changeAdmin(address)": {
        "notice": "Allows admin to change the admin of the contract"
      },
      "getAssetPrice(address)": {
        "notice": "Returns the latest price"
      },
      "removeAsset(address)": {
        "notice": "Allows admin to remove an existing asset from price tracking"
      },
      "setUSDETHPriceFeedAddress(address)": {
        "notice": "Allows admin to set the weth address"
      },
      "setWethAddress(address)": {
        "notice": "Allows admin to set the weth address"
      },
      "togglePause()": {
        "notice": "Allows admin to pause and unpause the contract"
      }
    }
  }
}