{
  "contractName": "ChainLink",
  "abi": [
    {
      "constant": true,
      "inputs": [],
      "name": "wethAddress",
      "outputs": [
        {
          "name": "",
          "type": "address"
        }
      ],
      "payable": false,
      "stateMutability": "view",
      "type": "function"
    },
    {
      "constant": true,
      "inputs": [],
      "name": "paused",
      "outputs": [
        {
          "name": "",
          "type": "bool"
        }
      ],
      "payable": false,
      "stateMutability": "view",
      "type": "function"
    },
    {
      "constant": true,
      "inputs": [],
      "name": "admin",
      "outputs": [
        {
          "name": "",
          "type": "address"
        }
      ],
      "payable": false,
      "stateMutability": "view",
      "type": "function"
    },
    {
      "inputs": [],
      "payable": false,
      "stateMutability": "nonpayable",
      "type": "constructor"
    },
    {
      "anonymous": false,
      "inputs": [
        {
          "indexed": false,
          "name": "assetAddress",
          "type": "address"
        },
        {
          "indexed": false,
          "name": "priceFeedContract",
          "type": "address"
        }
      ],
      "name": "assetAdded",
      "type": "event"
    },
    {
      "anonymous": false,
      "inputs": [
        {
          "indexed": false,
          "name": "assetAddress",
          "type": "address"
        }
      ],
      "name": "assetRemoved",
      "type": "event"
    },
    {
      "anonymous": false,
      "inputs": [
        {
          "indexed": false,
          "name": "oldAdmin",
          "type": "address"
        },
        {
          "indexed": false,
          "name": "newAdmin",
          "type": "address"
        }
      ],
      "name": "adminChanged",
      "type": "event"
    },
    {
      "anonymous": false,
      "inputs": [
        {
          "indexed": false,
          "name": "wethAddress",
          "type": "address"
        }
      ],
      "name": "wethAddressSet",
      "type": "event"
    },
    {
      "anonymous": false,
      "inputs": [
        {
          "indexed": false,
          "name": "currentStatus",
          "type": "bool"
        }
      ],
      "name": "contractPausedOrUnpaused",
      "type": "event"
    },
    {
      "constant": false,
      "inputs": [
        {
          "name": "assetAddress",
          "type": "address"
        },
        {
          "name": "priceFeedContract",
          "type": "address"
        }
      ],
      "name": "addAsset",
      "outputs": [],
      "payable": false,
      "stateMutability": "nonpayable",
      "type": "function"
    },
    {
      "constant": false,
      "inputs": [
        {
          "name": "assetAddress",
          "type": "address"
        }
      ],
      "name": "removeAsset",
      "outputs": [],
      "payable": false,
      "stateMutability": "nonpayable",
      "type": "function"
    },
    {
      "constant": false,
      "inputs": [
        {
          "name": "newAdmin",
          "type": "address"
        }
      ],
      "name": "changeAdmin",
      "outputs": [],
      "payable": false,
      "stateMutability": "nonpayable",
      "type": "function"
    },
    {
      "constant": false,
      "inputs": [
        {
          "name": "_wethAddress",
          "type": "address"
        }
      ],
      "name": "setWethAddress",
      "outputs": [],
      "payable": false,
      "stateMutability": "nonpayable",
      "type": "function"
    },
    {
      "constant": false,
      "inputs": [],
      "name": "togglePause",
      "outputs": [],
      "payable": false,
      "stateMutability": "nonpayable",
      "type": "function"
    },
    {
      "constant": true,
      "inputs": [
        {
          "name": "asset",
          "type": "address"
        }
      ],
      "name": "getAssetPrice",
      "outputs": [
        {
          "name": "",
          "type": "uint256"
        }
      ],
      "payable": false,
      "stateMutability": "view",
      "type": "function"
    },
    {
      "constant": false,
      "inputs": [],
      "name": "fallback",
      "outputs": [],
      "payable": true,
      "stateMutability": "payable",
      "type": "function"
    }
  ],
  "bytecode": "0x60806040526001805460a060020a60ff021916905534801561002057600080fd5b5060018054600160a060020a03191633179055610a21806100426000396000f3006080604052600436106100a35763ffffffff7c01000000000000000000000000000000000000000000000000000000006000350416634a5e42b181146100a85780634f0e0ef3146100cb578063552079dc146100fc5780635c975abb146101045780638f2839701461012d578063a96e24231461014e578063b3596f071461016f578063c4ae3168146101a2578063da489997146101b7578063f851a440146101de575b600080fd5b3480156100b457600080fd5b506100c9600160a060020a03600435166101f3565b005b3480156100d757600080fd5b506100e06102c0565b60408051600160a060020a039092168252519081900360200190f35b6100c96102cf565b34801561011057600080fd5b50610119610368565b604080519115158252519081900360200190f35b34801561013957600080fd5b506100c9600160a060020a0360043516610389565b34801561015a57600080fd5b506100c9600160a060020a0360043516610464565b34801561017b57600080fd5b50610190600160a060020a0360043516610529565b60408051918252519081900360200190f35b3480156101ae57600080fd5b506100c9610783565b3480156101c357600080fd5b506100c9600160a060020a03600435811690602435166108ca565b3480156101ea57600080fd5b506100e06109a6565b600154600160a060020a03163314610257576040805160e560020a62461bcd02815260206004820152602960248201526000805160206109d683398151915260448201526000805160206109b6833981519152606482015290519081900360840190fd5b600160a060020a03811660008181526020818152604091829020805473ffffffffffffffffffffffffffffffffffffffff19169055815192835290517feb869716e6e4df646fa6f9580b7ce838674d58ef768d9ec740785cb0c971d6959281900390910190a150565b600254600160a060020a031681565b60405133903480156108fc02916000818181858888f193505050501515610366576040805160e560020a62461bcd02815260206004820152602d60248201527f46616c6c6261636b2066756e6374696f6e20696e69746961746564206275742060448201527f726566756e64206661696c656400000000000000000000000000000000000000606482015290519081900360840190fd5b565b60015474010000000000000000000000000000000000000000900460ff1681565b600154600160a060020a031633146103ed576040805160e560020a62461bcd02815260206004820152602960248201526000805160206109d683398151915260448201526000805160206109b6833981519152606482015290519081900360840190fd5b60015460408051600160a060020a039283168152918316602083015280517fbadc9a52979e89f78b7c58309537410c5e51d0f63a0a455efe8d61d2b474e6989281900390910190a16001805473ffffffffffffffffffffffffffffffffffffffff1916600160a060020a0392909216919091179055565b600154600160a060020a031633146104c8576040805160e560020a62461bcd02815260206004820152602960248201526000805160206109d683398151915260448201526000805160206109b6833981519152606482015290519081900360840190fd5b60028054600160a060020a03831673ffffffffffffffffffffffffffffffffffffffff19909116811790915560408051918252517fcadfaf2b661f9e923b6415473af2ea89dae35c4745102596106d4660833f23719181900360200190a150565b6000806000806000806000600160149054906101000a900460ff1615801561055e5750600254600160a060020a038981169116145b1561057357670de0b6b3a76400009650610778565b87600160a060020a031663313ce5676040518163ffffffff167c0100000000000000000000000000000000000000000000000000000000028152600401602060405180830381600087803b1580156105ca57600080fd5b505af11580156105de573d6000803e3d6000fd5b505050506040513d60208110156105f457600080fd5b505160015490965074010000000000000000000000000000000000000000900460ff1615801561063d5750600160a060020a038881166000908152602081905260409020541615155b1561077357600160a060020a038089166000908152602081905260408082205481517ffeaf968c000000000000000000000000000000000000000000000000000000008152915193169263feaf968c9260048084019360a093929083900390910190829087803b1580156106b057600080fd5b505af11580156106c4573d6000803e3d6000fd5b505050506040513d60a08110156106da57600080fd5b5080516020820151604083015160608401516080909401519298509096509450909250905060008211610757576040805160e560020a62461bcd02815260206004820152601260248201527f526f756e64206e6f7420636f6d706c6574650000000000000000000000000000604482015290519081900360640190fd5b6000841315610773578560ff16601203600a0a84029650610778565b600096505b505050505050919050565b600154600160a060020a031633146107e7576040805160e560020a62461bcd02815260206004820152602960248201526000805160206109d683398151915260448201526000805160206109b6833981519152606482015290519081900360840190fd5b60015474010000000000000000000000000000000000000000900460ff1615610861576001805474ff000000000000000000000000000000000000000019169055604080516000815290517fc8bba866518ae9aa8da197216b6c4650cc7e794e25ba3db8367d55bff5200a3c9181900360200190a1610366565b6001805474ff000000000000000000000000000000000000000019167401000000000000000000000000000000000000000017815560408051918252517fc8bba866518ae9aa8da197216b6c4650cc7e794e25ba3db8367d55bff5200a3c9181900360200190a1565b600154600160a060020a0316331461092e576040805160e560020a62461bcd02815260206004820152602960248201526000805160206109d683398151915260448201526000805160206109b6833981519152606482015290519081900360840190fd5b600160a060020a0382811660008181526020818152604091829020805473ffffffffffffffffffffffffffffffffffffffff19169486169485179055815192835282019290925281517f5760e73aa1540f0e1b7caf958cf3b63a02ed643843163081214586096289d71b929181900390910190a15050565b600154600160a060020a03168156006f7065726174696f6e00000000000000000000000000000000000000000000004f6e6c79207468652041646d696e2063616e20706572666f726d207468697320a165627a7a72305820de2a0485b1047de848da5d7c15e5d48d90cb9acbd1e7342afc01ae3e976c04e20029",
  "source": "pragma solidity 0.4.24;\n\nimport \"../node_modules/@chainlink/contracts/src/v0.4/interfaces/AggregatorV3Interface.sol\";\nimport './TestTokens.sol';\n\ncontract ChainLink {\n    \n    mapping(address => AggregatorV3Interface) internal priceContractMapping;\n    address public admin;\n    bool public paused = false;\n    address public wethAddress;\n\n    /**\n     * Sets the initial assets and admin\n     * Add assets and set Weth Address using their own functions\n     */\n    constructor() public {\n        admin = msg.sender;\n    }\n    \n    /**\n     * Modifier to restrict functions only by admins\n     */\n    modifier onlyAdmin() {\n        require(msg.sender == admin,\"Only the Admin can perform this operation\");\n        _;\n    }\n    \n    /**\n     * Event declarations for all the operations of this contract\n     */\n    event assetAdded(address assetAddress, address priceFeedContract);\n    event assetRemoved(address assetAddress);\n    event adminChanged(address oldAdmin, address newAdmin);\n    event wethAddressSet(address wethAddress);\n    event contractPausedOrUnpaused(bool currentStatus);\n\n    /**\n     * Allows admin to add a new asset for price tracking\n     */\n    function addAsset(address assetAddress, address priceFeedContract) public onlyAdmin {\n        priceContractMapping[assetAddress] = AggregatorV3Interface(priceFeedContract);\n        emit assetAdded(assetAddress, priceFeedContract);\n    }\n    \n    /**\n     * Allows admin to remove an existing asset from price tracking\n     */\n    function removeAsset(address assetAddress) public onlyAdmin {\n        priceContractMapping[assetAddress] = AggregatorV3Interface(address(0));\n        emit assetRemoved(assetAddress);\n    }\n    \n    /**\n     * Allows admin to change the admin of the contract\n     */\n    function changeAdmin(address newAdmin) public onlyAdmin {\n        emit adminChanged(admin, newAdmin);\n        admin = newAdmin;\n    }\n\n    /**\n     * Allows admin to set the weth address\n     */\n    function setWethAddress(address _wethAddress) public onlyAdmin {\n        wethAddress = _wethAddress;\n        emit wethAddressSet(_wethAddress);\n    }\n\n    /**\n     * Allows admin to pause and unpause the contract\n     */\n    function togglePause() public onlyAdmin {\n        if (paused) {\n            paused = false;\n            emit contractPausedOrUnpaused(false);\n        }\n        else {\n            paused = true;\n            emit contractPausedOrUnpaused(true);\n        }\n    }\n\n    /**\n     * Returns the latest price\n     */\n    function getAssetPrice(address asset) public view returns (uint) {\n        // Return 1 * 10^18 for WETH, otherwise return actual price\n        if(!paused && asset == wethAddress) {\n            return 1000000000000000000;\n        }\n        // Capture the decimals in the ERC20 token\n        uint8 assetDecimals = TestTokens(asset).decimals();\n        if(!paused && priceContractMapping[asset] != address(0)) {\n            (\n                uint80 roundID, \n                int price,\n                uint startedAt,\n                uint timeStamp,\n                uint80 answeredInRound\n            ) = priceContractMapping[asset].latestRoundData();\n            // If the round is not complete yet, timestamp is 0\n            require(timeStamp > 0, \"Round not complete\");\n            if(price >0) {\n                // Magnify the result based on decimals\n                return (uint(price) * (10 ** (18 - uint(assetDecimals))));\n            }\n            else {\n                return 0;\n            }\n        }\n        else {\n            return 0;\n        }\n    }\n\n    function fallback() public payable {\n        require(msg.sender.send(msg.value),\"Fallback function initiated but refund failed\");\n    }\n}",
  "sourcePath": "/Users/raghu/Alkemi/alkemi-earn-protocol/contracts/ChainLink.sol",
  "compiler": {
    "name": "solc",
    "version": "0.4.24+commit.e67f0147.Emscripten.clang"
  },
  "schemaVersion": "3.2.3",
  "updatedAt": "2020-10-13T16:32:32.087Z",
  "networkType": "ethereum",
  "devdoc": {
    "methods": {}
  },
  "userdoc": {
    "methods": {
      "addAsset(address,address)": {
        "notice": "Allows admin to add a new asset for price tracking"
      },
      "changeAdmin(address)": {
        "notice": "Allows admin to change the admin of the contract"
      },
      "getAssetPrice(address)": {
        "notice": "Returns the latest price"
      },
      "removeAsset(address)": {
        "notice": "Allows admin to remove an existing asset from price tracking"
      },
      "setWethAddress(address)": {
        "notice": "Allows admin to set the weth address"
      },
      "togglePause()": {
        "notice": "Allows admin to pause and unpause the contract"
      }
    }
  }
}