{
  "contractName": "LiquidationChecker",
  "abi": [
    {
      "constant": true,
      "inputs": [],
      "name": "allowLiquidation",
      "outputs": [
        {
          "name": "",
          "type": "bool"
        }
      ],
      "payable": false,
      "stateMutability": "view",
      "type": "function"
    },
    {
      "constant": true,
      "inputs": [],
      "name": "liquidator",
      "outputs": [
        {
          "name": "",
          "type": "address"
        }
      ],
      "payable": false,
      "stateMutability": "view",
      "type": "function"
    },
    {
      "constant": true,
      "inputs": [],
      "name": "moneyMarket",
      "outputs": [
        {
          "name": "",
          "type": "address"
        }
      ],
      "payable": false,
      "stateMutability": "view",
      "type": "function"
    },
    {
      "inputs": [
        {
          "name": "moneyMarket_",
          "type": "address"
        },
        {
          "name": "liquidator_",
          "type": "address"
        }
      ],
      "payable": false,
      "stateMutability": "nonpayable",
      "type": "constructor"
    },
    {
      "constant": false,
      "inputs": [
        {
          "name": "allowLiquidation_",
          "type": "bool"
        }
      ],
      "name": "setAllowLiquidation",
      "outputs": [],
      "payable": false,
      "stateMutability": "nonpayable",
      "type": "function"
    }
  ],
  "bytecode": "0x608060405234801561001057600080fd5b506040516040806102e083398101604052805160209091015160008054600160a060020a0319908116600160a060020a0394851617825560018054909116939092169290921760a060020a60ff021916905561026e90819061007290396000f3006080604052600436106100605763ffffffff7c01000000000000000000000000000000000000000000000000000000006000350416620fba16811461006557806325468f681461008e5780634046ebae146100aa578063d6d75f51146100e8575b600080fd5b34801561007157600080fd5b5061007a6100fd565b604080519115158252519081900360200190f35b34801561009a57600080fd5b506100a8600435151561011e565b005b3480156100b657600080fd5b506100bf61020a565b6040805173ffffffffffffffffffffffffffffffffffffffff9092168252519081900360200190f35b3480156100f457600080fd5b506100bf610226565b60015474010000000000000000000000000000000000000000900460ff1681565b60015473ffffffffffffffffffffffffffffffffffffffff1633146101ca57604080517f08c379a000000000000000000000000000000000000000000000000000000000815260206004820152602660248201527f4c49515549444154494f4e5f434845434b45525f494e56414c49445f4c49515560448201527f494441544f520000000000000000000000000000000000000000000000000000606482015290519081900360840190fd5b60018054911515740100000000000000000000000000000000000000000274ff000000000000000000000000000000000000000019909216919091179055565b60015473ffffffffffffffffffffffffffffffffffffffff1681565b60005473ffffffffffffffffffffffffffffffffffffffff16815600a165627a7a723058205957622a7202932dc7f05c0eabbb98ad825eaff020fd040c512a291f4264bef00029",
  "source": "pragma solidity ^0.4.24;\n\nimport \"./EIP20Interface.sol\";\nimport \"./PriceOracleProxy.sol\";\nimport \"./MoneyMarket.sol\";\n\ncontract LiquidationChecker {\n    MoneyMarket public moneyMarket;\n    address public liquidator;\n    bool public allowLiquidation;\n\n    constructor(address moneyMarket_, address liquidator_) public {\n        moneyMarket = MoneyMarket(moneyMarket_);\n        liquidator = liquidator_;\n        allowLiquidation = false;\n    }\n\n    function isAllowed(address asset, uint newCash) internal view returns(bool) {\n        return allowLiquidation || !isLiquidate(asset, newCash);\n    }\n\n    function isLiquidate(address asset, uint newCash) internal view returns(bool) {\n        return cashIsUp(asset, newCash) && oracleTouched();\n    }\n\n    function cashIsUp(address asset, uint newCash) internal view returns(bool) {\n        uint oldCash = EIP20Interface(asset).balanceOf(moneyMarket);\n\n        return newCash >= oldCash;\n    }\n\n    function oracleTouched() internal view returns(bool) {\n        PriceOracleProxy oracle = PriceOracleProxy(moneyMarket.oracle());\n\n        bool sameOrigin = oracle.mostRecentCaller() == tx.origin;\n        bool sameBlock = oracle.mostRecentBlock() == block.number;\n\n        return sameOrigin && sameBlock;\n    }\n\n    function setAllowLiquidation(bool allowLiquidation_) public {\n        require(msg.sender == liquidator, \"LIQUIDATION_CHECKER_INVALID_LIQUIDATOR\");\n\n        allowLiquidation = allowLiquidation_;\n    }\n}\n",
  "sourcePath": "/Users/ryanbreen/Workspace/Alkemi/alkemi-earn/alkemi-earn-protocol/contracts/LiquidationChecker.sol",
  "compiler": {
    "name": "solc",
    "version": "0.4.24+commit.e67f0147.Emscripten.clang"
  },
  "schemaVersion": "3.2.5",
  "updatedAt": "2021-01-02T06:52:53.673Z",
  "devdoc": {
    "methods": {}
  },
  "userdoc": {
    "methods": {}
  }
}