{
  "contractName": "Liquidator",
  "abi": [
    {
      "constant": true,
      "inputs": [],
      "name": "moneyMarket",
      "outputs": [
        {
          "name": "",
          "type": "address"
        }
      ],
      "payable": false,
      "stateMutability": "view",
      "type": "function"
    },
    {
      "inputs": [
        {
          "name": "moneyMarket_",
          "type": "address"
        }
      ],
      "payable": false,
      "stateMutability": "nonpayable",
      "type": "constructor"
    },
    {
      "anonymous": false,
      "inputs": [
        {
          "indexed": false,
          "name": "targetAccount",
          "type": "address"
        },
        {
          "indexed": false,
          "name": "assetBorrow",
          "type": "address"
        },
        {
          "indexed": false,
          "name": "borrowBalanceBefore",
          "type": "uint256"
        },
        {
          "indexed": false,
          "name": "borrowBalanceAccumulated",
          "type": "uint256"
        },
        {
          "indexed": false,
          "name": "amountRepaid",
          "type": "uint256"
        },
        {
          "indexed": false,
          "name": "borrowBalanceAfter",
          "type": "uint256"
        },
        {
          "indexed": false,
          "name": "liquidator",
          "type": "address"
        },
        {
          "indexed": false,
          "name": "assetCollateral",
          "type": "address"
        },
        {
          "indexed": false,
          "name": "collateralBalanceBefore",
          "type": "uint256"
        },
        {
          "indexed": false,
          "name": "collateralBalanceAccumulated",
          "type": "uint256"
        },
        {
          "indexed": false,
          "name": "amountSeized",
          "type": "uint256"
        },
        {
          "indexed": false,
          "name": "collateralBalanceAfter",
          "type": "uint256"
        }
      ],
      "name": "BorrowLiquidated",
      "type": "event"
    },
    {
      "anonymous": false,
      "inputs": [
        {
          "indexed": false,
          "name": "error",
          "type": "uint256"
        },
        {
          "indexed": false,
          "name": "info",
          "type": "uint256"
        },
        {
          "indexed": false,
          "name": "detail",
          "type": "uint256"
        }
      ],
      "name": "Failure",
      "type": "event"
    },
    {
      "constant": false,
      "inputs": [
        {
          "name": "targetAccount",
          "type": "address"
        },
        {
          "name": "assetBorrow",
          "type": "address"
        },
        {
          "name": "assetCollateral",
          "type": "address"
        },
        {
          "name": "requestedAmountClose",
          "type": "uint256"
        }
      ],
      "name": "liquidateBorrow",
      "outputs": [
        {
          "name": "",
          "type": "uint256"
        }
      ],
      "payable": false,
      "stateMutability": "nonpayable",
      "type": "function"
    }
  ],
  "bytecode": "0x608060405234801561001057600080fd5b506040516020806111f4833981016040525160008054600160a060020a03909216600160a060020a03199092169190911790556111a2806100526000396000f3006080604052600436106100325763ffffffff60e060020a600035041663d6d75f518114610037578063e61604cf14610068575b600080fd5b34801561004357600080fd5b5061004c6100aa565b60408051600160a060020a039092168252519081900360200190f35b34801561007457600080fd5b50610098600160a060020a03600435811690602435811690604435166064356100b9565b60408051918252519081900360200190f35b600054600160a060020a031681565b60008080600160a060020a03871630141561011e576040805160e560020a62461bcd02815260206004820152601b60248201527f4641494c45445f4c49515549444154455f4c495155494441544f520000000000604482015290519081900360640190fd5b600160a060020a03871633141561017f576040805160e560020a62461bcd02815260206004820152601560248201527f4641494c45445f4c49515549444154455f53454c460000000000000000000000604482015290519081900360640190fd5b333014156101d7576040805160e560020a62461bcd02815260206004820152601a60248201527f4641494c45445f4c49515549444154455f524543555253495645000000000000604482015290519081900360640190fd5b600160a060020a03868116908616141561023b576040805160e560020a62461bcd02815260206004820152601860248201527f4641494c45445f4c49515549444154455f494e5f4b494e440000000000000000604482015290519081900360640190fd5b60008054604080517f8e8f294b000000000000000000000000000000000000000000000000000000008152600160a060020a038a8116600483015291519190921692638e8f294b9260248082019361012093909283900390910190829087803b1580156102a757600080fd5b505af11580156102bb573d6000803e3d6000fd5b505050506040513d6101208110156102d257600080fd5b50604001519150600160a060020a038216151561035f576040805160e560020a62461bcd02815260206004820152602760248201527f4641494c45445f4c49515549444154455f4e4f5f494e5445524553545f52415460448201527f455f4d4f44454c00000000000000000000000000000000000000000000000000606482015290519081900360840190fd5b600061036c873387610ba7565b602181111561037757fe5b146103f1576040805160e560020a62461bcd028152602060048201526024808201527f4641494c45445f4c49515549444154455f5452414e534645525f494e5f494e5660448201527f414c494400000000000000000000000000000000000000000000000000000000606482015290519081900360840190fd5b60006103fe873387610cf7565b602181111561040957fe5b14610484576040805160e560020a62461bcd02815260206004820152602360248201527f4641494c45445f4c49515549444154455f5452414e534645525f494e5f46414960448201527f4c45440000000000000000000000000000000000000000000000000000000000606482015290519081900360840190fd5b60005461049b908790600160a060020a0316610dd1565b604080517f25468f68000000000000000000000000000000000000000000000000000000008152600160048201529051600160a060020a038416916325468f6891602480830192600092919082900301818387803b1580156104fc57600080fd5b505af1158015610510573d6000803e3d6000fd5b505060008054604080517fe61604cf000000000000000000000000000000000000000000000000000000008152600160a060020a038d811660048301528c811660248301528b81166044830152606482018b9052915191909216945063e61604cf935060848083019360209383900390910190829087803b15801561059457600080fd5b505af11580156105a8573d6000803e3d6000fd5b505050506040513d60208110156105be57600080fd5b505160008054604080517ff3fef3a3000000000000000000000000000000000000000000000000000000008152600160a060020a038a8116600483015260001960248301529151949550929391169163f3fef3a391604480830192602092919082900301818787803b15801561063357600080fd5b505af1158015610647573d6000803e3d6000fd5b505050506040513d602081101561065d57600080fd5b5051146106b4576040805160e560020a62461bcd02815260206004820181905260248201527f4641494c45445f4c49515549444154455f57495448445241575f4641494c4544604482015290519081900360640190fd5b604080517f25468f680000000000000000000000000000000000000000000000000000000081526000600482018190529151600160a060020a038516926325468f68926024808201939182900301818387803b15801561071357600080fd5b505af1158015610727573d6000803e3d6000fd5b505060008054604080517fba377731000000000000000000000000000000000000000000000000000000008152306004820152600160a060020a038b81166024830152915191909216945063ba377731935060448083019360209383900390910190829087803b15801561079a57600080fd5b505af11580156107ae573d6000803e3d6000fd5b505050506040513d60208110156107c457600080fd5b505115610841576040805160e560020a62461bcd02815260206004820152602c60248201527f4641494c45445f4c49515549444154455f52454d41494e494e475f535550504c60448201527f595f434f4c4c41544552414c0000000000000000000000000000000000000000606482015290519081900360840190fd5b60008054604080517fba377731000000000000000000000000000000000000000000000000000000008152306004820152600160a060020a038a811660248301529151919092169263ba37773192604480820193602093909283900390910190829087803b1580156108b257600080fd5b505af11580156108c6573d6000803e3d6000fd5b505050506040513d60208110156108dc57600080fd5b505115610959576040805160e560020a62461bcd02815260206004820152602860248201527f4641494c45445f4c49515549444154455f52454d41494e494e475f535550504c60448201527f595f424f52524f57000000000000000000000000000000000000000000000000606482015290519081900360840190fd5b60008054604080517f118e31b7000000000000000000000000000000000000000000000000000000008152306004820152600160a060020a0389811660248301529151919092169263118e31b792604480820193602093909283900390910190829087803b1580156109ca57600080fd5b505af11580156109de573d6000803e3d6000fd5b505050506040513d60208110156109f457600080fd5b505115610a71576040805160e560020a62461bcd02815260206004820152602c60248201527f4641494c45445f4c49515549444154455f52454d41494e494e475f424f52524f60448201527f575f434f4c4c41544552414c0000000000000000000000000000000000000000606482015290519081900360840190fd5b60008054604080517f118e31b7000000000000000000000000000000000000000000000000000000008152306004820152600160a060020a038a811660248301529151919092169263118e31b792604480820193602093909283900390910190829087803b158015610ae257600080fd5b505af1158015610af6573d6000803e3d6000fd5b505050506040513d6020811015610b0c57600080fd5b505115610b89576040805160e560020a62461bcd02815260206004820152602860248201527f4641494c45445f4c49515549444154455f52454d41494e494e475f424f52524f60448201527f575f424f52524f57000000000000000000000000000000000000000000000000606482015290519081900360840190fd5b610b938533610f0d565b610b9d8633610f0d565b9695505050505050565b604080517fdd62ed3e000000000000000000000000000000000000000000000000000000008152600160a060020a0384811660048301523060248301529151600092869285929184169163dd62ed3e9160448082019260209290919082900301818987803b158015610c1857600080fd5b505af1158015610c2c573d6000803e3d6000fd5b505050506040513d6020811015610c4257600080fd5b50511015610c535760079150610cef565b8281600160a060020a03166370a08231866040518263ffffffff1660e060020a0281526004018082600160a060020a0316600160a060020a03168152602001915050602060405180830381600087803b158015610caf57600080fd5b505af1158015610cc3573d6000803e3d6000fd5b505050506040513d6020811015610cd957600080fd5b50511015610cea5760089150610cef565b600091505b509392505050565b604080517f23b872dd000000000000000000000000000000000000000000000000000000008152600160a060020a03848116600483015230602483015260448201849052915160009286928492918416916323b872dd91606480820192869290919082900301818387803b158015610d6e57600080fd5b505af1158015610d82573d6000803e3d6000fd5b505050503d60008114610d9c5760208114610da657600080fd5b6000199150610db2565b60206000803e60005191505b50801515610dc35760099250610dc8565b600092505b50509392505050565b604080517fdd62ed3e000000000000000000000000000000000000000000000000000000008152306004820152600160a060020a03838116602483015291518492600019929084169163dd62ed3e916044808201926020929091908290030181600087803b158015610e4257600080fd5b505af1158015610e56573d6000803e3d6000fd5b505050506040513d6020811015610e6c57600080fd5b505114610f08576000610e828484600019610fb6565b6021811115610e8d57fe5b14610f08576040805160e560020a62461bcd02815260206004820152602760248201527f4641494c45445f4c49515549444154455f41535345545f414c4c4f57414e434560448201527f5f4641494c454400000000000000000000000000000000000000000000000000606482015290519081900360840190fd5b505050565b6000610f198330611076565b90506000811115610f08576000610f3184848461110b565b6021811115610f3c57fe5b14610f08576040805160e560020a62461bcd028152602060048201526024808201527f4641494c45445f4c49515549444154455f5452414e534645525f4f55545f464160448201527f494c454400000000000000000000000000000000000000000000000000000000606482015290519081900360840190fd5b600080600085915081600160a060020a031663095ea7b386866040518363ffffffff1660e060020a0281526004018083600160a060020a0316600160a060020a0316815260200182815260200192505050600060405180830381600087803b15801561102157600080fd5b505af1158015611035573d6000803e3d6000fd5b505050503d6000811461104f576020811461105957600080fd5b6000199150611065565b60206000803e60005191505b50801515610dc357600e9250610dc8565b60008083905080600160a060020a03166370a08231846040518263ffffffff1660e060020a0281526004018082600160a060020a0316600160a060020a03168152602001915050602060405180830381600087803b1580156110d757600080fd5b505af11580156110eb573d6000803e3d6000fd5b505050506040513d602081101561110157600080fd5b5051949350505050565b600080600085915081600160a060020a031663a9059cbb86866040518363ffffffff1660e060020a0281526004018083600160a060020a0316600160a060020a0316815260200182815260200192505050600060405180830381600087803b15801561102157600080fd00a165627a7a723058207f3f3ed61bba83150b0e5810027b4467f2bfe535578fd5eeb8100fd2961b68bd0029",
  "source": "pragma solidity ^0.4.24;\n\nimport \"./EIP20Interface.sol\";\nimport \"./EIP20NonStandardInterface.sol\";\nimport \"./ErrorReporter.sol\";\nimport \"./InterestRateModel.sol\";\nimport \"./SafeToken.sol\";\nimport \"./MoneyMarket.sol\";\nimport \"./LiquidationChecker.sol\";\n\ncontract Liquidator is ErrorReporter, SafeToken {\n    MoneyMarket public moneyMarket;\n\n    constructor(address moneyMarket_) public {\n        moneyMarket = MoneyMarket(moneyMarket_);\n    }\n\n    event BorrowLiquidated(address targetAccount,\n        address assetBorrow,\n        uint borrowBalanceBefore,\n        uint borrowBalanceAccumulated,\n        uint amountRepaid,\n        uint borrowBalanceAfter,\n        address liquidator,\n        address assetCollateral,\n        uint collateralBalanceBefore,\n        uint collateralBalanceAccumulated,\n        uint amountSeized,\n        uint collateralBalanceAfter);\n\n    function liquidateBorrow(address targetAccount, address assetBorrow, address assetCollateral, uint requestedAmountClose) public returns (uint) {\n        require(targetAccount != address(this), \"FAILED_LIQUIDATE_LIQUIDATOR\");\n        require(targetAccount != msg.sender, \"FAILED_LIQUIDATE_SELF\");\n        require(msg.sender != address(this), \"FAILED_LIQUIDATE_RECURSIVE\");\n        require(assetBorrow != assetCollateral, \"FAILED_LIQUIDATE_IN_KIND\");\n\n        InterestRateModel interestRateModel;\n        (,,interestRateModel,,,,,,) = moneyMarket.markets(assetBorrow);\n\n        require(interestRateModel != address(0), \"FAILED_LIQUIDATE_NO_INTEREST_RATE_MODEL\");\n        require(checkTransferIn(assetBorrow, msg.sender, requestedAmountClose) == Error.NO_ERROR, \"FAILED_LIQUIDATE_TRANSFER_IN_INVALID\");\n\n        require(doTransferIn(assetBorrow, msg.sender, requestedAmountClose) == Error.NO_ERROR, \"FAILED_LIQUIDATE_TRANSFER_IN_FAILED\");\n\n        tokenAllowAll(assetBorrow, moneyMarket);\n\n        LiquidationChecker(interestRateModel).setAllowLiquidation(true);\n\n        uint result = moneyMarket.liquidateBorrow(targetAccount, assetBorrow, assetCollateral, requestedAmountClose);\n\n        require(moneyMarket.withdraw(assetCollateral, uint(-1)) == uint(Error.NO_ERROR), \"FAILED_LIQUIDATE_WITHDRAW_FAILED\");\n\n        LiquidationChecker(interestRateModel).setAllowLiquidation(false);\n\n        // Ensure there's no remaining balances here\n        require(moneyMarket.getSupplyBalance(address(this), assetCollateral) == 0, \"FAILED_LIQUIDATE_REMAINING_SUPPLY_COLLATERAL\"); // just to be sure\n        require(moneyMarket.getSupplyBalance(address(this), assetBorrow) == 0, \"FAILED_LIQUIDATE_REMAINING_SUPPLY_BORROW\"); // just to be sure\n        require(moneyMarket.getBorrowBalance(address(this), assetCollateral) == 0, \"FAILED_LIQUIDATE_REMAINING_BORROW_COLLATERAL\"); // just to be sure\n        require(moneyMarket.getBorrowBalance(address(this), assetBorrow) == 0, \"FAILED_LIQUIDATE_REMAINING_BORROW_BORROW\"); // just to be sure\n\n        // Transfer out everything remaining\n        tokenTransferAll(assetCollateral, msg.sender);\n        tokenTransferAll(assetBorrow, msg.sender);\n\n        return uint(result);\n    }\n\n    function tokenAllowAll(address asset, address allowee) internal {\n        EIP20Interface token = EIP20Interface(asset);\n\n        if (token.allowance(address(this), allowee) != uint(-1))\n            // require(token.approve(allowee, uint(-1)), \"FAILED_LIQUIDATE_ASSET_ALLOWANCE_FAILED\");\n            require(doApprove(asset, allowee, uint(-1)) == Error.NO_ERROR, \"FAILED_LIQUIDATE_ASSET_ALLOWANCE_FAILED\");\n    }\n\n    function tokenTransferAll(address asset, address recipient) internal {\n        uint balance = getBalanceOf(asset, address(this));\n\n        if (balance > 0){\n            require(doTransferOut(asset, recipient, balance) == Error.NO_ERROR, \"FAILED_LIQUIDATE_TRANSFER_OUT_FAILED\");\n        }\n    }\n}\n",
  "sourcePath": "/Users/raghu/Alkemi/alkemi-earn-protocol/contracts/Liquidator.sol",
  "compiler": {
    "name": "solc",
    "version": "0.4.24+commit.e67f0147.Emscripten.clang"
  },
  "schemaVersion": "3.2.3",
  "updatedAt": "2021-01-15T20:47:56.372Z",
  "devdoc": {
    "methods": {}
  },
  "userdoc": {
    "methods": {}
  }
}