{
  "contractName": "PriceOracle",
  "abi": [
    {
      "constant": true,
      "inputs": [],
      "name": "anchorAdmin",
      "outputs": [
        {
          "name": "",
          "type": "address"
        }
      ],
      "payable": false,
      "stateMutability": "view",
      "type": "function"
    },
    {
      "constant": true,
      "inputs": [],
      "name": "maxSwingMantissa",
      "outputs": [
        {
          "name": "",
          "type": "uint256"
        }
      ],
      "payable": false,
      "stateMutability": "view",
      "type": "function"
    },
    {
      "constant": true,
      "inputs": [
        {
          "name": "",
          "type": "address"
        }
      ],
      "name": "_assetPrices",
      "outputs": [
        {
          "name": "mantissa",
          "type": "uint256"
        }
      ],
      "payable": false,
      "stateMutability": "view",
      "type": "function"
    },
    {
      "constant": true,
      "inputs": [],
      "name": "pendingAnchorAdmin",
      "outputs": [
        {
          "name": "",
          "type": "address"
        }
      ],
      "payable": false,
      "stateMutability": "view",
      "type": "function"
    },
    {
      "constant": true,
      "inputs": [],
      "name": "numBlocksPerPeriod",
      "outputs": [
        {
          "name": "",
          "type": "uint256"
        }
      ],
      "payable": false,
      "stateMutability": "view",
      "type": "function"
    },
    {
      "constant": true,
      "inputs": [],
      "name": "paused",
      "outputs": [
        {
          "name": "",
          "type": "bool"
        }
      ],
      "payable": false,
      "stateMutability": "view",
      "type": "function"
    },
    {
      "constant": true,
      "inputs": [
        {
          "name": "",
          "type": "address"
        }
      ],
      "name": "anchors",
      "outputs": [
        {
          "name": "period",
          "type": "uint256"
        },
        {
          "name": "priceMantissa",
          "type": "uint256"
        }
      ],
      "payable": false,
      "stateMutability": "view",
      "type": "function"
    },
    {
      "constant": true,
      "inputs": [],
      "name": "poster",
      "outputs": [
        {
          "name": "",
          "type": "address"
        }
      ],
      "payable": false,
      "stateMutability": "view",
      "type": "function"
    },
    {
      "constant": true,
      "inputs": [
        {
          "name": "",
          "type": "address"
        }
      ],
      "name": "exchangeRates",
      "outputs": [
        {
          "name": "exchangeRateModel",
          "type": "address"
        },
        {
          "name": "exchangeRate",
          "type": "uint256"
        },
        {
          "name": "maxSwingRate",
          "type": "uint256"
        },
        {
          "name": "maxSwingDuration",
          "type": "uint256"
        }
      ],
      "payable": false,
      "stateMutability": "view",
      "type": "function"
    },
    {
      "constant": true,
      "inputs": [
        {
          "name": "",
          "type": "address"
        }
      ],
      "name": "pendingAnchors",
      "outputs": [
        {
          "name": "",
          "type": "uint256"
        }
      ],
      "payable": false,
      "stateMutability": "view",
      "type": "function"
    },
    {
      "constant": true,
      "inputs": [],
      "name": "maxSwing",
      "outputs": [
        {
          "name": "mantissa",
          "type": "uint256"
        }
      ],
      "payable": false,
      "stateMutability": "view",
      "type": "function"
    },
    {
      "inputs": [
        {
          "name": "_poster",
          "type": "address"
        }
      ],
      "payable": false,
      "stateMutability": "nonpayable",
      "type": "constructor"
    },
    {
      "payable": true,
      "stateMutability": "payable",
      "type": "fallback"
    },
    {
      "anonymous": false,
      "inputs": [
        {
          "indexed": false,
          "name": "msgSender",
          "type": "address"
        },
        {
          "indexed": false,
          "name": "asset",
          "type": "address"
        },
        {
          "indexed": false,
          "name": "error",
          "type": "uint256"
        },
        {
          "indexed": false,
          "name": "info",
          "type": "uint256"
        },
        {
          "indexed": false,
          "name": "detail",
          "type": "uint256"
        }
      ],
      "name": "OracleFailure",
      "type": "event"
    },
    {
      "anonymous": false,
      "inputs": [
        {
          "indexed": false,
          "name": "anchorAdmin",
          "type": "address"
        },
        {
          "indexed": false,
          "name": "asset",
          "type": "address"
        },
        {
          "indexed": false,
          "name": "oldScaledPrice",
          "type": "uint256"
        },
        {
          "indexed": false,
          "name": "newScaledPrice",
          "type": "uint256"
        }
      ],
      "name": "NewPendingAnchor",
      "type": "event"
    },
    {
      "anonymous": false,
      "inputs": [
        {
          "indexed": false,
          "name": "asset",
          "type": "address"
        },
        {
          "indexed": false,
          "name": "exchangeRateModel",
          "type": "address"
        },
        {
          "indexed": false,
          "name": "exchangeRate",
          "type": "uint256"
        },
        {
          "indexed": false,
          "name": "maxSwingRate",
          "type": "uint256"
        },
        {
          "indexed": false,
          "name": "maxSwingDuration",
          "type": "uint256"
        }
      ],
      "name": "SetExchangeRate",
      "type": "event"
    },
    {
      "anonymous": false,
      "inputs": [
        {
          "indexed": false,
          "name": "asset",
          "type": "address"
        },
        {
          "indexed": false,
          "name": "oldMaxSwingRate",
          "type": "uint256"
        },
        {
          "indexed": false,
          "name": "newMaxSwingRate",
          "type": "uint256"
        },
        {
          "indexed": false,
          "name": "maxSwingDuration",
          "type": "uint256"
        }
      ],
      "name": "SetMaxSwingRate",
      "type": "event"
    },
    {
      "anonymous": false,
      "inputs": [
        {
          "indexed": false,
          "name": "asset",
          "type": "address"
        },
        {
          "indexed": false,
          "name": "previousPriceMantissa",
          "type": "uint256"
        },
        {
          "indexed": false,
          "name": "requestedPriceMantissa",
          "type": "uint256"
        },
        {
          "indexed": false,
          "name": "newPriceMantissa",
          "type": "uint256"
        }
      ],
      "name": "PricePosted",
      "type": "event"
    },
    {
      "anonymous": false,
      "inputs": [
        {
          "indexed": false,
          "name": "asset",
          "type": "address"
        },
        {
          "indexed": false,
          "name": "requestedPriceMantissa",
          "type": "uint256"
        },
        {
          "indexed": false,
          "name": "anchorPriceMantissa",
          "type": "uint256"
        },
        {
          "indexed": false,
          "name": "cappedPriceMantissa",
          "type": "uint256"
        }
      ],
      "name": "CappedPricePosted",
      "type": "event"
    },
    {
      "anonymous": false,
      "inputs": [
        {
          "indexed": false,
          "name": "newState",
          "type": "bool"
        }
      ],
      "name": "SetPaused",
      "type": "event"
    },
    {
      "anonymous": false,
      "inputs": [
        {
          "indexed": false,
          "name": "oldPendingAnchorAdmin",
          "type": "address"
        },
        {
          "indexed": false,
          "name": "newPendingAnchorAdmin",
          "type": "address"
        }
      ],
      "name": "NewPendingAnchorAdmin",
      "type": "event"
    },
    {
      "anonymous": false,
      "inputs": [
        {
          "indexed": false,
          "name": "oldAnchorAdmin",
          "type": "address"
        },
        {
          "indexed": false,
          "name": "newAnchorAdmin",
          "type": "address"
        }
      ],
      "name": "NewAnchorAdmin",
      "type": "event"
    },
    {
      "anonymous": false,
      "inputs": [
        {
          "indexed": false,
          "name": "oldPoster",
          "type": "address"
        },
        {
          "indexed": false,
          "name": "newPoster",
          "type": "address"
        }
      ],
      "name": "NewPoster",
      "type": "event"
    },
    {
      "anonymous": false,
      "inputs": [
        {
          "indexed": false,
          "name": "error",
          "type": "uint256"
        },
        {
          "indexed": false,
          "name": "info",
          "type": "uint256"
        },
        {
          "indexed": false,
          "name": "detail",
          "type": "uint256"
        }
      ],
      "name": "Failure",
      "type": "event"
    },
    {
      "constant": false,
      "inputs": [
        {
          "name": "asset",
          "type": "address"
        },
        {
          "name": "newScaledPrice",
          "type": "uint256"
        }
      ],
      "name": "_setPendingAnchor",
      "outputs": [
        {
          "name": "",
          "type": "uint256"
        }
      ],
      "payable": false,
      "stateMutability": "nonpayable",
      "type": "function"
    },
    {
      "constant": false,
      "inputs": [
        {
          "name": "requestedState",
          "type": "bool"
        }
      ],
      "name": "_setPaused",
      "outputs": [
        {
          "name": "",
          "type": "uint256"
        }
      ],
      "payable": false,
      "stateMutability": "nonpayable",
      "type": "function"
    },
    {
      "constant": false,
      "inputs": [
        {
          "name": "newPendingAnchorAdmin",
          "type": "address"
        }
      ],
      "name": "_setPendingAnchorAdmin",
      "outputs": [
        {
          "name": "",
          "type": "uint256"
        }
      ],
      "payable": false,
      "stateMutability": "nonpayable",
      "type": "function"
    },
    {
      "constant": false,
      "inputs": [],
      "name": "_acceptAnchorAdmin",
      "outputs": [
        {
          "name": "",
          "type": "uint256"
        }
      ],
      "payable": false,
      "stateMutability": "nonpayable",
      "type": "function"
    },
    {
      "constant": false,
      "inputs": [
        {
          "name": "newPoster",
          "type": "address"
        }
      ],
      "name": "_setPoster",
      "outputs": [
        {
          "name": "",
          "type": "uint256"
        }
      ],
      "payable": false,
      "stateMutability": "nonpayable",
      "type": "function"
    },
    {
      "constant": false,
      "inputs": [
        {
          "name": "asset",
          "type": "address"
        },
        {
          "name": "exchangeRateModel",
          "type": "address"
        },
        {
          "name": "maxSwingDuration",
          "type": "uint256"
        }
      ],
      "name": "setExchangeRate",
      "outputs": [
        {
          "name": "",
          "type": "uint256"
        }
      ],
      "payable": false,
      "stateMutability": "nonpayable",
      "type": "function"
    },
    {
      "constant": false,
      "inputs": [
        {
          "name": "asset",
          "type": "address"
        },
        {
          "name": "maxSwingDuration",
          "type": "uint256"
        }
      ],
      "name": "setMaxSwingRate",
      "outputs": [
        {
          "name": "",
          "type": "uint256"
        }
      ],
      "payable": false,
      "stateMutability": "nonpayable",
      "type": "function"
    },
    {
      "constant": true,
      "inputs": [
        {
          "name": "asset",
          "type": "address"
        }
      ],
      "name": "assetPrices",
      "outputs": [
        {
          "name": "",
          "type": "uint256"
        }
      ],
      "payable": false,
      "stateMutability": "view",
      "type": "function"
    },
    {
      "constant": true,
      "inputs": [
        {
          "name": "asset",
          "type": "address"
        }
      ],
      "name": "getPrice",
      "outputs": [
        {
          "name": "",
          "type": "uint256"
        }
      ],
      "payable": false,
      "stateMutability": "view",
      "type": "function"
    },
    {
      "constant": false,
      "inputs": [
        {
          "name": "asset",
          "type": "address"
        },
        {
          "name": "requestedPriceMantissa",
          "type": "uint256"
        }
      ],
      "name": "setPrice",
      "outputs": [
        {
          "name": "",
          "type": "uint256"
        }
      ],
      "payable": false,
      "stateMutability": "nonpayable",
      "type": "function"
    },
    {
      "constant": false,
      "inputs": [
        {
          "name": "assets",
          "type": "address[]"
        },
        {
          "name": "requestedPriceMantissas",
          "type": "uint256[]"
        }
      ],
      "name": "setPrices",
      "outputs": [
        {
          "name": "",
          "type": "uint256[]"
        }
      ],
      "payable": false,
      "stateMutability": "nonpayable",
      "type": "function"
    }
  ],
  "bytecode": "0x608060405234801561001057600080fd5b5060405160208061227883398101604081815291516003805433600160a060020a03199182161790915560058054909116600160a060020a039092169190911790556020810190915267016345785d8a000090819052600655612200806100786000396000f30060806040526004361061010d5763ffffffff60e060020a600035041662e4768b811461011257806308f31857146101485780630c9c630114610179578063183f34441461018e57806326617c28146101af57806341976e09146101c95780634352fa9f146101ea578063451b1e3a146102c8578063485feabe146102dd5780635c975abb146102f25780635d4968181461031b5780635e9a523c1461033c578063692374e31461035d578063782aaeea1461039757806380959721146103c157806385c15d9a146103d65780639964622c146104275780639e8c4d9514610448578063c5faf1d514610469578063c9d508921461047e578063ccb13cbd146104a2578063de9d0e85146104b7575b600080fd5b34801561011e57600080fd5b50610136600160a060020a03600435166024356104db565b60408051918252519081900360200190f35b34801561015457600080fd5b5061015d610517565b60408051600160a060020a039092168252519081900360200190f35b34801561018557600080fd5b50610136610526565b34801561019a57600080fd5b50610136600160a060020a0360043516610532565b3480156101bb57600080fd5b506101366004351515610544565b3480156101d557600080fd5b50610136600160a060020a03600435166105bc565b3480156101f657600080fd5b506040805160206004803580820135838102808601850190965280855261027895369593946024949385019291829185019084908082843750506040805187358901803560208181028481018201909552818452989b9a9989019892975090820195509350839250850190849080828437509497506105c79650505050505050565b60408051602080825283518183015283519192839290830191858101910280838360005b838110156102b457818101518382015260200161029c565b505050509050019250505060405180910390f35b3480156102d457600080fd5b5061015d610718565b3480156102e957600080fd5b50610136610727565b3480156102fe57600080fd5b5061030761072c565b604080519115158252519081900360200190f35b34801561032757600080fd5b50610136600160a060020a0360043516610735565b34801561034857600080fd5b50610136600160a060020a03600435166107f2565b34801561036957600080fd5b5061037e600160a060020a0360043516610a4b565b6040805192835260208301919091528051918290030190f35b3480156103a357600080fd5b50610136600160a060020a0360043581169060243516604435610a64565b3480156103cd57600080fd5b5061015d610f03565b3480156103e257600080fd5b506103f7600160a060020a0360043516610f12565b60408051600160a060020a0390951685526020850193909352838301919091526060830152519081900360800190f35b34801561043357600080fd5b50610136600160a060020a0360043516610f46565b34801561045457600080fd5b50610136600160a060020a0360043516610fdf565b34801561047557600080fd5b50610136610ff1565b34801561048a57600080fd5b50610136600160a060020a0360043516602435610ff7565b3480156104ae57600080fd5b506101366113bc565b3480156104c357600080fd5b50610136600160a060020a0360043516602435611466565b600554600090600160a060020a03163314610504576104fd8360016008611505565b9050610511565b61050e838361158e565b90505b92915050565b600354600160a060020a031681565b67016345785d8a000081565b60026020526000908152604090205481565b600354600090600160a060020a0316331461056d576105666000600180611505565b90506105b7565b6000805483151560ff19909116811790915560408051918252517f3c70af01296aef045b2f5c9d3c30b05d4428fd257145b9c7fcd76418e65b59809181900360200190a160005b90505b919050565b60006105b4826107f2565b8151815160055460609291908390600090600160a060020a03163314610638576040805160018082528183019092529060208083019080388339019050509150610615600060016008611505565b82600081518110151561062457fe5b60209081029091010152909350839061070e565b8315806106455750838314155b1561067857604080516001808252818301909252906020808301908038833901905050915061061560006002600a611505565b836040519080825280602002602001820160405280156106a2578160200160208202803883390190505b509150600090505b8381101561070a576106ea87828151811015156106c357fe5b9060200190602002015187838151811015156106db57fe5b9060200190602002015161158e565b82828151811015156106f857fe5b602090810290910101526001016106aa565b8194505b5050505092915050565b600454600160a060020a031681565b60f081565b60005460ff1681565b6005546000908190600160a060020a038481169116141561075257fe5b600354600160a060020a0316331461077957610772600060016002611505565b91506107ec565b5060058054600160a060020a0384811673ffffffffffffffffffffffffffffffffffffffff19831681179093556040805191909216808252602082019390935281517fd8209502cb6dab3843acd5ce51ae027a6f3488c57c2d4aedac2d94501dfcfc8d929181900390910190a160005b91505b50919050565b60006107fc612136565b60008054819081908190819060ff16156108195760009650610a40565b600160a060020a03808916600090815260016020818152604092839020835160808101855281549095168086529281015491850191909152600281015492840192909252600390910154606083015290965015610a24578560000151600160a060020a031663f51e181a6040518163ffffffff1660e060020a028152600401602060405180830381600087803b1580156108b257600080fd5b505af11580156108c6573d6000803e3d6000fd5b505050506040513d60208110156108dc57600080fd5b50518651604080517fe6aa216c0000000000000000000000000000000000000000000000000000000081529051929750600160a060020a039091169163e6aa216c916004808201926020929091908290030181600087803b15801561094057600080fd5b505af1158015610954573d6000803e3d6000fd5b505050506040513d602081101561096a57600080fd5b505193506109788486611b66565b93509150600082602181111561098a57fe5b146109985760009650610a40565b8560200151838115156109a757fe5b04925085602001518410806109bf5750856040015183115b156109cd5760009650610a40565b600160a060020a0388166000908152600260205260409020546109f09085611b66565b90925090506000826021811115610a0357fe5b14610a115760009650610a40565b8481811515610a1c57fe5b049650610a40565b600160a060020a03881660009081526002602052604090205496505b505050505050919050565b6007602052600090815260409020805460019091015482565b60035460009081908190600160a060020a03163314610a9157610a8a8660016008611505565b9250610efa565b600160a060020a0385161515610b17576040805160e560020a62461bcd02815260206004820152603c60248201527f73657445786368616e6765526174653a2065786368616e6765526174654d6f6460448201527f656c2063616e6e6f742062652061207a65726f20616464726573732e00000000606482015290519081900360840190fd5b600084118015610b2a575062093a808411155b1515610bcc576040805160e560020a62461bcd02815260206004820152605860248201527f73657445786368616e6765526174653a206d61785377696e674475726174696f60448201527f6e2063616e6e6f74206265207a65726f2c206c657373207468616e203331353360648201527f3630303020287365636f6e647320706572207765656b292e0000000000000000608482015290519081900360a40190fd5b84600160a060020a031663e6aa216c6040518163ffffffff1660e060020a028152600401602060405180830381600087803b158015610c0a57600080fd5b505af1158015610c1e573d6000803e3d6000fd5b505050506040513d6020811015610c3457600080fd5b5051915060008211610cb6576040805160e560020a62461bcd02815260206004820152602e60248201527f73657445786368616e6765526174653a2063757272656e7445786368616e676560448201527f52617465206e6f74207a65726f2e000000000000000000000000000000000000606482015290519081900360840190fd5b84600160a060020a03166316b09af3856040518263ffffffff1660e060020a02815260040180828152602001915050602060405180830381600087803b158015610cff57600080fd5b505af1158015610d13573d6000803e3d6000fd5b505050506040513d6020811015610d2957600080fd5b50519050600081118015610db4575084600160a060020a03166316b09af362093a806040518263ffffffff1660e060020a02815260040180828152602001915050602060405180830381600087803b158015610d8457600080fd5b505af1158015610d98573d6000803e3d6000fd5b505050506040513d6020811015610dae57600080fd5b50518111155b1515610e56576040805160e560020a62461bcd02815260206004820152605460248201527f73657445786368616e6765526174653a206d61785377696e675261746520636160448201527f6e6e6f74206265207a65726f2c206c657373207468616e20333135333630303060648201527f20287365636f6e647320706572207765656b292e000000000000000000000000608482015290519081900360a40190fd5b600160a060020a038087166000818152600160208181526040928390208054958b1673ffffffffffffffffffffffffffffffffffffffff19909616861781559182018790556002820186905560039091018890558151928352820192909252808201849052606081018390526080810186905290517f8f040edee3352bd667ecb467e130dd5c5f9cdf6db626ea8dcaf4ff0a1fcbb7879181900360a00190a1600092505b50509392505050565b600554600160a060020a031681565b60016020819052600091825260409091208054918101546002820154600390920154600160a060020a039093169290919084565b6003546000908190600160a060020a03163314610f6b57610772600060016002611505565b5060048054600160a060020a0384811673ffffffffffffffffffffffffffffffffffffffff19831681179093556040805191909216808252602082019390935281517f6c773973d5bcf264b509f4194ceb99e891251f6aabb325523a863c282958b13e929181900390910190a160006107e9565b60086020526000908152604090205481565b60065481565b600354600090819081908190600160a060020a031633146110265761101f8660016008611505565b93506113b3565b600085118015611039575062093a808511155b15156110db576040805160e560020a62461bcd02815260206004820152605860248201527f7365744d61785377696e67526174653a206d61785377696e674475726174696f60448201527f6e2063616e6e6f74206265207a65726f2c206c657373207468616e203331353360648201527f3630303020287365636f6e647320706572207765656b292e0000000000000000608482015290519081900360a40190fd5b600160a060020a0380871660009081526001602090815260408083205481517f16b09af3000000000000000000000000000000000000000000000000000000008152600481018b905291519416965086936316b09af393602480840194938390030190829087803b15801561114f57600080fd5b505af1158015611163573d6000803e3d6000fd5b505050506040513d602081101561117957600080fd5b5051600160a060020a03871660009081526001602052604090206002015490925090508082141561121a576040805160e560020a62461bcd02815260206004820152603760248201527f7365744d61785377696e67526174653a204f6c6420616e64206e65772076616c60448201527f7565732063616e6e6f74206265207468652073616d652e000000000000000000606482015290519081900360840190fd5b6000821180156112a1575082600160a060020a03166316b09af362093a806040518263ffffffff1660e060020a02815260040180828152602001915050602060405180830381600087803b15801561127157600080fd5b505af1158015611285573d6000803e3d6000fd5b505050506040513d602081101561129b57600080fd5b50518211155b1515611343576040805160e560020a62461bcd02815260206004820152605460248201527f7365744d61785377696e67526174653a206d61785377696e675261746520636160448201527f6e6e6f74206265207a65726f2c206c657373207468616e20333135333630303060648201527f20287365636f6e647320706572207765656b292e000000000000000000000000608482015290519081900360a40190fd5b600160a060020a038616600081815260016020908152604091829020600281018690556003018890558151928352820183905281810184905260608201879052517f83aca13f288f7821e1417b0ba093f7efd9a1ed6dc3036ddbfcd09f54c78a81049181900360800190a1600093505b50505092915050565b6004546000908190600160a060020a031633146113e8576113e1600060016000611505565b9150611462565b50600380546004805473ffffffffffffffffffffffffffffffffffffffff19808416600160a060020a03838116919091179095551690556040805192909116808352336020840152815190927fbef9248fe57ae972dd47833f68c43f0b3b2d14217612dfbc804a520a23730d4692908290030190a1600091505b5090565b6003546000908190600160a060020a031633146114915761148a8460016003611505565b91506114fe565b50600160a060020a0383166000818152600860209081526040918290208054908690558251338152918201939093528082018390526060810185905290517ff0aa20c29c1f8e751bfe0a78bc49a520ed14f2dab274087d90d1341d8b76af5c9181900360800190a1600091505b5092915050565b60007f96f29b65cebbd6816352fb242b6af7180b49e8a09e19e589225d35bc8444f0b7338585600281111561153657fe5b85600b81111561154257fe5b60408051600160a060020a0395861681529390941660208401528284019190915260608201526000608082015290519081900360a00190a182600281111561158657fe5b949350505050565b600080611599612168565b600080808060f0430460019081016080870152600160a060020a038a811660008181526008602090815260408083205460e08c0152805180830182528e81528b529282529390935290912054161561185057600160a060020a03808a1660009081526001602090815260408083205481517fe6aa216c000000000000000000000000000000000000000000000000000000008152915194169363e6aa216c93600480840194938390030190829087803b15801561165557600080fd5b505af1158015611669573d6000803e3d6000fd5b505050506040513d602081101561167f57600080fd5b5051600160a060020a03808b1660009081526001602090815260408083205481517ff51e181a00000000000000000000000000000000000000000000000000000000815291519599509093169363f51e181a93600480820194918390030190829087803b1580156116ef57600080fd5b505af1158015611703573d6000803e3d6000fd5b505050506040513d602081101561171957600080fd5b505192506117278484611b66565b9096509150600086602181111561173a57fe5b1461174157fe5b600160a060020a038916600090815260016020819052604090912001548281151561176857fe5b600160a060020a038b1660009081526001602081905260409091200154919004925084108015906117b45750600160a060020a0389166000908152600160205260409020600201548211155b1515611830576040805160e560020a62461bcd02815260206004820152602960248201527f7365745072696365496e7465726e616c3a2041626e6f726d616c20657863686160448201527f6e676520726174652e0000000000000000000000000000000000000000000000606482015290519081900360840190fd5b600160a060020a0389166000908152600160208190526040909120018490555b60e0850151156118fb57600060608601526040805160208101825260e0870151815290860181905285516118849190611bb0565b60208701529550600086602181111561189957fe5b146118be576118b789600260048960218111156118b257fe5b611c35565b9650611b5a565b60208086015160408051928301905260065482526118db91611cbf565b156118f6576118b78960026006886020015160000151611c35565b6119b2565b600160a060020a0389166000818152600760208181526040808420805460608c01908152825180850184529690955292909152600190910154835287019190915251156119a05761195485604001518660000151611cc6565b8752151560a08701529550600086602181111561196d57fe5b14611986576118b789600260058960218111156118b257fe5b8460a00151156118f65760408501515160c08601526119b2565b60408051602081018252898152908601525b6119bf8560400151611e69565b156119d1576118b78960026007611505565b84516119dc90611e69565b156119ee576118b78960026009611505565b600160a060020a03891660009081526008602052604090205415611a2657600160a060020a0389166000908152600860205260408120555b846060015185608001511115611a7657604080518082018252608087015181528651516020808301918252600160a060020a038d1660009081526007909152929092209051815590516001909101555b50600160a060020a038816600090815260026020526040902054845151611a9e908a90611e6e565b84515160408051600160a060020a038c168152602081018490528082018b90526060810192909252517fdd71a1d19fcba687442a1d5c58578f1e409af71a79d10fd95a4d66efd8fa9ae79181900360800190a18460a0015115611b555760c085015185515160408051600160a060020a038d168152602081018c9052808201939093526060830191909152517f7221f7a2708437039cc63319145b6b873a40594b9782a3bee45b975e2f3b0f689181900360800190a15b600096505b50505050505092915050565b60008080841515611b7d5760009250829150611ba8565b50838302838582811515611b8d57fe5b0414611ba0576003925060009150611ba8565b600081925092505b509250929050565b6000611bba6121c2565b611bc26121c2565b6000611bce8686611cbf565b15611bfb57611bdd8686611e99565b925090506000816021811115611bef57fe5b14611bf657fe5b611c1e565b611c058587611e99565b925090506000816021811115611c1757fe5b14611c1e57fe5b611c288287611ed3565b9350935050509250929050565b60007f96f29b65cebbd6816352fb242b6af7180b49e8a09e19e589225d35bc8444f0b73386866002811115611c6657fe5b86600b811115611c7257fe5b60408051600160a060020a0395861681529390941660208401528284019190915260608201526080810185905290519081900360a00190a1836002811115611cb657fe5b95945050505050565b5190511190565b600080611cd16121c2565b611cd96121c2565b611ce16121c2565b611ce96121c2565b611cf16121c2565b611cf96121c2565b6040805160208181018352670de0b6b3a76400008252825190810190925260065482529550600090611d2c908790611ef7565b955090506000816021811115611d3e57fe5b14611d615760408051602081019091526000808252919950909750955087611e5c565b611d6b8b86611f16565b935090506000816021811115611d7d57fe5b14611da05760408051602081019091526000808252919950909750955087611e5c565b611daa8a84611cbf565b15611dbf576000600184985098509850611e5c565b60408051602081019091526006548152611dda908790611e99565b945090506000816021811115611dec57fe5b14611e0f5760408051602081019091526000808252919950909750955087611e5c565b611e198b85611f16565b925090506000816021811115611e2b57fe5b14611e3257fe5b611e3c8a83612003565b15611e51576000600183985098509850611e5c565b6000808b9850985098505b5050505050509250925092565b511590565b6040805160208181018352928152600160a060020a0390931660009081526002909252902090519055565b6000611ea36121c2565b600080611eb88660000151866000015161200a565b60408051602081019091529081529097909650945050505050565b6000611edd6121c2565b83518351611eeb919061202d565b915091505b9250929050565b6000611f016121c2565b600080611eb8866000015186600001516120e1565b6000611f206121c2565b600080600080600080611f3b8a600001518a60000151611b66565b90965094506000866021811115611f4e57fe5b14611f6f576040805160208101909152600081529597509495508694611ff6565b611f816706f05b59d3b20000866120e1565b90945092506000846021811115611f9457fe5b14611fb5576040805160208101909152600081529397509295508692611ff6565b611fc783670de0b6b3a7640000612107565b90925090506000826021811115611fda57fe5b14611fe157fe5b60408051602081019091528181526000985096505b5050505050509250929050565b5190511090565b600080838311612021575060009050818303611ef0565b50600490506000611ef0565b60006120376121c2565b60008060008061204f88670de0b6b3a7640000611b66565b9094509250600084602181111561206257fe5b146120835760408051602081019091526000815293955092935084926120d6565b61208d8388612107565b909250905060008260218111156120a057fe5b146120c15760408051602081019091526000815291955090935084906120d6565b60408051602081019091528181526000965094505b505050509250929050565b6000808383018481106120fa5760008192509250611ba8565b6003925060009150611ba8565b60008082151561211d5750600590506000611ef0565b6000838581151561212a57fe5b04915091509250929050565b6080604051908101604052806000600160a060020a031681526020016000815260200160008152602001600081525090565b6101006040519081016040528061217d6121c2565b815260200161218a6121c2565b81526020016121976121c2565b8152602001600081526020016000815260200160001515815260200160008152602001600081525090565b604080516020810190915260008152905600a165627a7a723058206f2c53d931daf6eb0a95a95bde8c3dd60a3f2fece9632599606f6e00d48dd5960029",
  "source": "pragma solidity ^0.4.24;\n\nimport \"./Exponential.sol\";\n\ncontract ExchangeRateModel {\n    function scale() external view returns (uint);\n    function getExchangeRate() external view returns (uint);\n    function getMaxSwingRate(uint interval) external view returns (uint);\n    function getFixedInterestRate(uint interval) external view returns (uint);\n    function getFixedExchangeRate(uint interval) public view returns (uint);\n}\n\ncontract PriceOracle is Exponential {\n\n    /**\n     * @dev flag for whether or not contract is paused\n     *\n     */\n    bool public paused;\n\n    uint public constant numBlocksPerPeriod = 240; // approximately 1 hour: 60 seconds/minute * 60 minutes/hour * 1 block/15 seconds\n\n    uint public constant maxSwingMantissa = (10 ** 17); // 0.1\n\n    /**\n     * @dev Mapping of asset addresses to exchange rate information. Dynamic changes in asset prices based on exchange rates.\n     *\n     * map: assetAddress -> ExchangeRateInfo\n     */\n    struct ExchangeRateInfo {\n        address exchangeRateModel;\n        uint exchangeRate;\n        uint maxSwingRate;\n        uint maxSwingDuration;\n    }\n    mapping(address => ExchangeRateInfo) public exchangeRates;\n\n    /**\n     * @dev Mapping of asset addresses and their corresponding price in terms of Eth-Wei\n     *      which is simply equal to AssetWeiPrice * 10e18. For instance, if OMG token was\n     *      worth 5x Eth then the price for OMG would be 5*10e18 or Exp({mantissa: 5000000000000000000}).\n     * map: assetAddress -> Exp\n     */\n    mapping(address => Exp) public _assetPrices;\n\n    constructor(address _poster) public {\n        anchorAdmin = msg.sender;\n        poster = _poster;\n        maxSwing = Exp({mantissa : maxSwingMantissa});\n    }\n\n    /**\n     * @notice Do not pay into PriceOracle\n     */\n    function() payable public {\n        revert();\n    }\n\n    enum OracleError {\n        NO_ERROR,\n        UNAUTHORIZED,\n        FAILED_TO_SET_PRICE\n    }\n\n    enum OracleFailureInfo {\n        ACCEPT_ANCHOR_ADMIN_PENDING_ANCHOR_ADMIN_CHECK,\n        SET_PAUSED_OWNER_CHECK,\n        SET_PENDING_ANCHOR_ADMIN_OWNER_CHECK,\n        SET_PENDING_ANCHOR_PERMISSION_CHECK,\n        SET_PRICE_CALCULATE_SWING,\n        SET_PRICE_CAP_TO_MAX,\n        SET_PRICE_MAX_SWING_CHECK,\n        SET_PRICE_NO_ANCHOR_PRICE_OR_INITIAL_PRICE_ZERO,\n        SET_PRICE_PERMISSION_CHECK,\n        SET_PRICE_ZERO_PRICE,\n        SET_PRICES_PARAM_VALIDATION,\n        SET_PRICE_IS_READER_ASSET\n    }\n\n    /**\n     * @dev `msgSender` is msg.sender; `error` corresponds to enum OracleError; `info` corresponds to enum OracleFailureInfo, and `detail` is an arbitrary\n     * contract-specific code that enables us to report opaque error codes from upgradeable contracts.\n     */\n    event OracleFailure(address msgSender, address asset, uint error, uint info, uint detail);\n\n    /**\n     * @dev use this when reporting a known error from the price oracle or a non-upgradeable collaborator\n     *      Using Oracle in name because we already inherit a `fail` function from ErrorReporter.sol via Exponential.sol\n     */\n    function failOracle(address asset, OracleError err, OracleFailureInfo info) internal returns (uint) {\n        emit OracleFailure(msg.sender, asset, uint(err), uint(info), 0);\n\n        return uint(err);\n    }\n\n    /**\n     * @dev Use this when reporting an error from the money market. Give the money market result as `details`\n     */\n    function failOracleWithDetails(address asset, OracleError err, OracleFailureInfo info, uint details) internal returns (uint) {\n        emit OracleFailure(msg.sender, asset, uint(err), uint(info), details);\n\n        return uint(err);\n    }\n\n    /**\n     * @dev An administrator who can set the pending anchor value for assets.\n     *      Set in the constructor.\n     */\n    address public anchorAdmin;\n\n    /**\n     * @dev pending anchor administrator for this contract.\n     */\n    address public pendingAnchorAdmin;\n\n    /**\n     * @dev Address of the price poster.\n     *      Set in the constructor.\n     */\n    address public poster;\n\n    /**\n     * @dev maxSwing the maximum allowed percentage difference between a new price and the anchor's price\n     *      Set only in the constructor\n     */\n    Exp public maxSwing;\n\n    struct Anchor {\n        // floor(block.number / numBlocksPerPeriod) + 1\n        uint period;\n\n        // Price in ETH, scaled by 10**18\n        uint priceMantissa;\n    }\n\n    /**\n     * @dev anchors by asset\n     */\n    mapping(address => Anchor) public anchors;\n\n    /**\n     * @dev pending anchor prices by asset\n     */\n    mapping(address => uint) public pendingAnchors;\n\n    /**\n     * @dev emitted when a pending anchor is set\n     * @param asset Asset for which to set a pending anchor\n     * @param oldScaledPrice if an unused pending anchor was present, its value; otherwise 0.\n     * @param newScaledPrice the new scaled pending anchor price\n     */\n    event NewPendingAnchor(address anchorAdmin, address asset, uint oldScaledPrice, uint newScaledPrice);\n\n    /**\n     * @notice provides ability to override the anchor price for an asset\n     * @dev Admin function to set the anchor price for an asset\n     * @param asset Asset for which to override the anchor price\n     * @param newScaledPrice New anchor price\n     * @return uint 0=success, otherwise a failure (see enum OracleError for details)\n     */\n    function _setPendingAnchor(address asset, uint newScaledPrice) public returns (uint) {\n        // Check caller = anchorAdmin. Note: Deliberately not allowing admin. They can just change anchorAdmin if desired.\n        if (msg.sender != anchorAdmin) {\n            return failOracle(asset, OracleError.UNAUTHORIZED, OracleFailureInfo.SET_PENDING_ANCHOR_PERMISSION_CHECK);\n        }\n\n        uint oldScaledPrice = pendingAnchors[asset];\n        pendingAnchors[asset] = newScaledPrice;\n\n        emit NewPendingAnchor(msg.sender, asset, oldScaledPrice, newScaledPrice);\n\n        return uint(OracleError.NO_ERROR);\n    }\n\n    /**\n     * @dev emitted for all exchangeRates changes\n     */\n    event SetExchangeRate(address asset, address exchangeRateModel, uint exchangeRate, uint maxSwingRate, uint maxSwingDuration);\n    event SetMaxSwingRate(address asset, uint oldMaxSwingRate, uint newMaxSwingRate, uint maxSwingDuration);\n\n    /**\n     * @dev emitted for all price changes\n     */\n    event PricePosted(address asset, uint previousPriceMantissa, uint requestedPriceMantissa, uint newPriceMantissa);\n\n    /**\n     * @dev emitted if this contract successfully posts a capped-to-max price to the money market\n     */\n    event CappedPricePosted(address asset, uint requestedPriceMantissa, uint anchorPriceMantissa, uint cappedPriceMantissa);\n\n    /**\n     * @dev emitted when admin either pauses or resumes the contract; newState is the resulting state\n     */\n    event SetPaused(bool newState);\n\n    /**\n     * @dev emitted when pendingAnchorAdmin is changed\n     */\n    event NewPendingAnchorAdmin(address oldPendingAnchorAdmin, address newPendingAnchorAdmin);\n\n    /**\n     * @dev emitted when pendingAnchorAdmin is accepted, which means anchor admin is updated\n     */\n    event NewAnchorAdmin(address oldAnchorAdmin, address newAnchorAdmin);\n\n    /**\n     * @dev emitted when poster is changed\n     */\n    event NewPoster(address oldPoster, address newPoster);\n\n    /**\n     * @notice set `paused` to the specified state\n     * @dev Admin function to pause or resume the market\n     * @param requestedState value to assign to `paused`\n     * @return uint 0=success, otherwise a failure\n     */\n    function _setPaused(bool requestedState) public returns (uint) {\n        // Check caller = anchorAdmin\n        if (msg.sender != anchorAdmin) {\n            return failOracle(0, OracleError.UNAUTHORIZED, OracleFailureInfo.SET_PAUSED_OWNER_CHECK);\n        }\n\n        paused = requestedState;\n        emit SetPaused(requestedState);\n\n        return uint(Error.NO_ERROR);\n    }\n\n    /**\n     * @notice Begins transfer of anchor admin rights. The newPendingAnchorAdmin must call `_acceptAnchorAdmin` to finalize the transfer.\n     * @dev Admin function to begin change of anchor admin. The newPendingAnchorAdmin must call `_acceptAnchorAdmin` to finalize the transfer.\n     * @param newPendingAnchorAdmin New pending anchor admin.\n     * @return uint 0=success, otherwise a failure\n     *\n     * TODO: Should we add a second arg to verify, like a checksum of `newAnchorAdmin` address?\n     */\n    function _setPendingAnchorAdmin(address newPendingAnchorAdmin) public returns (uint) {\n        // Check caller = anchorAdmin\n        if (msg.sender != anchorAdmin) {\n            return failOracle(0, OracleError.UNAUTHORIZED, OracleFailureInfo.SET_PENDING_ANCHOR_ADMIN_OWNER_CHECK);\n        }\n\n        // save current value, if any, for inclusion in log\n        address oldPendingAnchorAdmin = pendingAnchorAdmin;\n        // Store pendingAdmin = newPendingAdmin\n        pendingAnchorAdmin = newPendingAnchorAdmin;\n\n        emit NewPendingAnchorAdmin(oldPendingAnchorAdmin, newPendingAnchorAdmin);\n\n        return uint(Error.NO_ERROR);\n    }\n\n    /**\n     * @notice Accepts transfer of anchor admin rights. msg.sender must be pendingAnchorAdmin\n     * @dev Admin function for pending anchor admin to accept role and update anchor admin\n     * @return uint 0=success, otherwise a failure\n     */\n    function _acceptAnchorAdmin() public returns (uint) {\n        // Check caller = pendingAnchorAdmin\n        // msg.sender can't be zero\n        if (msg.sender != pendingAnchorAdmin) {\n            return failOracle(0, OracleError.UNAUTHORIZED, OracleFailureInfo.ACCEPT_ANCHOR_ADMIN_PENDING_ANCHOR_ADMIN_CHECK);\n        }\n\n        // Save current value for inclusion in log\n        address oldAnchorAdmin = anchorAdmin;\n        // Store admin = pendingAnchorAdmin\n        anchorAdmin = pendingAnchorAdmin;\n        // Clear the pending value\n        pendingAnchorAdmin = 0;\n\n        emit NewAnchorAdmin(oldAnchorAdmin, msg.sender);\n\n        return uint(Error.NO_ERROR);\n    }\n\n    /**\n     * @notice Set new poster.\n     * @dev Admin function to change of poster.\n     * @param newPoster New poster.\n     * @return uint 0=success, otherwise a failure\n     *\n     * TODO: Should we add a second arg to verify, like a checksum of `newAnchorAdmin` address?\n     */\n    function _setPoster(address newPoster) public returns (uint) {\n        assert(poster != newPoster);\n        // Check caller = anchorAdmin\n        if (msg.sender != anchorAdmin) {\n            return failOracle(0, OracleError.UNAUTHORIZED, OracleFailureInfo.SET_PENDING_ANCHOR_ADMIN_OWNER_CHECK);\n        }\n\n        // save current value, if any, for inclusion in log\n        address oldPoster = poster;\n        // Store poster = newPoster\n        poster = newPoster;\n\n        emit NewPoster(oldPoster, newPoster);\n\n        return uint(Error.NO_ERROR);\n    }\n\n    /**\n     * @notice set new exchange rate model\n     * @dev function to set exchangeRateModel for an asset\n     * @param asset asset for which to set the exchangeRateModel\n     * @param exchangeRateModel exchangeRateModel address, if the exchangeRateModel is address(0), cancel the exchangeRates\n     * @param maxSwingDuration maxSwingDuration uint, Is a value greater than zero and less than a second of a week\n     * @return uint 0=success, otherwise a failure (see enum OracleError for details)\n     */\n    function setExchangeRate(address asset, address exchangeRateModel, uint maxSwingDuration) public returns (uint) {\n\n        // Fail when msg.sender is not poster\n        if (msg.sender != anchorAdmin) {\n            return failOracle(asset, OracleError.UNAUTHORIZED, OracleFailureInfo.SET_PRICE_PERMISSION_CHECK);\n        }\n\n        require(exchangeRateModel != address(0), \"setExchangeRate: exchangeRateModel cannot be a zero address.\");\n        require(\n            maxSwingDuration > 0 && maxSwingDuration <= 604800,\n            \"setExchangeRate: maxSwingDuration cannot be zero, less than 31536000 (seconds per week).\"\n        );\n\n        uint currentExchangeRate = ExchangeRateModel(exchangeRateModel).getExchangeRate();\n        require(currentExchangeRate > 0, \"setExchangeRate: currentExchangeRate not zero.\");\n\n        uint maxSwingRate = ExchangeRateModel(exchangeRateModel).getMaxSwingRate(maxSwingDuration);\n        require(\n            maxSwingRate > 0 && maxSwingRate <= ExchangeRateModel(exchangeRateModel).getMaxSwingRate(604800),\n            \"setExchangeRate: maxSwingRate cannot be zero, less than 31536000 (seconds per week).\"\n        );\n\n        exchangeRates[asset].exchangeRateModel = exchangeRateModel;\n        exchangeRates[asset].exchangeRate = currentExchangeRate;\n        exchangeRates[asset].maxSwingRate = maxSwingRate;\n        exchangeRates[asset].maxSwingDuration = maxSwingDuration;\n\n        emit SetExchangeRate(asset, exchangeRateModel, currentExchangeRate, maxSwingRate, maxSwingDuration);\n        return uint(OracleError.NO_ERROR);\n    }\n\n    /**\n     * @notice set new exchange rate maxSwingRate\n     * @dev function to set exchange rate maxSwingRate for an asset\n     * @param asset asset for which to set the exchange rate maxSwingRate\n     * @param maxSwingDuration Interval time\n     * @return uint 0=success, otherwise a failure (see enum OracleError for details)\n     */\n    function setMaxSwingRate(address asset, uint maxSwingDuration) public returns (uint) {\n\n        // Fail when msg.sender is not poster\n        if (msg.sender != anchorAdmin) {\n            return failOracle(asset, OracleError.UNAUTHORIZED, OracleFailureInfo.SET_PRICE_PERMISSION_CHECK);\n        }\n\n        require(\n            maxSwingDuration > 0 && maxSwingDuration <= 604800,\n            \"setMaxSwingRate: maxSwingDuration cannot be zero, less than 31536000 (seconds per week).\"\n        );\n\n        ExchangeRateModel exchangeRateModel = ExchangeRateModel(exchangeRates[asset].exchangeRateModel);\n        uint newMaxSwingRate = exchangeRateModel.getMaxSwingRate(maxSwingDuration);\n        uint oldMaxSwingRate = exchangeRates[asset].maxSwingRate;\n        require(oldMaxSwingRate != newMaxSwingRate, \"setMaxSwingRate: Old and new values cannot be the same.\");\n        require(\n            newMaxSwingRate > 0 && newMaxSwingRate <= exchangeRateModel.getMaxSwingRate(604800),\n            \"setMaxSwingRate: maxSwingRate cannot be zero, less than 31536000 (seconds per week).\"\n        );\n\n        exchangeRates[asset].maxSwingRate = newMaxSwingRate;\n        exchangeRates[asset].maxSwingDuration = maxSwingDuration;\n\n        emit SetMaxSwingRate(asset, oldMaxSwingRate, newMaxSwingRate, maxSwingDuration);\n        return uint(OracleError.NO_ERROR);\n    }\n\n    /**\n     * @notice retrieves price of an asset\n     * @dev function to get price for an asset\n     * @param asset Asset for which to get the price\n     * @return uint mantissa of asset price (scaled by 1e18) or zero if unset or contract paused\n     */\n    function assetPrices(address asset) public view returns (uint) {\n        // Note: zero is treated by the money market as an invalid\n        //       price and will cease operations with that asset\n        //       when zero.\n        //\n        // We get the price as:\n        //\n        //  1. If the contract is paused, return 0.\n        //  2. If the asset has an exchange rate model, the asset price is calculated based on the exchange rate.\n        //  3. Return price in `_assetPrices`, which may be zero.\n\n        if (paused) {\n            return 0;\n        } else {\n            ExchangeRateInfo memory exchangeRateInfo = exchangeRates[asset];\n            if (exchangeRateInfo.exchangeRateModel != address(0)) {\n                uint scale = ExchangeRateModel(exchangeRateInfo.exchangeRateModel).scale();\n                uint currentExchangeRate = ExchangeRateModel(exchangeRateInfo.exchangeRateModel).getExchangeRate();\n                uint currentChangeRate;\n                Error err;\n                (err, currentChangeRate) = mul(currentExchangeRate, scale);\n                if (err != Error.NO_ERROR)\n                    return 0;\n\n                currentChangeRate = currentChangeRate / exchangeRateInfo.exchangeRate;\n                // require(currentExchangeRate >= exchangeRateInfo.exchangeRate && currentChangeRate <= exchangeRateInfo.maxSwingRate, \"assetPrices: Abnormal exchange rate.\");\n                if (currentExchangeRate < exchangeRateInfo.exchangeRate || currentChangeRate > exchangeRateInfo.maxSwingRate)\n                    return 0;\n\n                uint price;\n                (err, price) = mul(_assetPrices[asset].mantissa, currentExchangeRate);\n                if (err != Error.NO_ERROR)\n                    return 0;\n\n                return price / scale;\n            } else {\n                return _assetPrices[asset].mantissa;\n            }\n        }\n    }\n\n    /**\n     * @notice retrieves price of an asset\n     * @dev function to get price for an asset\n     * @param asset Asset for which to get the price\n     * @return uint mantissa of asset price (scaled by 1e18) or zero if unset or contract paused\n     */\n    function getPrice(address asset) public view returns (uint) {\n        return assetPrices(asset);\n    }\n\n    struct SetPriceLocalVars {\n        Exp price;\n        Exp swing;\n        Exp anchorPrice;\n        uint anchorPeriod;\n        uint currentPeriod;\n        bool priceCapped;\n        uint cappingAnchorPriceMantissa;\n        uint pendingAnchorMantissa;\n    }\n\n    /**\n     * @notice entry point for updating prices\n     * @dev function to set price for an asset\n     * @param asset Asset for which to set the price\n     * @param requestedPriceMantissa requested new price, scaled by 10**18\n     * @return uint 0=success, otherwise a failure (see enum OracleError for details)\n     */\n    function setPrice(address asset, uint requestedPriceMantissa) public returns (uint) {\n        // Fail when msg.sender is not poster\n        if (msg.sender != poster) {\n            return failOracle(asset, OracleError.UNAUTHORIZED, OracleFailureInfo.SET_PRICE_PERMISSION_CHECK);\n        }\n\n        return setPriceInternal(asset, requestedPriceMantissa);\n    }\n\n    function setPriceInternal(address asset, uint requestedPriceMantissa) internal returns (uint) {\n        // re-used for intermediate errors\n        Error err;\n        SetPriceLocalVars memory localVars;\n        // We add 1 for currentPeriod so that it can never be zero and there's no ambiguity about an unset value.\n        // (It can be a problem in tests with low block numbers.)\n        localVars.currentPeriod = (block.number / numBlocksPerPeriod) + 1;\n        localVars.pendingAnchorMantissa = pendingAnchors[asset];\n        localVars.price = Exp({mantissa : requestedPriceMantissa});\n\n        if (exchangeRates[asset].exchangeRateModel != address(0)) {\n\n            uint currentExchangeRate = ExchangeRateModel(exchangeRates[asset].exchangeRateModel).getExchangeRate();\n            uint scale = ExchangeRateModel(exchangeRates[asset].exchangeRateModel).scale();\n            uint currentChangeRate;\n            (err, currentChangeRate) = mul(currentExchangeRate, scale);\n            assert(err == Error.NO_ERROR);\n\n            currentChangeRate = currentChangeRate / exchangeRates[asset].exchangeRate;\n            require(currentExchangeRate >= exchangeRates[asset].exchangeRate && currentChangeRate <= exchangeRates[asset].maxSwingRate, \"setPriceInternal: Abnormal exchange rate.\");\n            exchangeRates[asset].exchangeRate = currentExchangeRate;\n        }\n\n        if (localVars.pendingAnchorMantissa != 0) {\n            // let's explicitly set to 0 rather than relying on default of declaration\n            localVars.anchorPeriod = 0;\n            localVars.anchorPrice = Exp({mantissa : localVars.pendingAnchorMantissa});\n\n            // Verify movement is within max swing of pending anchor (currently: 10%)\n            (err, localVars.swing) = calculateSwing(localVars.anchorPrice, localVars.price);\n            if (err != Error.NO_ERROR) {\n                return failOracleWithDetails(asset, OracleError.FAILED_TO_SET_PRICE, OracleFailureInfo.SET_PRICE_CALCULATE_SWING, uint(err));\n            }\n\n            // Fail when swing > maxSwing\n            if (greaterThanExp(localVars.swing, maxSwing)) {\n                return failOracleWithDetails(asset, OracleError.FAILED_TO_SET_PRICE, OracleFailureInfo.SET_PRICE_MAX_SWING_CHECK, localVars.swing.mantissa);\n            }\n        } else {\n            localVars.anchorPeriod = anchors[asset].period;\n            localVars.anchorPrice = Exp({mantissa : anchors[asset].priceMantissa});\n\n            if (localVars.anchorPeriod != 0) {\n                (err, localVars.priceCapped, localVars.price) = capToMax(localVars.anchorPrice, localVars.price);\n                if (err != Error.NO_ERROR) {\n                    return failOracleWithDetails(asset, OracleError.FAILED_TO_SET_PRICE, OracleFailureInfo.SET_PRICE_CAP_TO_MAX, uint(err));\n                }\n                if (localVars.priceCapped) {\n                    // save for use in log\n                    localVars.cappingAnchorPriceMantissa = localVars.anchorPrice.mantissa;\n                }\n            } else {\n                // Setting first price. Accept as is (already assigned above from requestedPriceMantissa) and use as anchor\n                localVars.anchorPrice = Exp({mantissa : requestedPriceMantissa});\n            }\n        }\n\n        // Fail if anchorPrice or price is zero.\n        // zero anchor represents an unexpected situation likely due to a problem in this contract\n        // zero price is more likely as the result of bad input from the caller of this function\n        if (isZeroExp(localVars.anchorPrice)) {\n            // If we get here price could also be zero, but it does not seem worthwhile to distinguish the 3rd case\n            return failOracle(asset, OracleError.FAILED_TO_SET_PRICE, OracleFailureInfo.SET_PRICE_NO_ANCHOR_PRICE_OR_INITIAL_PRICE_ZERO);\n        }\n\n        if (isZeroExp(localVars.price)) {\n            return failOracle(asset, OracleError.FAILED_TO_SET_PRICE, OracleFailureInfo.SET_PRICE_ZERO_PRICE);\n        }\n\n        // BEGIN SIDE EFFECTS\n\n        // Set pendingAnchor = Nothing\n        // Pending anchor is only used once.\n        if (pendingAnchors[asset] != 0) {\n            pendingAnchors[asset] = 0;\n        }\n\n        // If currentPeriod > anchorPeriod:\n        //  Set anchors[asset] = (currentPeriod, price)\n        //  The new anchor is if we're in a new period or we had a pending anchor, then we become the new anchor\n        if (localVars.currentPeriod > localVars.anchorPeriod) {\n            anchors[asset] = Anchor({period : localVars.currentPeriod, priceMantissa : localVars.price.mantissa});\n        }\n\n        uint previousPrice = _assetPrices[asset].mantissa;\n\n        setPriceStorageInternal(asset, localVars.price.mantissa);\n\n        emit PricePosted(asset, previousPrice, requestedPriceMantissa, localVars.price.mantissa);\n\n        if (localVars.priceCapped) {\n            // We have set a capped price. Log it so we can detect the situation and investigate.\n            emit CappedPricePosted(asset, requestedPriceMantissa, localVars.cappingAnchorPriceMantissa, localVars.price.mantissa);\n        }\n\n        return uint(OracleError.NO_ERROR);\n    }\n\n    // As a function to allow harness overrides\n    function setPriceStorageInternal(address asset, uint256 priceMantissa) internal {\n        _assetPrices[asset] = Exp({mantissa: priceMantissa});\n    }\n\n    // abs(price - anchorPrice) / anchorPrice\n    function calculateSwing(Exp memory anchorPrice, Exp memory price) pure internal returns (Error, Exp memory) {\n        Exp memory numerator;\n        Error err;\n\n        if (greaterThanExp(anchorPrice, price)) {\n            (err, numerator) = subExp(anchorPrice, price);\n            // can't underflow\n            assert(err == Error.NO_ERROR);\n        } else {\n            (err, numerator) = subExp(price, anchorPrice);\n            // Given greaterThan check above, price >= anchorPrice so can't underflow.\n            assert(err == Error.NO_ERROR);\n        }\n\n        return divExp(numerator, anchorPrice);\n    }\n\n    function capToMax(Exp memory anchorPrice, Exp memory price) view internal returns (Error, bool, Exp memory) {\n        Exp memory one = Exp({mantissa : mantissaOne});\n        Exp memory onePlusMaxSwing;\n        Exp memory oneMinusMaxSwing;\n        Exp memory max;\n        Exp memory min;\n        // re-used for intermediate errors\n        Error err;\n\n        (err, onePlusMaxSwing) = addExp(one, maxSwing);\n        if (err != Error.NO_ERROR) {\n            return (err, false, Exp({mantissa : 0}));\n        }\n\n        // max = anchorPrice * (1 + maxSwing)\n        (err, max) = mulExp(anchorPrice, onePlusMaxSwing);\n        if (err != Error.NO_ERROR) {\n            return (err, false, Exp({mantissa : 0}));\n        }\n\n        // If price > anchorPrice * (1 + maxSwing)\n        // Set price = anchorPrice * (1 + maxSwing)\n        if (greaterThanExp(price, max)) {\n            return (Error.NO_ERROR, true, max);\n        }\n\n        (err, oneMinusMaxSwing) = subExp(one, maxSwing);\n        if (err != Error.NO_ERROR) {\n            return (err, false, Exp({mantissa : 0}));\n        }\n\n        // min = anchorPrice * (1 - maxSwing)\n        (err, min) = mulExp(anchorPrice, oneMinusMaxSwing);\n        // We can't overflow here or we would have already overflowed above when calculating `max`\n        assert(err == Error.NO_ERROR);\n\n        // If  price < anchorPrice * (1 - maxSwing)\n        // Set price = anchorPrice * (1 - maxSwing)\n        if (lessThanExp(price, min)) {\n            return (Error.NO_ERROR, true, min);\n        }\n\n        return (Error.NO_ERROR, false, price);\n    }\n\n    /**\n     * @notice entry point for updating multiple prices\n     * @dev function to set prices for a variable number of assets.\n     * @param assets a list of up to assets for which to set a price. required: 0 < assets.length == requestedPriceMantissas.length\n     * @param requestedPriceMantissas requested new prices for the assets, scaled by 10**18. required: 0 < assets.length == requestedPriceMantissas.length\n     * @return uint values in same order as inputs. For each: 0=success, otherwise a failure (see enum OracleError for details)\n     */\n    function setPrices(address[] assets, uint[] requestedPriceMantissas) public returns (uint[] memory) {\n        uint numAssets = assets.length;\n        uint numPrices = requestedPriceMantissas.length;\n        uint[] memory result;\n\n        // Fail when msg.sender is not poster\n        if (msg.sender != poster) {\n            result = new uint[](1);\n            result[0] = failOracle(0, OracleError.UNAUTHORIZED, OracleFailureInfo.SET_PRICE_PERMISSION_CHECK);\n            return result;\n        }\n\n        if ((numAssets == 0) || (numPrices != numAssets)) {\n            result = new uint[](1);\n            result[0] = failOracle(0, OracleError.FAILED_TO_SET_PRICE, OracleFailureInfo.SET_PRICES_PARAM_VALIDATION);\n            return result;\n        }\n\n        result = new uint[](numAssets);\n\n        for (uint i = 0; i < numAssets; i++) {\n            result[i] = setPriceInternal(assets[i], requestedPriceMantissas[i]);\n        }\n\n        return result;\n    }\n}\n",
  "sourcePath": "/Users/raghu/Alkemi/alkemi-earn-protocol/contracts/PriceOracle.sol",
  "compiler": {
    "name": "solc",
    "version": "0.4.24+commit.e67f0147.Emscripten.clang"
  },
  "schemaVersion": "3.2.3",
  "updatedAt": "2021-04-13T21:12:23.822Z",
  "devdoc": {
    "methods": {
      "_acceptAnchorAdmin()": {
        "details": "Admin function for pending anchor admin to accept role and update anchor admin",
        "return": "uint 0=success, otherwise a failure"
      },
      "_setPaused(bool)": {
        "details": "Admin function to pause or resume the market",
        "params": {
          "requestedState": "value to assign to `paused`"
        },
        "return": "uint 0=success, otherwise a failure"
      },
      "_setPendingAnchor(address,uint256)": {
        "details": "Admin function to set the anchor price for an asset",
        "params": {
          "asset": "Asset for which to override the anchor price",
          "newScaledPrice": "New anchor price"
        },
        "return": "uint 0=success, otherwise a failure (see enum OracleError for details)"
      },
      "_setPendingAnchorAdmin(address)": {
        "details": "Admin function to begin change of anchor admin. The newPendingAnchorAdmin must call `_acceptAnchorAdmin` to finalize the transfer.",
        "params": {
          "newPendingAnchorAdmin": "New pending anchor admin."
        },
        "return": "uint 0=success, otherwise a failure     * TODO: Should we add a second arg to verify, like a checksum of `newAnchorAdmin` address?"
      },
      "_setPoster(address)": {
        "details": "Admin function to change of poster.",
        "params": {
          "newPoster": "New poster."
        },
        "return": "uint 0=success, otherwise a failure     * TODO: Should we add a second arg to verify, like a checksum of `newAnchorAdmin` address?"
      },
      "assetPrices(address)": {
        "details": "function to get price for an asset",
        "params": {
          "asset": "Asset for which to get the price"
        },
        "return": "uint mantissa of asset price (scaled by 1e18) or zero if unset or contract paused"
      },
      "getPrice(address)": {
        "details": "function to get price for an asset",
        "params": {
          "asset": "Asset for which to get the price"
        },
        "return": "uint mantissa of asset price (scaled by 1e18) or zero if unset or contract paused"
      },
      "setExchangeRate(address,address,uint256)": {
        "details": "function to set exchangeRateModel for an asset",
        "params": {
          "asset": "asset for which to set the exchangeRateModel",
          "exchangeRateModel": "exchangeRateModel address, if the exchangeRateModel is address(0), cancel the exchangeRates",
          "maxSwingDuration": "maxSwingDuration uint, Is a value greater than zero and less than a second of a week"
        },
        "return": "uint 0=success, otherwise a failure (see enum OracleError for details)"
      },
      "setMaxSwingRate(address,uint256)": {
        "details": "function to set exchange rate maxSwingRate for an asset",
        "params": {
          "asset": "asset for which to set the exchange rate maxSwingRate",
          "maxSwingDuration": "Interval time"
        },
        "return": "uint 0=success, otherwise a failure (see enum OracleError for details)"
      },
      "setPrice(address,uint256)": {
        "details": "function to set price for an asset",
        "params": {
          "asset": "Asset for which to set the price",
          "requestedPriceMantissa": "requested new price, scaled by 10**18"
        },
        "return": "uint 0=success, otherwise a failure (see enum OracleError for details)"
      },
      "setPrices(address[],uint256[])": {
        "details": "function to set prices for a variable number of assets.",
        "params": {
          "assets": "a list of up to assets for which to set a price. required: 0 < assets.length == requestedPriceMantissas.length",
          "requestedPriceMantissas": "requested new prices for the assets, scaled by 10**18. required: 0 < assets.length == requestedPriceMantissas.length"
        },
        "return": "uint values in same order as inputs. For each: 0=success, otherwise a failure (see enum OracleError for details)"
      }
    }
  },
  "userdoc": {
    "methods": {
      "_acceptAnchorAdmin()": {
        "notice": "Accepts transfer of anchor admin rights. msg.sender must be pendingAnchorAdmin"
      },
      "_setPaused(bool)": {
        "notice": "set `paused` to the specified state"
      },
      "_setPendingAnchor(address,uint256)": {
        "notice": "provides ability to override the anchor price for an asset"
      },
      "_setPendingAnchorAdmin(address)": {
        "notice": "Begins transfer of anchor admin rights. The newPendingAnchorAdmin must call `_acceptAnchorAdmin` to finalize the transfer."
      },
      "_setPoster(address)": {
        "notice": "Set new poster."
      },
      "assetPrices(address)": {
        "notice": "retrieves price of an asset"
      },
      "getPrice(address)": {
        "notice": "retrieves price of an asset"
      },
      "setExchangeRate(address,address,uint256)": {
        "notice": "set new exchange rate model"
      },
      "setMaxSwingRate(address,uint256)": {
        "notice": "set new exchange rate maxSwingRate"
      },
      "setPrice(address,uint256)": {
        "notice": "entry point for updating prices"
      },
      "setPrices(address[],uint256[])": {
        "notice": "entry point for updating multiple prices"
      }
    }
  }
}