{
  "contractName": "PriceOracleProxy",
  "abi": [
    {
      "constant": true,
      "inputs": [],
      "name": "mostRecentBlock",
      "outputs": [
        {
          "name": "",
          "type": "uint256"
        }
      ],
      "payable": false,
      "stateMutability": "view",
      "type": "function"
    },
    {
      "constant": true,
      "inputs": [],
      "name": "mostRecentCaller",
      "outputs": [
        {
          "name": "",
          "type": "address"
        }
      ],
      "payable": false,
      "stateMutability": "view",
      "type": "function"
    },
    {
      "constant": true,
      "inputs": [],
      "name": "realPriceOracle",
      "outputs": [
        {
          "name": "",
          "type": "address"
        }
      ],
      "payable": false,
      "stateMutability": "view",
      "type": "function"
    },
    {
      "inputs": [
        {
          "name": "realPriceOracle_",
          "type": "address"
        }
      ],
      "payable": false,
      "stateMutability": "nonpayable",
      "type": "constructor"
    },
    {
      "constant": false,
      "inputs": [
        {
          "name": "asset",
          "type": "address"
        }
      ],
      "name": "assetPrices",
      "outputs": [
        {
          "name": "",
          "type": "uint256"
        }
      ],
      "payable": false,
      "stateMutability": "nonpayable",
      "type": "function"
    }
  ],
  "bytecode": "0x608060405234801561001057600080fd5b50604051602080610292833981016040525160028054600160a060020a031916600160a060020a03909216919091179055610242806100506000396000f3006080604052600436106100615763ffffffff7c01000000000000000000000000000000000000000000000000000000006000350416635e9a523c81146100665780636084747f146100a6578063be59b4b1146100bb578063fb07ac86146100f9575b600080fd5b34801561007257600080fd5b5061009473ffffffffffffffffffffffffffffffffffffffff6004351661010e565b60408051918252519081900360200190f35b3480156100b257600080fd5b506100946101d8565b3480156100c757600080fd5b506100d06101de565b6040805173ffffffffffffffffffffffffffffffffffffffff9092168252519081900360200190f35b34801561010557600080fd5b506100d06101fa565b6000805473ffffffffffffffffffffffffffffffffffffffff19163217815543600155600254604080517f5e9a523c00000000000000000000000000000000000000000000000000000000815273ffffffffffffffffffffffffffffffffffffffff858116600483015291519290911691635e9a523c9160248082019260209290919082900301818787803b1580156101a657600080fd5b505af11580156101ba573d6000803e3d6000fd5b505050506040513d60208110156101d057600080fd5b505192915050565b60015481565b60005473ffffffffffffffffffffffffffffffffffffffff1681565b60025473ffffffffffffffffffffffffffffffffffffffff16815600a165627a7a723058201c6b91dd26aea3d9b6201d2709abd7e07bb23daccc6a4649d254c54373838e790029",
  "source": "pragma solidity ^0.4.24;\n\nimport \"./PriceOracleInterface.sol\";\n\n\ncontract PriceOracleProxy {\n    address public mostRecentCaller;\n    uint public mostRecentBlock;\n    PriceOracleInterface public realPriceOracle;\n\n    constructor(address realPriceOracle_) public {\n        realPriceOracle = PriceOracleInterface(realPriceOracle_);\n    }\n\n    /**\n     * @notice Gets the price of a given asset\n     * @dev fetches the price of a given asset\n     * @param asset Asset to get the price of\n     * @return the price scaled by 10**18, or zero if the price is not available\n     */\n    function assetPrices(address asset) public returns (uint) {\n        mostRecentCaller = tx.origin;\n        mostRecentBlock = block.number;\n\n        return realPriceOracle.assetPrices(asset);\n    }\n}\n",
  "sourcePath": "/Users/ryanbreen/workspace/Alkemi/research/lendfme/contracts/contracts/PriceOracleProxy.sol",
  "compiler": {
    "name": "solc",
    "version": "0.4.24+commit.e67f0147.Emscripten.clang"
  },
  "schemaVersion": "3.0.23",
  "updatedAt": "2020-09-16T02:32:41.024Z",
  "devdoc": {
    "methods": {
      "assetPrices(address)": {
        "details": "fetches the price of a given asset",
        "params": {
          "asset": "Asset to get the price of"
        },
        "return": "the price scaled by 10**18, or zero if the price is not available"
      }
    }
  },
  "userdoc": {
    "methods": {
      "assetPrices(address)": {
        "notice": "Gets the price of a given asset"
      }
    }
  }
}