{
  "contractName": "StableCoinInterestRateModel",
  "abi": [
    {
      "anonymous": false,
      "inputs": [
        {
          "indexed": false,
          "name": "error",
          "type": "uint256"
        },
        {
          "indexed": false,
          "name": "info",
          "type": "uint256"
        },
        {
          "indexed": false,
          "name": "detail",
          "type": "uint256"
        }
      ],
      "name": "Failure",
      "type": "event"
    },
    {
      "constant": true,
      "inputs": [
        {
          "name": "_asset",
          "type": "address"
        },
        {
          "name": "cash",
          "type": "uint256"
        },
        {
          "name": "borrows",
          "type": "uint256"
        }
      ],
      "name": "getSupplyRate",
      "outputs": [
        {
          "name": "",
          "type": "uint256"
        },
        {
          "name": "",
          "type": "uint256"
        }
      ],
      "payable": false,
      "stateMutability": "view",
      "type": "function"
    },
    {
      "constant": true,
      "inputs": [
        {
          "name": "_asset",
          "type": "address"
        },
        {
          "name": "cash",
          "type": "uint256"
        },
        {
          "name": "borrows",
          "type": "uint256"
        }
      ],
      "name": "getBorrowRate",
      "outputs": [
        {
          "name": "",
          "type": "uint256"
        },
        {
          "name": "",
          "type": "uint256"
        }
      ],
      "payable": false,
      "stateMutability": "view",
      "type": "function"
    }
  ],
  "bytecode": "0x608060405234801561001057600080fd5b506107db806100206000396000f30060806040526004361061004b5763ffffffff7c0100000000000000000000000000000000000000000000000000000000600035041663517cf73e8114610050578063ed2b5a3c1461009d575b600080fd5b34801561005c57600080fd5b5061008473ffffffffffffffffffffffffffffffffffffffff600435166024356044356100d1565b6040805192835260208301919091528051918290030190f35b3480156100a957600080fd5b5061008473ffffffffffffffffffffffffffffffffffffffff600435166024356044356101f7565b60008060006100de61079d565b6100e661079d565b60006100f061079d565b60006100fa61079d565b600061010461079d565b6000806101118f8f6102b9565b919c509a50985060008b600381111561012657fe5b14610142578a600381111561013757fe5b9c5060009b506101e4565b61014e8a6121346103df565b9098509650600088601981111561016157fe5b1461016857fe5b610172878a61044c565b9096509450600086601981111561018557fe5b1461018c57fe5b61019b856404e520c800610539565b909450925060008460198111156101ae57fe5b146101b557fe5b82516101c2906002610550565b909250905060008260198111156101d557fe5b146101dc57fe5b6000819c509c505b5050505050505050505050935093915050565b600080600061020461079d565b61020c61079d565b600061021661079d565b6000806102238b8b6102b9565b91985096509450600087600381111561023857fe5b146102545786600381111561024957fe5b9850600097506102aa565b6102618562201480610539565b9094509250600084601981111561027457fe5b1461027b57fe5b8251610288906002610550565b9092509050600082601981111561029b57fe5b146102a257fe5b600081985098505b50505050505050935093915050565b60006102c361079d565b6102cb61079d565b60006102d561079d565b60006102df61079d565b60006102e961079d565b60006102f361079d565b6102fd8d8d610580565b9098509650600088600381111561031057fe5b1461034057604080516020818101835260008083528351918201909352918252989b5097995096975089966103d0565b61034b8760036103df565b9096509450600086601981111561035e57fe5b1461036557fe5b61037085600a610539565b9094509250600084601981111561038357fe5b1461038a57fe5b6103ab8360206040519081016040528067016345785d8a0000815250610642565b909250905060008260198111156103be57fe5b146103c557fe5b600087829a509a509a505b50505050505050509250925092565b60006103e961079d565b6000806103fa86600001518661067c565b9092509050600082601981111561040d57fe5b1461042e576040805160208101909152600081529193509091508290610443565b60408051602081019091528181526000945092505b50509250929050565b600061045661079d565b6000806000806000806104718a600001518a6000015161067c565b9096509450600086601981111561048457fe5b146104a557604080516020810190915260008152959750949550869461052c565b6104b76706f05b59d3b20000866106c6565b909450925060008460198111156104ca57fe5b146104eb57604080516020810190915260008152939750929550869261052c565b6104fd83670de0b6b3a7640000610550565b9092509050600082601981111561051057fe5b1461051757fe5b60408051602081019091528181526000985096505b5050505050509250929050565b600061054361079d565b6000806103fa8660000151865b6000808215156105665750600590506000610579565b6000838581151561057357fe5b04915091505b9250929050565b600061058a61079d565b600080600061059761079d565b8615156105b7576040805160208101909152600080825296509450610637565b6105c188886106c6565b909450925060008460198111156105d457fe5b146105f357604080516020810190915260008152600196509450610637565b6105fd87846106ec565b9092509050600082601981111561061057fe5b1461062f57604080516020810190915260008152600296509450610637565b600081955095505b505050509250929050565b600061064c61079d565b600080610661866000015186600001516106c6565b60408051602081019091529081529097909650945050505050565b6000808084151561069357600092508291506106be565b508383028385828115156106a357fe5b04146106b65760039250600091506106be565b600081925092505b509250929050565b6000808383018481106106df57600081925092506106be565b60039250600091506106be565b60006106f661079d565b60008060008061070e88670de0b6b3a764000061067c565b9094509250600084601981111561072157fe5b14610742576040805160208101909152600081529395509293508492610637565b61074c8388610550565b9092509050600082601981111561075f57fe5b14610780576040805160208101909152600081529195509093508490610637565b604080516020810190915290815260009890975095505050505050565b604080516020810190915260008152905600a165627a7a72305820aff6c211b6ba4cd6c91d198ee5972f3a6af020a6785ba06d1f9ec56077bc95880029",
  "source": "pragma solidity ^0.4.24;\n\nimport \"./Exponential.sol\";\nimport \"./ErrorReporter.sol\";\nimport \"./CarefulMath.sol\";\nimport \"./InterestRateModel.sol\";\n\n/**\n  * @title The Compound Stable Coin Interest Rate Model\n  * @author Compound\n  * @notice See Section 2.4 of the Compound Whitepaper\n  */\ncontract StableCoinInterestRateModel is Exponential {\n\n    uint constant oneMinusSpreadBasisPoints = 8500;\n    uint constant blocksPerYear = 2102400;\n\n    enum IRError {\n        NO_ERROR,\n        FAILED_TO_ADD_CASH_PLUS_BORROWS,\n        FAILED_TO_GET_EXP,\n        FAILED_TO_MUL_PRODUCT_TIMES_BORROW_RATE\n    }\n\n    /*\n     * @dev Calculates the utilization rate (borrows / (cash + borrows)) as an Exp\n     */\n    function getUtilizationRate(uint cash, uint borrows) pure internal returns (IRError, Exp memory) {\n        if (borrows == 0) {\n            // Utilization rate is zero when there's no borrows\n            return (IRError.NO_ERROR, Exp({mantissa: 0}));\n        }\n\n        (Error err0, uint cashPlusBorrows) = add(cash, borrows);\n        if (err0 != Error.NO_ERROR) {\n            return (IRError.FAILED_TO_ADD_CASH_PLUS_BORROWS, Exp({mantissa: 0}));\n        }\n\n        (Error err1, Exp memory utilizationRate) = getExp(borrows, cashPlusBorrows);\n        if (err1 != Error.NO_ERROR) {\n            return (IRError.FAILED_TO_GET_EXP, Exp({mantissa: 0}));\n        }\n\n        return (IRError.NO_ERROR, utilizationRate);\n    }\n\n    /*\n     * @dev Calculates the utilization and borrow rates for use by get{Supply,Borrow}Rate functions\n     */\n    function getUtilizationAndAnnualBorrowRate(uint cash, uint borrows) pure internal returns (IRError, Exp memory, Exp memory) {\n        (IRError err0, Exp memory utilizationRate) = getUtilizationRate(cash, borrows);\n        if (err0 != IRError.NO_ERROR) {\n            return (err0, Exp({mantissa: 0}), Exp({mantissa: 0}));\n        }\n\n        // utilizationRate * 0.3 (30%), which is `rate * 3 / 10`\n        (Error err1, Exp memory utilizationRateMuled) = mulScalar(utilizationRate, 3);\n        // `mulScalar` only overflows when the product is >= 2^256.\n        // utilizationRate is a real number on the interval [0,1], which means that\n        // utilizationRate.mantissa is in the interval [0e18,1e18], which means that three times\n        // that is in the interval [0e18,3e18]. That interval has no intersection with 2^256, and therefore\n        // this can never overflow. As such, we assert.\n        assert(err1 == Error.NO_ERROR);\n\n        (Error err2, Exp memory utilizationRateScaled) = divScalar(utilizationRateMuled, 10);\n        // 10 is a constant, and therefore cannot be zero, which is the only error case of divScalar.\n        assert(err2 == Error.NO_ERROR);\n\n        // Add the 10% for (10% + 30% * Ua)\n        (Error err3, Exp memory annualBorrowRate) = addExp(utilizationRateScaled, Exp({mantissa: mantissaOneTenth}));\n        // `addExp` only fails when the addition of mantissas overflow.\n        // As per above, utilizationRateMuled is capped at 3e18 and when divided by 10,\n        // utilizationRateScaled is capped at 3e17. mantissaOneTenth = 1e17, and thus the addition\n        // is capped at 4e17, which is less than 2^256.\n        assert(err3 == Error.NO_ERROR);\n\n        return (IRError.NO_ERROR, utilizationRate, annualBorrowRate);\n    }\n\n    /**\n      * @notice Gets the current supply interest rate based on the given asset, total cash and total borrows\n      * @dev The return value should be scaled by 1e18, thus a return value of\n      *      `(true, 1000000000000)` implies an interest rate of 0.000001 or 0.0001% *per block*.\n      * @param _asset The asset to get the interest rate of\n      * @param cash The total cash of the asset in the market\n      * @param borrows The total borrows of the asset in the market\n      * @return Success or failure and the supply interest rate per block scaled by 10e18\n      */\n    function getSupplyRate(address _asset, uint cash, uint borrows) public view returns (uint, uint) {\n        _asset; // pragma ignore unused argument\n\n        (IRError err0, Exp memory utilizationRate0, Exp memory annualBorrowRate) = getUtilizationAndAnnualBorrowRate(cash, borrows);\n        if (err0 != IRError.NO_ERROR) {\n            return (uint(err0), 0);\n        }\n\n        // We're going to multiply the utilization rate by the spread's numerator\n        (Error err1, Exp memory utilizationRate1) = mulScalar(utilizationRate0, oneMinusSpreadBasisPoints);\n        // mulScalar only overflows when product is greater than or equal to 2^256.\n        // utilization rate's mantissa is a number between [0e18,1e18]. That means that\n        // utilizationRate1 is a value between [0e18,8.5e21]. This is strictly less than 2^256.\n        assert(err1 == Error.NO_ERROR);\n\n        // Next multiply this product times the borrow rate\n        (Error err2, Exp memory supplyRate0) = mulExp(utilizationRate1, annualBorrowRate);\n        // If the product of the mantissas for mulExp are both less than 2^256,\n        // then this operation will never fail. TODO: Verify.\n        // We know that borrow rate is in the interval [0, 4e17] from above.\n        // We know that utilizationRate1 is in the interval [0, 8.5e21] from directly above.\n        // As such, the multiplication is in the interval of [0, 3.4e39]. This is strictly\n        // less than 2^256 (which is about 10e77).\n        assert(err2 == Error.NO_ERROR);\n\n        // And then divide down by the spread's denominator (basis points divisor)\n        // as well as by blocks per year.\n        (Error err3, Exp memory standardSupplyRate) = divScalar(supplyRate0, 10000 * blocksPerYear); // basis points * blocks per year\n        // divScalar only fails when divisor is zero. This is clearly not the case.\n        assert(err3 == Error.NO_ERROR);\n\n        // Note: StableCoins interest rate should be much less than the standard rate for other tokens\n        (Error err4, uint finalSupplyRate) = div(standardSupplyRate.mantissa, 2);\n\n        assert(err4 == Error.NO_ERROR);\n        return (uint(IRError.NO_ERROR), finalSupplyRate);\n    }\n\n    /**\n      * @notice Gets the current borrow interest rate based on the given asset, total cash and total borrows\n      * @dev The return value should be scaled by 1e18, thus a return value of\n      *      `(true, 1000000000000)` implies an interest rate of 0.000001 or 0.0001% *per block*.\n      * @param _asset The asset to get the interest rate of\n      * @param cash The total cash of the asset in the market\n      * @param borrows The total borrows of the asset in the market\n      * @return Success or failure and the borrow interest rate per block scaled by 10e18\n      */\n    function getBorrowRate(address _asset, uint cash, uint borrows) public view returns (uint, uint) {\n        _asset; // pragma ignore unused argument\n\n        (IRError err0, Exp memory _utilizationRate, Exp memory annualBorrowRate) = getUtilizationAndAnnualBorrowRate(cash, borrows);\n        if (err0 != IRError.NO_ERROR) {\n            return (uint(err0), 0);\n        }\n\n        // And then divide down by blocks per year.\n        (Error err1, Exp memory standardBorrowRate) = divScalar(annualBorrowRate, blocksPerYear); // basis points * blocks per year\n        // divScalar only fails when divisor is zero. This is clearly not the case.\n        assert(err1 == Error.NO_ERROR);\n\n        _utilizationRate; // pragma ignore unused variable\n\n        // Note: StableCoins interest rate should be much less than the standard rate for other tokens\n        (Error err2, uint finalBorrowRate) = div(standardBorrowRate.mantissa, 2);\n\n        assert(err2 == Error.NO_ERROR);\n        return (uint(IRError.NO_ERROR), finalBorrowRate);\n    }\n}\n",
  "sourcePath": "/Users/raghu/Alkemi/alkemi-earn-protocol/contracts/StableCoinInterestRateModel.sol",
  "compiler": {
    "name": "solc",
    "version": "0.4.24+commit.e67f0147.Emscripten.clang"
  },
  "schemaVersion": "3.2.3",
  "updatedAt": "2020-09-29T19:27:54.639Z",
  "networkType": "ethereum",
  "devdoc": {
    "author": "Compound",
    "methods": {
      "getBorrowRate(address,uint256,uint256)": {
        "details": "The return value should be scaled by 1e18, thus a return value of     `(true, 1000000000000)` implies an interest rate of 0.000001 or 0.0001% *per block*.",
        "params": {
          "_asset": "The asset to get the interest rate of",
          "borrows": "The total borrows of the asset in the market",
          "cash": "The total cash of the asset in the market"
        },
        "return": "Success or failure and the borrow interest rate per block scaled by 10e18"
      },
      "getSupplyRate(address,uint256,uint256)": {
        "details": "The return value should be scaled by 1e18, thus a return value of     `(true, 1000000000000)` implies an interest rate of 0.000001 or 0.0001% *per block*.",
        "params": {
          "_asset": "The asset to get the interest rate of",
          "borrows": "The total borrows of the asset in the market",
          "cash": "The total cash of the asset in the market"
        },
        "return": "Success or failure and the supply interest rate per block scaled by 10e18"
      }
    },
    "title": "The Compound Stable Coin Interest Rate Model"
  },
  "userdoc": {
    "methods": {
      "getBorrowRate(address,uint256,uint256)": {
        "notice": "Gets the current borrow interest rate based on the given asset, total cash and total borrows"
      },
      "getSupplyRate(address,uint256,uint256)": {
        "notice": "Gets the current supply interest rate based on the given asset, total cash and total borrows"
      }
    }
  }
}