{
  "contractName": "StandardInterestRateModel",
  "abi": [
    {
      "anonymous": false,
      "inputs": [
        {
          "indexed": false,
          "name": "error",
          "type": "uint256"
        },
        {
          "indexed": false,
          "name": "info",
          "type": "uint256"
        },
        {
          "indexed": false,
          "name": "detail",
          "type": "uint256"
        }
      ],
      "name": "Failure",
      "type": "event"
    },
    {
      "constant": true,
      "inputs": [
        {
          "name": "_asset",
          "type": "address"
        },
        {
          "name": "cash",
          "type": "uint256"
        },
        {
          "name": "borrows",
          "type": "uint256"
        }
      ],
      "name": "getSupplyRate",
      "outputs": [
        {
          "name": "",
          "type": "uint256"
        },
        {
          "name": "",
          "type": "uint256"
        }
      ],
      "payable": false,
      "stateMutability": "pure",
      "type": "function"
    },
    {
      "constant": true,
      "inputs": [
        {
          "name": "_asset",
          "type": "address"
        },
        {
          "name": "cash",
          "type": "uint256"
        },
        {
          "name": "borrows",
          "type": "uint256"
        }
      ],
      "name": "getBorrowRate",
      "outputs": [
        {
          "name": "",
          "type": "uint256"
        },
        {
          "name": "",
          "type": "uint256"
        }
      ],
      "payable": false,
      "stateMutability": "pure",
      "type": "function"
    }
  ],
  "bytecode": "0x608060405234801561001057600080fd5b50610788806100206000396000f30060806040526004361061004b5763ffffffff7c0100000000000000000000000000000000000000000000000000000000600035041663517cf73e8114610050578063ed2b5a3c1461009d575b600080fd5b34801561005c57600080fd5b5061008473ffffffffffffffffffffffffffffffffffffffff600435166024356044356100d1565b6040805192835260208301919091528051918290030190f35b3480156100a957600080fd5b5061008473ffffffffffffffffffffffffffffffffffffffff600435166024356044356101cc565b60008060006100de61074a565b6100e661074a565b60006100f061074a565b60006100fa61074a565b600061010461074a565b61010e8d8d610263565b919a5098509650600089600381111561012357fe5b1461013f5788600381111561013457fe5b9a50600099506101bb565b61014b88612328610388565b9096509450600086602181111561015e57fe5b1461016557fe5b61016f85886103f5565b9094509250600084602181111561018257fe5b1461018957fe5b610198836404e520c8006104e2565b909250905060008260218111156101ab57fe5b146101b257fe5b805160009b5099505b505050505050505050935093915050565b60008060006101d961074a565b6101e161074a565b60006101eb61074a565b6101f58989610263565b91965094509250600085600381111561020a57fe5b146102265784600381111561021b57fe5b965060009550610256565b61023383622014806104e2565b9092509050600082602181111561024657fe5b1461024d57fe5b80516000975095505b5050505050935093915050565b600061026d61074a565b61027561074a565b600061027f61074a565b600061028961074a565b600061029361074a565b600061029d61074a565b6102a78d8d6104fd565b909850965060008860038111156102ba57fe5b146102ea57604080516020818101835260008083528351918201909352918252989b509799509697508996610379565b6102f587602d610388565b9096509450600086602181111561030857fe5b1461030f57fe5b61031a8560646104e2565b9094509250600084602181111561032d57fe5b1461033457fe5b6103548360206040519081016040528066b1a2bc2ec500008152506105bf565b9092509050600082602181111561036757fe5b1461036e57fe5b600087829a509a509a505b50505050505050509250925092565b600061039261074a565b6000806103a38660000151866105f9565b909250905060008260218111156103b657fe5b146103d75760408051602081019091526000815291935090915082906103ec565b60408051602081019091528181526000945092505b50509250929050565b60006103ff61074a565b60008060008060008061041a8a600001518a600001516105f9565b9096509450600086602181111561042d57fe5b1461044e5760408051602081019091526000815295975094955086946104d5565b6104606706f05b59d3b2000086610643565b9094509250600084602181111561047357fe5b146104945760408051602081019091526000815293975092955086926104d5565b6104a683670de0b6b3a7640000610669565b909250905060008260218111156104b957fe5b146104c057fe5b60408051602081019091528181526000985096505b5050505050509250929050565b60006104ec61074a565b6000806103a3866000015186610669565b600061050761074a565b600080600061051461074a565b8615156105345760408051602081019091526000808252965094506105b4565b61053e8888610643565b9094509250600084602181111561055157fe5b14610570576040805160208101909152600081526001965094506105b4565b61057a8784610699565b9092509050600082602181111561058d57fe5b146105ac576040805160208101909152600081526002965094506105b4565b600081955095505b505050509250929050565b60006105c961074a565b6000806105de86600001518660000151610643565b60408051602081019091529081529097909650945050505050565b60008080841515610610576000925082915061063b565b5083830283858281151561062057fe5b041461063357600392506000915061063b565b600081925092505b509250929050565b60008083830184811061065c576000819250925061063b565b600392506000915061063b565b60008082151561067f5750600590506000610692565b6000838581151561068c57fe5b04915091505b9250929050565b60006106a361074a565b6000806000806106bb88670de0b6b3a76400006105f9565b909450925060008460218111156106ce57fe5b146106ef5760408051602081019091526000815293955092935084926105b4565b6106f98388610669565b9092509050600082602181111561070c57fe5b1461072d5760408051602081019091526000815291955090935084906105b4565b604080516020810190915290815260009890975095505050505050565b604080516020810190915260008152905600a165627a7a72305820ac9da0a07defd9a2cda3260f99c8ad084b1bec611932af0402f115f08e1b53cd0029",
  "source": "pragma solidity ^0.4.24;\n\nimport \"./Exponential.sol\";\nimport \"./ErrorReporter.sol\";\nimport \"./CarefulMath.sol\";\nimport \"./InterestRateModel.sol\";\n\n/**\n  * @title The Compound Standard Interest Rate Model\n  * @author Compound\n  * @notice See Section 2.4 of the Compound Whitepaper\n  */\ncontract StandardInterestRateModel is Exponential {\n\n    uint constant oneMinusSpreadBasisPoints = 9000;\n    uint constant blocksPerYear = 2102400;\n    uint constant mantissaFivePercent = 5 * 10**16;\n\n    enum IRError {\n        NO_ERROR,\n        FAILED_TO_ADD_CASH_PLUS_BORROWS,\n        FAILED_TO_GET_EXP,\n        FAILED_TO_MUL_PRODUCT_TIMES_BORROW_RATE\n    }\n\n    /*\n     * @dev Calculates the utilization rate (borrows / (cash + borrows)) as an Exp\n     */\n    function getUtilizationRate(uint cash, uint borrows) pure internal returns (IRError, Exp memory) {\n        if (borrows == 0) {\n            // Utilization rate is zero when there's no borrows\n            return (IRError.NO_ERROR, Exp({mantissa: 0}));\n        }\n\n        (Error err0, uint cashPlusBorrows) = add(cash, borrows);\n        if (err0 != Error.NO_ERROR) {\n            return (IRError.FAILED_TO_ADD_CASH_PLUS_BORROWS, Exp({mantissa: 0}));\n        }\n\n        (Error err1, Exp memory utilizationRate) = getExp(borrows, cashPlusBorrows);\n        if (err1 != Error.NO_ERROR) {\n            return (IRError.FAILED_TO_GET_EXP, Exp({mantissa: 0}));\n        }\n\n        return (IRError.NO_ERROR, utilizationRate);\n    }\n\n    /*\n     * @dev Calculates the utilization and borrow rates for use by get{Supply,Borrow}Rate functions\n     */\n    function getUtilizationAndAnnualBorrowRate(uint cash, uint borrows) pure internal returns (IRError, Exp memory, Exp memory) {\n        (IRError err0, Exp memory utilizationRate) = getUtilizationRate(cash, borrows);\n        if (err0 != IRError.NO_ERROR) {\n            return (err0, Exp({mantissa: 0}), Exp({mantissa: 0}));\n        }\n\n        // Borrow Rate is 5% + UtilizationRate * 45%\n        // 45% of utilizationRate, is `rate * 45 / 100`\n        (Error err1, Exp memory utilizationRateMuled) = mulScalar(utilizationRate, 45);\n        // `mulScalar` only overflows when the product is >= 2^256.\n        // utilizationRate is a real number on the interval [0,1], which means that\n        // utilizationRate.mantissa is in the interval [0e18,1e18], which means that 45 times\n        // that is in the interval [0e18,45e18]. That interval has no intersection with 2^256, and therefore\n        // this can never overflow. As such, we assert.\n        assert(err1 == Error.NO_ERROR);\n\n        (Error err2, Exp memory utilizationRateScaled) = divScalar(utilizationRateMuled, 100);\n        // 100 is a constant, and therefore cannot be zero, which is the only error case of divScalar.\n        assert(err2 == Error.NO_ERROR);\n\n        // Add the 5% for (5% + 45% * Ua)\n        (Error err3, Exp memory annualBorrowRate) = addExp(utilizationRateScaled, Exp({mantissa: mantissaFivePercent}));\n        // `addExp` only fails when the addition of mantissas overflow.\n        // As per above, utilizationRateMuled is capped at 45e18,\n        // and utilizationRateScaled is capped at 4.5e17. mantissaFivePercent = 0.5e17, and thus the addition\n        // is capped at 5e17, which is less than 2^256.\n        assert(err3 == Error.NO_ERROR);\n\n        return (IRError.NO_ERROR, utilizationRate, annualBorrowRate);\n    }\n\n    /**\n      * @notice Gets the current supply interest rate based on the given asset, total cash and total borrows\n      * @dev The return value should be scaled by 1e18, thus a return value of\n      *      `(true, 1000000000000)` implies an interest rate of 0.000001 or 0.0001% *per block*.\n      * @param _asset The asset to get the interest rate of\n      * @param cash The total cash of the asset in the market\n      * @param borrows The total borrows of the asset in the market\n      * @return Success or failure and the supply interest rate per block scaled by 10e18\n      */\n    function getSupplyRate(address _asset, uint cash, uint borrows) public pure returns (uint, uint) {\n        _asset; // pragma ignore unused argument\n\n        (IRError err0, Exp memory utilizationRate0, Exp memory annualBorrowRate) = getUtilizationAndAnnualBorrowRate(cash, borrows);\n        if (err0 != IRError.NO_ERROR) {\n            return (uint(err0), 0);\n        }\n\n        // We're going to multiply the utilization rate by the spread's numerator\n        (Error err1, Exp memory utilizationRate1) = mulScalar(utilizationRate0, oneMinusSpreadBasisPoints);\n        // mulScalar only overflows when product is greater than or equal to 2^256.\n        // utilization rate's mantissa is a number between [0e18,1e18]. That means that\n        // utilizationRate1 is a value between [0e18,9e21]. This is strictly less than 2^256.\n        assert(err1 == Error.NO_ERROR);\n\n        // Next multiply this product times the borrow rate\n        (Error err2, Exp memory supplyRate0) = mulExp(utilizationRate1, annualBorrowRate);\n        // If the product of the mantissas for mulExp are both less than 2^256,\n        // then this operation will never fail. TODO: Verify.\n        // We know that borrow rate is in the interval [0, 4e17] from above.\n        // We know that utilizationRate1 is in the interval [0, 9e21] from directly above.\n        // As such, the multiplication is in the interval of [0, 3.6e39]. This is strictly\n        // less than 2^256 (which is about 10e77).\n        assert(err2 == Error.NO_ERROR);\n\n        // And then divide down by the spread's denominator (basis points divisor)\n        // as well as by blocks per year.\n        (Error err3, Exp memory supplyRate1) = divScalar(supplyRate0, 10000 * blocksPerYear); // basis points * blocks per year\n        // divScalar only fails when divisor is zero. This is clearly not the case.\n        assert(err3 == Error.NO_ERROR);\n\n        // Note: mantissa is the rate scaled 1e18, which matches the expected result\n        return (uint(IRError.NO_ERROR), supplyRate1.mantissa);\n    }\n\n    /**\n      * @notice Gets the current borrow interest rate based on the given asset, total cash and total borrows\n      * @dev The return value should be scaled by 1e18, thus a return value of\n      *      `(true, 1000000000000)` implies an interest rate of 0.000001 or 0.0001% *per block*.\n      * @param _asset The asset to get the interest rate of\n      * @param cash The total cash of the asset in the market\n      * @param borrows The total borrows of the asset in the market\n      * @return Success or failure and the borrow interest rate per block scaled by 10e18\n      */\n    function getBorrowRate(address _asset, uint cash, uint borrows) public pure returns (uint, uint) {\n        _asset; // pragma ignore unused argument\n\n        (IRError err0, Exp memory _utilizationRate, Exp memory annualBorrowRate) = getUtilizationAndAnnualBorrowRate(cash, borrows);\n        if (err0 != IRError.NO_ERROR) {\n            return (uint(err0), 0);\n        }\n\n        // And then divide down by blocks per year.\n        (Error err1, Exp memory borrowRate) = divScalar(annualBorrowRate, blocksPerYear); // basis points * blocks per year\n        // divScalar only fails when divisor is zero. This is clearly not the case.\n        assert(err1 == Error.NO_ERROR);\n\n        _utilizationRate; // pragma ignore unused variable\n\n        // Note: mantissa is the rate scaled 1e18, which matches the expected result\n        return (uint(IRError.NO_ERROR), borrowRate.mantissa);\n    }\n}\n",
  "sourcePath": "/Users/ryanbreen/Workspace/Alkemi/alkemi-earn/alkemi-earn-protocol/contracts/StandardInterestRateModel.sol",
  "compiler": {
    "name": "solc",
    "version": "0.4.24+commit.e67f0147.Emscripten.clang"
  },
  "schemaVersion": "3.3.3",
  "updatedAt": "2021-01-01T06:41:34.767Z",
  "devdoc": {
    "author": "Compound",
    "methods": {
      "getBorrowRate(address,uint256,uint256)": {
        "details": "The return value should be scaled by 1e18, thus a return value of     `(true, 1000000000000)` implies an interest rate of 0.000001 or 0.0001% *per block*.",
        "params": {
          "_asset": "The asset to get the interest rate of",
          "borrows": "The total borrows of the asset in the market",
          "cash": "The total cash of the asset in the market"
        },
        "return": "Success or failure and the borrow interest rate per block scaled by 10e18"
      },
      "getSupplyRate(address,uint256,uint256)": {
        "details": "The return value should be scaled by 1e18, thus a return value of     `(true, 1000000000000)` implies an interest rate of 0.000001 or 0.0001% *per block*.",
        "params": {
          "_asset": "The asset to get the interest rate of",
          "borrows": "The total borrows of the asset in the market",
          "cash": "The total cash of the asset in the market"
        },
        "return": "Success or failure and the supply interest rate per block scaled by 10e18"
      }
    },
    "title": "The Compound Standard Interest Rate Model"
  },
  "userdoc": {
    "methods": {
      "getBorrowRate(address,uint256,uint256)": {
        "notice": "Gets the current borrow interest rate based on the given asset, total cash and total borrows"
      },
      "getSupplyRate(address,uint256,uint256)": {
        "notice": "Gets the current supply interest rate based on the given asset, total cash and total borrows"
      }
    }
  }
}