{
  "contractName": "TestTokens",
  "abi": [
    {
      "constant": true,
      "inputs": [],
      "name": "supply",
      "outputs": [
        {
          "name": "",
          "type": "uint256"
        }
      ],
      "payable": false,
      "stateMutability": "view",
      "type": "function"
    },
    {
      "constant": true,
      "inputs": [],
      "name": "name",
      "outputs": [
        {
          "name": "",
          "type": "string"
        }
      ],
      "payable": false,
      "stateMutability": "view",
      "type": "function"
    },
    {
      "constant": true,
      "inputs": [
        {
          "name": "",
          "type": "address"
        }
      ],
      "name": "balances",
      "outputs": [
        {
          "name": "",
          "type": "uint256"
        }
      ],
      "payable": false,
      "stateMutability": "view",
      "type": "function"
    },
    {
      "constant": true,
      "inputs": [],
      "name": "decimals",
      "outputs": [
        {
          "name": "",
          "type": "uint8"
        }
      ],
      "payable": false,
      "stateMutability": "view",
      "type": "function"
    },
    {
      "constant": true,
      "inputs": [
        {
          "name": "",
          "type": "address"
        },
        {
          "name": "",
          "type": "address"
        }
      ],
      "name": "allowed",
      "outputs": [
        {
          "name": "",
          "type": "uint256"
        }
      ],
      "payable": false,
      "stateMutability": "view",
      "type": "function"
    },
    {
      "constant": true,
      "inputs": [],
      "name": "symbol",
      "outputs": [
        {
          "name": "",
          "type": "string"
        }
      ],
      "payable": false,
      "stateMutability": "view",
      "type": "function"
    },
    {
      "inputs": [
        {
          "name": "_name",
          "type": "string"
        },
        {
          "name": "_symbol",
          "type": "string"
        },
        {
          "name": "_decimals",
          "type": "uint8"
        },
        {
          "name": "_supply",
          "type": "uint256"
        }
      ],
      "payable": false,
      "stateMutability": "nonpayable",
      "type": "constructor"
    },
    {
      "anonymous": false,
      "inputs": [
        {
          "indexed": false,
          "name": "sender",
          "type": "address"
        },
        {
          "indexed": false,
          "name": "receiver",
          "type": "address"
        },
        {
          "indexed": false,
          "name": "tokens",
          "type": "uint256"
        }
      ],
      "name": "Transfer",
      "type": "event"
    },
    {
      "anonymous": false,
      "inputs": [
        {
          "indexed": false,
          "name": "sender",
          "type": "address"
        },
        {
          "indexed": false,
          "name": "delegate",
          "type": "address"
        },
        {
          "indexed": false,
          "name": "tokens",
          "type": "uint256"
        }
      ],
      "name": "Approval",
      "type": "event"
    },
    {
      "constant": true,
      "inputs": [],
      "name": "totalSupply",
      "outputs": [
        {
          "name": "",
          "type": "uint256"
        }
      ],
      "payable": false,
      "stateMutability": "view",
      "type": "function"
    },
    {
      "constant": true,
      "inputs": [
        {
          "name": "tokenOwner",
          "type": "address"
        }
      ],
      "name": "balanceOf",
      "outputs": [
        {
          "name": "",
          "type": "uint256"
        }
      ],
      "payable": false,
      "stateMutability": "view",
      "type": "function"
    },
    {
      "constant": false,
      "inputs": [
        {
          "name": "receiver",
          "type": "address"
        },
        {
          "name": "numTokens",
          "type": "uint256"
        }
      ],
      "name": "transfer",
      "outputs": [
        {
          "name": "",
          "type": "bool"
        }
      ],
      "payable": false,
      "stateMutability": "nonpayable",
      "type": "function"
    },
    {
      "constant": false,
      "inputs": [
        {
          "name": "delegate",
          "type": "address"
        },
        {
          "name": "numTokens",
          "type": "uint256"
        }
      ],
      "name": "approve",
      "outputs": [
        {
          "name": "",
          "type": "bool"
        }
      ],
      "payable": false,
      "stateMutability": "nonpayable",
      "type": "function"
    },
    {
      "constant": true,
      "inputs": [
        {
          "name": "owner",
          "type": "address"
        },
        {
          "name": "delegate",
          "type": "address"
        }
      ],
      "name": "allowance",
      "outputs": [
        {
          "name": "",
          "type": "uint256"
        }
      ],
      "payable": false,
      "stateMutability": "view",
      "type": "function"
    },
    {
      "constant": false,
      "inputs": [
        {
          "name": "owner",
          "type": "address"
        },
        {
          "name": "buyer",
          "type": "address"
        },
        {
          "name": "numTokens",
          "type": "uint256"
        }
      ],
      "name": "transferFrom",
      "outputs": [
        {
          "name": "",
          "type": "bool"
        }
      ],
      "payable": false,
      "stateMutability": "nonpayable",
      "type": "function"
    },
    {
      "constant": false,
      "inputs": [
        {
          "name": "_owner",
          "type": "address"
        },
        {
          "name": "value",
          "type": "uint256"
        }
      ],
      "name": "allocateTo",
      "outputs": [],
      "payable": false,
      "stateMutability": "nonpayable",
      "type": "function"
    }
  ],
  "bytecode": "0x608060405234801561001057600080fd5b50604051610ac9380380610ac98339810160409081528151602080840151928401516060850151928501805190959490940193909291610055916000918701906100a6565b5082516100699060019060208601906100a6565b506002805460ff191660ff9390931692909217909155670de0b6b3a764000002600381905533600090815260046020526040902055506101419050565b828054600181600116156101000203166002900490600052602060002090601f016020900481019282601f106100e757805160ff1916838001178555610114565b82800160010185558215610114579182015b828111156101145782518255916020019190600101906100f9565b50610120929150610124565b5090565b61013e91905b80821115610120576000815560010161012a565b90565b610979806101506000396000f3006080604052600436106100c45763ffffffff7c0100000000000000000000000000000000000000000000000000000000600035041663047fc9aa81146100c957806306fdde03146100f057806308bca5661461017a578063095ea7b3146101a057806318160ddd146101d857806323b872dd146101ed57806327e235e314610217578063313ce567146102385780635c6581651461026357806370a082311461028a57806395d89b41146102ab578063a9059cbb146102c0578063dd62ed3e146102e4575b600080fd5b3480156100d557600080fd5b506100de61030b565b60408051918252519081900360200190f35b3480156100fc57600080fd5b50610105610311565b6040805160208082528351818301528351919283929083019185019080838360005b8381101561013f578181015183820152602001610127565b50505050905090810190601f16801561016c5780820380516001836020036101000a031916815260200191505b509250505060405180910390f35b34801561018657600080fd5b5061019e600160a060020a036004351660243561039f565b005b3480156101ac57600080fd5b506101c4600160a060020a036004351660243561040a565b604080519115158252519081900360200190f35b3480156101e457600080fd5b506100de610502565b3480156101f957600080fd5b506101c4600160a060020a0360043581169060243516604435610508565b34801561022357600080fd5b506100de600160a060020a036004351661070f565b34801561024457600080fd5b5061024d610721565b6040805160ff9092168252519081900360200190f35b34801561026f57600080fd5b506100de600160a060020a036004358116906024351661072a565b34801561029657600080fd5b506100de600160a060020a0360043516610747565b3480156102b757600080fd5b50610105610762565b3480156102cc57600080fd5b506101c4600160a060020a03600435166024356107bc565b3480156102f057600080fd5b506100de600160a060020a0360043581169060243516610922565b60035481565b6000805460408051602060026001851615610100026000190190941693909304601f810184900484028201840190925281815292918301828280156103975780601f1061036c57610100808354040283529160200191610397565b820191906000526020600020905b81548152906001019060200180831161037a57829003601f168201915b505050505081565b600160a060020a0382166000818152600460209081526040918290208054850190556003805485019055815130815290810192909252818101839052517fddf252ad1be2c89b69c2b068fc378daa952ba7f163c4a11628f55a4df523b3ef9181900360600190a15050565b600033600160a060020a0384161415610493576040805160e560020a62461bcd02815260206004820152602560248201527f53656e64657220616e642064656c65676174652063616e27742062652074686560448201527f2073616d65000000000000000000000000000000000000000000000000000000606482015290519081900360840190fd5b336000818152600560209081526040808320600160a060020a03881680855290835292819020869055805193845290830191909152818101849052517f8c5be1e5ebec7d5bd14f71427d1e84f3dd0314c0f7b2291e5b200ac8c7c3b9259181900360600190a150600192915050565b60035490565b6000600160a060020a038481169084161415610594576040805160e560020a62461bcd02815260206004820152602160248201527f4f776e657220616e642042757965722063616e2774206265207468652073616d60448201527f6500000000000000000000000000000000000000000000000000000000000000606482015290519081900360840190fd5b600160a060020a038416600090815260046020526040902054821115610604576040805160e560020a62461bcd02815260206004820152601260248201527f4e6f7420656e6f7567682062616c616e63650000000000000000000000000000604482015290519081900360640190fd5b600160a060020a038416600090815260056020908152604080832033845290915290205482111561067f576040805160e560020a62461bcd02815260206004820152601460248201527f4e6f7420656e6f75676820616c6c6f77616e6365000000000000000000000000604482015290519081900360640190fd5b600160a060020a038085166000818152600460209081526040808320805488900390559387168083528483208054880190558383526005825284832033845282529184902080548790039055835192835282015280820184905290517fddf252ad1be2c89b69c2b068fc378daa952ba7f163c4a11628f55a4df523b3ef9181900360600190a15060019392505050565b60046020526000908152604090205481565b60025460ff1681565b600560209081526000928352604080842090915290825290205481565b600160a060020a031660009081526004602052604090205490565b60018054604080516020600284861615610100026000190190941693909304601f810184900484028201840190925281815292918301828280156103975780601f1061036c57610100808354040283529160200191610397565b600033600160a060020a0384161415610845576040805160e560020a62461bcd02815260206004820152602560248201527f53656e64657220616e642072656365697665722063616e27742062652074686560448201527f2073616d65000000000000000000000000000000000000000000000000000000606482015290519081900360840190fd5b336000908152600460205260409020548211156108ac576040805160e560020a62461bcd02815260206004820152601260248201527f4e6f7420656e6f7567682062616c616e63650000000000000000000000000000604482015290519081900360640190fd5b33600081815260046020908152604080832080548790039055600160a060020a03871680845292819020805487019055805193845290830191909152818101849052517fddf252ad1be2c89b69c2b068fc378daa952ba7f163c4a11628f55a4df523b3ef9181900360600190a150600192915050565b600160a060020a039182166000908152600560209081526040808320939094168252919091522054905600a165627a7a723058208883166f691eada642117c7c7aac439340fb972212a15358386b61315220461d0029",
  "source": "pragma solidity 0.4.24;\n\ncontract TestTokens {\n//Variables\nstring public name;\nstring public symbol; // Usually is 3 or 4 letters long\nuint8 public decimals; // maximum is 18 decimals\nuint256 public supply;\n\nmapping(address => uint) public balances;\nmapping(address => mapping(address => uint)) public allowed;\n//Events\nevent Transfer(address sender, address receiver, uint256 tokens);\nevent Approval(address sender, address delegate, uint256 tokens);\n//constructor\nconstructor (string memory _name, string memory _symbol, uint8 _decimals, uint256 _supply) public {\n    name = _name;\n    symbol = _symbol;\n    decimals = _decimals;\n    supply = _supply * 10**18;\n    balances[msg.sender] = _supply * 10**18;\n}\n//Functions\n//return the total number of tokens that you have\nfunction totalSupply() external view returns (uint256){\n    return supply;\n} \n\n//How many tokens does this person have\nfunction balanceOf(address tokenOwner) external view returns (uint){\n    return balances[tokenOwner];\n} \n\n//helps in transferring from your account to another person\nfunction transfer(address receiver, uint numTokens) external returns (bool){\n    require(msg.sender != receiver,\"Sender and receiver can't be the same\");\n    require(balances[msg.sender] >= numTokens,\"Not enough balance\");\n    balances[msg.sender] -= numTokens;\n    balances[receiver] += numTokens;\n    emit Transfer(msg.sender,receiver,numTokens);\n    return true;\n} \n\n// Used to delegate authority to send tokens without my approval\nfunction approve(address delegate, uint numTokens) external returns (bool){\n    require(msg.sender != delegate,\"Sender and delegate can't be the same\");\n    allowed[msg.sender][delegate] = numTokens;\n    emit Approval(msg.sender,delegate,numTokens);\n    return true;\n} \n\n// How much has the owner delegated/approved to the delegate\nfunction allowance(address owner, address delegate) external view returns (uint){\n    return allowed[owner][delegate];\n} \n\n// Used by exchanges to send money from owner to buyer\nfunction transferFrom(address owner, address buyer, uint numTokens) external returns (bool){\n    require(owner != buyer,\"Owner and Buyer can't be the same\");\n    require(balances[owner] >= numTokens,\"Not enough balance\");\n    require(allowed[owner][msg.sender] >= numTokens,\"Not enough allowance\");\n    balances[owner] -= numTokens;\n    balances[buyer] += numTokens;\n    allowed[owner][msg.sender] -= numTokens;\n    emit Transfer(owner,buyer,numTokens);\n    return true;\n}\n\n// Should not be used in production\n// Only to allocate testnet tokens to user for testing purposes\nfunction allocateTo(address _owner, uint256 value) public {\n        balances[_owner] += value;\n        supply += value;\n        emit Transfer(address(this), _owner, value);\n    }\n}",
  "sourcePath": "/Users/raghu/Alkemi/alkemi-earn-protocol/contracts/TestTokens.sol",
  "compiler": {
    "name": "solc",
    "version": "0.4.24+commit.e67f0147.Emscripten.clang"
  },
  "schemaVersion": "3.2.3",
  "updatedAt": "2021-02-06T01:20:58.472Z",
  "devdoc": {
    "methods": {}
  },
  "userdoc": {
    "methods": {}
  }
}